{"abi":[{"inputs":[{"internalType":"uint256","name":"minimum","type":"uint256"},{"internalType":"string","name":"fname","type":"string"},{"internalType":"string","name":"campaignName","type":"string"},{"internalType":"string","name":"campaignDesc","type":"string"},{"internalType":"string","name":"imageUrl","type":"string"},{"internalType":"uint256","name":"targetAmount","type":"uint256"},{"internalType":"address","name":"creator","type":"address"}],"stateMutability":"nonpayable","type":"constructor"},{"inputs":[{"internalType":"uint256","name":"index","type":"uint256"}],"name":"approveRequest","outputs":[],"stateMutability":"nonpayable","type":"function"},{"inputs":[{"internalType":"address","name":"","type":"address"}],"name":"approvers","outputs":[{"internalType":"bool","name":"","type":"bool"}],"stateMutability":"view","type":"function"},{"inputs":[],"name":"approversCount","outputs":[{"internalType":"uint256","name":"","type":"uint256"}],"stateMutability":"view","type":"function"},{"inputs":[],"name":"campaign_desc","outputs":[{"internalType":"string","name":"","type":"string"}],"stateMutability":"view","type":"function"},{"inputs":[],"name":"campaign_name","outputs":[{"internalType":"string","name":"","type":"string"}],"stateMutability":"view","type":"function"},{"inputs":[],"name":"contribute","outputs":[],"stateMutability":"payable","type":"function"},{"inputs":[{"internalType":"string","name":"description","type":"string"},{"internalType":"uint256","name":"value","type":"uint256"},{"internalType":"address payable","name":"recipient","type":"address"}],"name":"createRequest","outputs":[],"stateMutability":"nonpayable","type":"function"},{"inputs":[{"internalType":"uint256","name":"index","type":"uint256"}],"name":"finalizeRequest","outputs":[],"stateMutability":"nonpayable","type":"function"},{"inputs":[],"name":"full_name","outputs":[{"internalType":"string","name":"","type":"string"}],"stateMutability":"view","type":"function"},{"inputs":[],"name":"getRequestsCount","outputs":[{"internalType":"uint256","name":"","type":"uint256"}],"stateMutability":"view","type":"function"},{"inputs":[],"name":"getSummary","outputs":[{"internalType":"uint256","name":"","type":"uint256"},{"internalType":"uint256","name":"","type":"uint256"},{"internalType":"uint256","name":"","type":"uint256"},{"internalType":"uint256","name":"","type":"uint256"},{"internalType":"address","name":"","type":"address"},{"internalType":"string","name":"","type":"string"},{"internalType":"string","name":"","type":"string"},{"internalType":"string","name":"","type":"string"},{"internalType":"string","name":"","type":"string"},{"internalType":"uint256","name":"","type":"uint256"}],"stateMutability":"view","type":"function"},{"inputs":[],"name":"image_url","outputs":[{"internalType":"string","name":"","type":"string"}],"stateMutability":"view","type":"function"},{"inputs":[],"name":"manager","outputs":[{"internalType":"address","name":"","type":"address"}],"stateMutability":"view","type":"function"},{"inputs":[],"name":"minimumContribution","outputs":[{"internalType":"uint256","name":"","type":"uint256"}],"stateMutability":"view","type":"function"},{"inputs":[],"name":"numRequests","outputs":[{"internalType":"uint256","name":"","type":"uint256"}],"stateMutability":"view","type":"function"},{"inputs":[{"internalType":"uint256","name":"","type":"uint256"}],"name":"requests","outputs":[{"internalType":"string","name":"description","type":"string"},{"internalType":"uint256","name":"value","type":"uint256"},{"internalType":"address payable","name":"recipient","type":"address"},{"internalType":"bool","name":"complete","type":"bool"},{"internalType":"uint256","name":"approvalCount","type":"uint256"}],"stateMutability":"view","type":"function"},{"inputs":[],"name":"target_amount","outputs":[{"internalType":"uint256","name":"","type":"uint256"}],"stateMutability":"view","type":"function"}],"devdoc":{"kind":"dev","methods":{},"version":1},"evm":{"assembly":"    /* \"Campaign.sol\":620:3776  contract Campaign{... */\n  mstore(0x40, 0x80)\n    /* \"Campaign.sol\":1350:1782  constructor(uint minimum,string memory fname,string memory campaignName,string memory campaignDesc,string memory imageUrl,uint targetAmount,address creator){... */\n  callvalue\n  dup1\n  iszero\n  tag_1\n  jumpi\n  0x00\n  dup1\n  revert\ntag_1:\n  pop\n  mload(0x40)\n  sub(codesize, bytecodeSize)\n  dup1\n  bytecodeSize\n  dup4\n  codecopy\n  dup2\n  dup2\n  add\n  0x40\n  mstore\n  dup2\n  add\n  swap1\n  tag_2\n  swap2\n  swap1\n  tag_3\n  jump\t// in\ntag_2:\n    /* \"Campaign.sol\":1527:1534  creator */\n  dup1\n    /* \"Campaign.sol\":1517:1524  manager */\n  0x01\n  0x00\n    /* \"Campaign.sol\":1517:1534  manager = creator */\n  0x0100\n  exp\n  dup2\n  sload\n  dup2\n  0xffffffffffffffffffffffffffffffffffffffff\n  mul\n  not\n  and\n  swap1\n  dup4\n  0xffffffffffffffffffffffffffffffffffffffff\n  and\n  mul\n  or\n  swap1\n  sstore\n  pop\n    /* \"Campaign.sol\":1567:1574  minimum */\n  dup7\n    /* \"Campaign.sol\":1545:1564  minimumContribution */\n  0x02\n    /* \"Campaign.sol\":1545:1574  minimumContribution = minimum */\n  dup2\n  swap1\n  sstore\n  pop\n    /* \"Campaign.sol\":1602:1603  0 */\n  0x00\n    /* \"Campaign.sol\":1585:1599  approversCount */\n  0x04\n    /* \"Campaign.sol\":1585:1603  approversCount = 0 */\n  dup2\n  swap1\n  sstore\n  pop\n    /* \"Campaign.sol\":1625:1630  fname */\n  dup6\n    /* \"Campaign.sol\":1614:1623  full_name */\n  0x06\n    /* \"Campaign.sol\":1614:1630  full_name= fname */\n  swap1\n  dup1\n  mload\n  swap1\n  0x20\n  add\n  swap1\n  tag_6\n  swap3\n  swap2\n  swap1\n  tag_7\n  jump\t// in\ntag_6:\n  pop\n    /* \"Campaign.sol\":1656:1668  campaignName */\n  dup5\n    /* \"Campaign.sol\":1641:1654  campaign_name */\n  0x07\n    /* \"Campaign.sol\":1641:1668  campaign_name= campaignName */\n  swap1\n  dup1\n  mload\n  swap1\n  0x20\n  add\n  swap1\n  tag_8\n  swap3\n  swap2\n  swap1\n  tag_7\n  jump\t// in\ntag_8:\n  pop\n    /* \"Campaign.sol\":1694:1706  campaignDesc */\n  dup4\n    /* \"Campaign.sol\":1679:1692  campaign_desc */\n  0x08\n    /* \"Campaign.sol\":1679:1706  campaign_desc= campaignDesc */\n  swap1\n  dup1\n  mload\n  swap1\n  0x20\n  add\n  swap1\n  tag_9\n  swap3\n  swap2\n  swap1\n  tag_7\n  jump\t// in\ntag_9:\n  pop\n    /* \"Campaign.sol\":1728:1736  imageUrl */\n  dup3\n    /* \"Campaign.sol\":1717:1726  image_url */\n  0x09\n    /* \"Campaign.sol\":1717:1736  image_url= imageUrl */\n  swap1\n  dup1\n  mload\n  swap1\n  0x20\n  add\n  swap1\n  tag_10\n  swap3\n  swap2\n  swap1\n  tag_7\n  jump\t// in\ntag_10:\n  pop\n    /* \"Campaign.sol\":1762:1774  targetAmount */\n  dup2\n    /* \"Campaign.sol\":1747:1760  target_amount */\n  0x0a\n    /* \"Campaign.sol\":1747:1774  target_amount= targetAmount */\n  dup2\n  swap1\n  sstore\n  pop\n    /* \"Campaign.sol\":1350:1782  constructor(uint minimum,string memory fname,string memory campaignName,string memory campaignDesc,string memory imageUrl,uint targetAmount,address creator){... */\n  pop\n  pop\n  pop\n  pop\n  pop\n  pop\n  pop\n    /* \"Campaign.sol\":620:3776  contract Campaign{... */\n  jump(tag_11)\ntag_7:\n  dup3\n  dup1\n  sload\n  tag_12\n  swap1\n  tag_13\n  jump\t// in\ntag_12:\n  swap1\n  0x00\n  mstore\n  keccak256(0x00, 0x20)\n  swap1\n  0x1f\n  add\n  0x20\n  swap1\n  div\n  dup2\n  add\n  swap3\n  dup3\n  tag_15\n  jumpi\n  0x00\n  dup6\n  sstore\n  jump(tag_14)\ntag_15:\n  dup3\n  0x1f\n  lt\n  tag_16\n  jumpi\n  dup1\n  mload\n  not(0xff)\n  and\n  dup4\n  dup1\n  add\n  or\n  dup6\n  sstore\n  jump(tag_14)\ntag_16:\n  dup3\n  dup1\n  add\n  0x01\n  add\n  dup6\n  sstore\n  dup3\n  iszero\n  tag_14\n  jumpi\n  swap2\n  dup3\n  add\ntag_17:\n  dup3\n  dup2\n  gt\n  iszero\n  tag_18\n  jumpi\n  dup3\n  mload\n  dup3\n  sstore\n  swap2\n  0x20\n  add\n  swap2\n  swap1\n  0x01\n  add\n  swap1\n  jump(tag_17)\ntag_18:\ntag_14:\n  pop\n  swap1\n  pop\n  tag_19\n  swap2\n  swap1\n  tag_20\n  jump\t// in\ntag_19:\n  pop\n  swap1\n  jump\t// out\ntag_20:\ntag_21:\n  dup1\n  dup3\n  gt\n  iszero\n  tag_22\n  jumpi\n  0x00\n  dup2\n  0x00\n  swap1\n  sstore\n  pop\n  0x01\n  add\n  jump(tag_21)\ntag_22:\n  pop\n  swap1\n  jump\t// out\n    /* \"#utility.yul\":7:82   */\ntag_23:\n    /* \"#utility.yul\":40:46   */\n  0x00\n    /* \"#utility.yul\":73:75   */\n  0x40\n    /* \"#utility.yul\":67:76   */\n  mload\n    /* \"#utility.yul\":57:76   */\n  swap1\n  pop\n    /* \"#utility.yul\":7:82   */\n  swap1\n  jump\t// out\n    /* \"#utility.yul\":88:205   */\ntag_24:\n    /* \"#utility.yul\":197:198   */\n  0x00\n    /* \"#utility.yul\":194:195   */\n  dup1\n    /* \"#utility.yul\":187:199   */\n  revert\n    /* \"#utility.yul\":211:328   */\ntag_25:\n    /* \"#utility.yul\":320:321   */\n  0x00\n    /* \"#utility.yul\":317:318   */\n  dup1\n    /* \"#utility.yul\":310:322   */\n  revert\n    /* \"#utility.yul\":334:411   */\ntag_26:\n    /* \"#utility.yul\":371:378   */\n  0x00\n    /* \"#utility.yul\":400:405   */\n  dup2\n    /* \"#utility.yul\":389:405   */\n  swap1\n  pop\n    /* \"#utility.yul\":334:411   */\n  swap2\n  swap1\n  pop\n  jump\t// out\n    /* \"#utility.yul\":417:539   */\ntag_27:\n    /* \"#utility.yul\":490:514   */\n  tag_50\n    /* \"#utility.yul\":508:513   */\n  dup2\n    /* \"#utility.yul\":490:514   */\n  tag_26\n  jump\t// in\ntag_50:\n    /* \"#utility.yul\":483:488   */\n  dup2\n    /* \"#utility.yul\":480:515   */\n  eq\n    /* \"#utility.yul\":470:533   */\n  tag_51\n  jumpi\n    /* \"#utility.yul\":529:530   */\n  0x00\n    /* \"#utility.yul\":526:527   */\n  dup1\n    /* \"#utility.yul\":519:531   */\n  revert\n    /* \"#utility.yul\":470:533   */\ntag_51:\n    /* \"#utility.yul\":417:539   */\n  pop\n  jump\t// out\n    /* \"#utility.yul\":545:688   */\ntag_28:\n    /* \"#utility.yul\":602:607   */\n  0x00\n    /* \"#utility.yul\":633:639   */\n  dup2\n    /* \"#utility.yul\":627:640   */\n  mload\n    /* \"#utility.yul\":618:640   */\n  swap1\n  pop\n    /* \"#utility.yul\":649:682   */\n  tag_53\n    /* \"#utility.yul\":676:681   */\n  dup2\n    /* \"#utility.yul\":649:682   */\n  tag_27\n  jump\t// in\ntag_53:\n    /* \"#utility.yul\":545:688   */\n  swap3\n  swap2\n  pop\n  pop\n  jump\t// out\n    /* \"#utility.yul\":694:811   */\ntag_29:\n    /* \"#utility.yul\":803:804   */\n  0x00\n    /* \"#utility.yul\":800:801   */\n  dup1\n    /* \"#utility.yul\":793:805   */\n  revert\n    /* \"#utility.yul\":817:934   */\ntag_30:\n    /* \"#utility.yul\":926:927   */\n  0x00\n    /* \"#utility.yul\":923:924   */\n  dup1\n    /* \"#utility.yul\":916:928   */\n  revert\n    /* \"#utility.yul\":940:1042   */\ntag_31:\n    /* \"#utility.yul\":981:987   */\n  0x00\n    /* \"#utility.yul\":1032:1034   */\n  0x1f\n    /* \"#utility.yul\":1028:1035   */\n  not\n    /* \"#utility.yul\":1023:1025   */\n  0x1f\n    /* \"#utility.yul\":1016:1021   */\n  dup4\n    /* \"#utility.yul\":1012:1026   */\n  add\n    /* \"#utility.yul\":1008:1036   */\n  and\n    /* \"#utility.yul\":998:1036   */\n  swap1\n  pop\n    /* \"#utility.yul\":940:1042   */\n  swap2\n  swap1\n  pop\n  jump\t// out\n    /* \"#utility.yul\":1048:1228   */\ntag_32:\n    /* \"#utility.yul\":1096:1173   */\n  0x4e487b7100000000000000000000000000000000000000000000000000000000\n    /* \"#utility.yul\":1093:1094   */\n  0x00\n    /* \"#utility.yul\":1086:1174   */\n  mstore\n    /* \"#utility.yul\":1193:1197   */\n  0x41\n    /* \"#utility.yul\":1190:1191   */\n  0x04\n    /* \"#utility.yul\":1183:1198   */\n  mstore\n    /* \"#utility.yul\":1217:1221   */\n  0x24\n    /* \"#utility.yul\":1214:1215   */\n  0x00\n    /* \"#utility.yul\":1207:1222   */\n  revert\n    /* \"#utility.yul\":1234:1515   */\ntag_33:\n    /* \"#utility.yul\":1317:1344   */\n  tag_59\n    /* \"#utility.yul\":1339:1343   */\n  dup3\n    /* \"#utility.yul\":1317:1344   */\n  tag_31\n  jump\t// in\ntag_59:\n    /* \"#utility.yul\":1309:1315   */\n  dup2\n    /* \"#utility.yul\":1305:1345   */\n  add\n    /* \"#utility.yul\":1447:1453   */\n  dup2\n    /* \"#utility.yul\":1435:1445   */\n  dup2\n    /* \"#utility.yul\":1432:1454   */\n  lt\n    /* \"#utility.yul\":1411:1429   */\n  0xffffffffffffffff\n    /* \"#utility.yul\":1399:1409   */\n  dup3\n    /* \"#utility.yul\":1396:1430   */\n  gt\n    /* \"#utility.yul\":1393:1455   */\n  or\n    /* \"#utility.yul\":1390:1478   */\n  iszero\n  tag_60\n  jumpi\n    /* \"#utility.yul\":1458:1476   */\n  tag_61\n  tag_32\n  jump\t// in\ntag_61:\n    /* \"#utility.yul\":1390:1478   */\ntag_60:\n    /* \"#utility.yul\":1498:1508   */\n  dup1\n    /* \"#utility.yul\":1494:1496   */\n  0x40\n    /* \"#utility.yul\":1487:1509   */\n  mstore\n    /* \"#utility.yul\":1277:1515   */\n  pop\n    /* \"#utility.yul\":1234:1515   */\n  pop\n  pop\n  jump\t// out\n    /* \"#utility.yul\":1521:1650   */\ntag_34:\n    /* \"#utility.yul\":1555:1561   */\n  0x00\n    /* \"#utility.yul\":1582:1602   */\n  tag_63\n  tag_23\n  jump\t// in\ntag_63:\n    /* \"#utility.yul\":1572:1602   */\n  swap1\n  pop\n    /* \"#utility.yul\":1611:1644   */\n  tag_64\n    /* \"#utility.yul\":1639:1643   */\n  dup3\n    /* \"#utility.yul\":1631:1637   */\n  dup3\n    /* \"#utility.yul\":1611:1644   */\n  tag_33\n  jump\t// in\ntag_64:\n    /* \"#utility.yul\":1521:1650   */\n  swap2\n  swap1\n  pop\n  jump\t// out\n    /* \"#utility.yul\":1656:1964   */\ntag_35:\n    /* \"#utility.yul\":1718:1722   */\n  0x00\n    /* \"#utility.yul\":1808:1826   */\n  0xffffffffffffffff\n    /* \"#utility.yul\":1800:1806   */\n  dup3\n    /* \"#utility.yul\":1797:1827   */\n  gt\n    /* \"#utility.yul\":1794:1850   */\n  iszero\n  tag_66\n  jumpi\n    /* \"#utility.yul\":1830:1848   */\n  tag_67\n  tag_32\n  jump\t// in\ntag_67:\n    /* \"#utility.yul\":1794:1850   */\ntag_66:\n    /* \"#utility.yul\":1868:1897   */\n  tag_68\n    /* \"#utility.yul\":1890:1896   */\n  dup3\n    /* \"#utility.yul\":1868:1897   */\n  tag_31\n  jump\t// in\ntag_68:\n    /* \"#utility.yul\":1860:1897   */\n  swap1\n  pop\n    /* \"#utility.yul\":1952:1956   */\n  0x20\n    /* \"#utility.yul\":1946:1950   */\n  dup2\n    /* \"#utility.yul\":1942:1957   */\n  add\n    /* \"#utility.yul\":1934:1957   */\n  swap1\n  pop\n    /* \"#utility.yul\":1656:1964   */\n  swap2\n  swap1\n  pop\n  jump\t// out\n    /* \"#utility.yul\":1970:2277   */\ntag_36:\n    /* \"#utility.yul\":2038:2039   */\n  0x00\n    /* \"#utility.yul\":2048:2161   */\ntag_70:\n    /* \"#utility.yul\":2062:2068   */\n  dup4\n    /* \"#utility.yul\":2059:2060   */\n  dup2\n    /* \"#utility.yul\":2056:2069   */\n  lt\n    /* \"#utility.yul\":2048:2161   */\n  iszero\n  tag_72\n  jumpi\n    /* \"#utility.yul\":2147:2148   */\n  dup1\n    /* \"#utility.yul\":2142:2145   */\n  dup3\n    /* \"#utility.yul\":2138:2149   */\n  add\n    /* \"#utility.yul\":2132:2150   */\n  mload\n    /* \"#utility.yul\":2128:2129   */\n  dup2\n    /* \"#utility.yul\":2123:2126   */\n  dup5\n    /* \"#utility.yul\":2119:2130   */\n  add\n    /* \"#utility.yul\":2112:2151   */\n  mstore\n    /* \"#utility.yul\":2084:2086   */\n  0x20\n    /* \"#utility.yul\":2081:2082   */\n  dup2\n    /* \"#utility.yul\":2077:2087   */\n  add\n    /* \"#utility.yul\":2072:2087   */\n  swap1\n  pop\n    /* \"#utility.yul\":2048:2161   */\n  jump(tag_70)\ntag_72:\n    /* \"#utility.yul\":2179:2185   */\n  dup4\n    /* \"#utility.yul\":2176:2177   */\n  dup2\n    /* \"#utility.yul\":2173:2186   */\n  gt\n    /* \"#utility.yul\":2170:2271   */\n  iszero\n  tag_73\n  jumpi\n    /* \"#utility.yul\":2259:2260   */\n  0x00\n    /* \"#utility.yul\":2250:2256   */\n  dup5\n    /* \"#utility.yul\":2245:2248   */\n  dup5\n    /* \"#utility.yul\":2241:2257   */\n  add\n    /* \"#utility.yul\":2234:2261   */\n  mstore\n    /* \"#utility.yul\":2170:2271   */\ntag_73:\n    /* \"#utility.yul\":2019:2277   */\n  pop\n    /* \"#utility.yul\":1970:2277   */\n  pop\n  pop\n  pop\n  jump\t// out\n    /* \"#utility.yul\":2283:2704   */\ntag_37:\n    /* \"#utility.yul\":2372:2377   */\n  0x00\n    /* \"#utility.yul\":2397:2463   */\n  tag_75\n    /* \"#utility.yul\":2413:2462   */\n  tag_76\n    /* \"#utility.yul\":2455:2461   */\n  dup5\n    /* \"#utility.yul\":2413:2462   */\n  tag_35\n  jump\t// in\ntag_76:\n    /* \"#utility.yul\":2397:2463   */\n  tag_34\n  jump\t// in\ntag_75:\n    /* \"#utility.yul\":2388:2463   */\n  swap1\n  pop\n    /* \"#utility.yul\":2486:2492   */\n  dup3\n    /* \"#utility.yul\":2479:2484   */\n  dup2\n    /* \"#utility.yul\":2472:2493   */\n  mstore\n    /* \"#utility.yul\":2524:2528   */\n  0x20\n    /* \"#utility.yul\":2517:2522   */\n  dup2\n    /* \"#utility.yul\":2513:2529   */\n  add\n    /* \"#utility.yul\":2562:2565   */\n  dup5\n    /* \"#utility.yul\":2553:2559   */\n  dup5\n    /* \"#utility.yul\":2548:2551   */\n  dup5\n    /* \"#utility.yul\":2544:2560   */\n  add\n    /* \"#utility.yul\":2541:2566   */\n  gt\n    /* \"#utility.yul\":2538:2650   */\n  iszero\n  tag_77\n  jumpi\n    /* \"#utility.yul\":2569:2648   */\n  tag_78\n  tag_30\n  jump\t// in\ntag_78:\n    /* \"#utility.yul\":2538:2650   */\ntag_77:\n    /* \"#utility.yul\":2659:2698   */\n  tag_79\n    /* \"#utility.yul\":2691:2697   */\n  dup5\n    /* \"#utility.yul\":2686:2689   */\n  dup3\n    /* \"#utility.yul\":2681:2684   */\n  dup6\n    /* \"#utility.yul\":2659:2698   */\n  tag_36\n  jump\t// in\ntag_79:\n    /* \"#utility.yul\":2378:2704   */\n  pop\n    /* \"#utility.yul\":2283:2704   */\n  swap4\n  swap3\n  pop\n  pop\n  pop\n  jump\t// out\n    /* \"#utility.yul\":2724:3079   */\ntag_38:\n    /* \"#utility.yul\":2791:2796   */\n  0x00\n    /* \"#utility.yul\":2840:2843   */\n  dup3\n    /* \"#utility.yul\":2833:2837   */\n  0x1f\n    /* \"#utility.yul\":2825:2831   */\n  dup4\n    /* \"#utility.yul\":2821:2838   */\n  add\n    /* \"#utility.yul\":2817:2844   */\n  slt\n    /* \"#utility.yul\":2807:2929   */\n  tag_81\n  jumpi\n    /* \"#utility.yul\":2848:2927   */\n  tag_82\n  tag_29\n  jump\t// in\ntag_82:\n    /* \"#utility.yul\":2807:2929   */\ntag_81:\n    /* \"#utility.yul\":2958:2964   */\n  dup2\n    /* \"#utility.yul\":2952:2965   */\n  mload\n    /* \"#utility.yul\":2983:3073   */\n  tag_83\n    /* \"#utility.yul\":3069:3072   */\n  dup5\n    /* \"#utility.yul\":3061:3067   */\n  dup3\n    /* \"#utility.yul\":3054:3058   */\n  0x20\n    /* \"#utility.yul\":3046:3052   */\n  dup7\n    /* \"#utility.yul\":3042:3059   */\n  add\n    /* \"#utility.yul\":2983:3073   */\n  tag_37\n  jump\t// in\ntag_83:\n    /* \"#utility.yul\":2974:3073   */\n  swap2\n  pop\n    /* \"#utility.yul\":2797:3079   */\n  pop\n    /* \"#utility.yul\":2724:3079   */\n  swap3\n  swap2\n  pop\n  pop\n  jump\t// out\n    /* \"#utility.yul\":3085:3211   */\ntag_39:\n    /* \"#utility.yul\":3122:3129   */\n  0x00\n    /* \"#utility.yul\":3162:3204   */\n  0xffffffffffffffffffffffffffffffffffffffff\n    /* \"#utility.yul\":3155:3160   */\n  dup3\n    /* \"#utility.yul\":3151:3205   */\n  and\n    /* \"#utility.yul\":3140:3205   */\n  swap1\n  pop\n    /* \"#utility.yul\":3085:3211   */\n  swap2\n  swap1\n  pop\n  jump\t// out\n    /* \"#utility.yul\":3217:3313   */\ntag_40:\n    /* \"#utility.yul\":3254:3261   */\n  0x00\n    /* \"#utility.yul\":3283:3307   */\n  tag_86\n    /* \"#utility.yul\":3301:3306   */\n  dup3\n    /* \"#utility.yul\":3283:3307   */\n  tag_39\n  jump\t// in\ntag_86:\n    /* \"#utility.yul\":3272:3307   */\n  swap1\n  pop\n    /* \"#utility.yul\":3217:3313   */\n  swap2\n  swap1\n  pop\n  jump\t// out\n    /* \"#utility.yul\":3319:3441   */\ntag_41:\n    /* \"#utility.yul\":3392:3416   */\n  tag_88\n    /* \"#utility.yul\":3410:3415   */\n  dup2\n    /* \"#utility.yul\":3392:3416   */\n  tag_40\n  jump\t// in\ntag_88:\n    /* \"#utility.yul\":3385:3390   */\n  dup2\n    /* \"#utility.yul\":3382:3417   */\n  eq\n    /* \"#utility.yul\":3372:3435   */\n  tag_89\n  jumpi\n    /* \"#utility.yul\":3431:3432   */\n  0x00\n    /* \"#utility.yul\":3428:3429   */\n  dup1\n    /* \"#utility.yul\":3421:3433   */\n  revert\n    /* \"#utility.yul\":3372:3435   */\ntag_89:\n    /* \"#utility.yul\":3319:3441   */\n  pop\n  jump\t// out\n    /* \"#utility.yul\":3447:3590   */\ntag_42:\n    /* \"#utility.yul\":3504:3509   */\n  0x00\n    /* \"#utility.yul\":3535:3541   */\n  dup2\n    /* \"#utility.yul\":3529:3542   */\n  mload\n    /* \"#utility.yul\":3520:3542   */\n  swap1\n  pop\n    /* \"#utility.yul\":3551:3584   */\n  tag_91\n    /* \"#utility.yul\":3578:3583   */\n  dup2\n    /* \"#utility.yul\":3551:3584   */\n  tag_41\n  jump\t// in\ntag_91:\n    /* \"#utility.yul\":3447:3590   */\n  swap3\n  swap2\n  pop\n  pop\n  jump\t// out\n    /* \"#utility.yul\":3596:5579   */\ntag_3:\n    /* \"#utility.yul\":3760:3766   */\n  0x00\n    /* \"#utility.yul\":3768:3774   */\n  dup1\n    /* \"#utility.yul\":3776:3782   */\n  0x00\n    /* \"#utility.yul\":3784:3790   */\n  dup1\n    /* \"#utility.yul\":3792:3798   */\n  0x00\n    /* \"#utility.yul\":3800:3806   */\n  dup1\n    /* \"#utility.yul\":3808:3814   */\n  0x00\n    /* \"#utility.yul\":3857:3860   */\n  0xe0\n    /* \"#utility.yul\":3845:3854   */\n  dup9\n    /* \"#utility.yul\":3836:3843   */\n  dup11\n    /* \"#utility.yul\":3832:3855   */\n  sub\n    /* \"#utility.yul\":3828:3861   */\n  slt\n    /* \"#utility.yul\":3825:3945   */\n  iszero\n  tag_93\n  jumpi\n    /* \"#utility.yul\":3864:3943   */\n  tag_94\n  tag_24\n  jump\t// in\ntag_94:\n    /* \"#utility.yul\":3825:3945   */\ntag_93:\n    /* \"#utility.yul\":3984:3985   */\n  0x00\n    /* \"#utility.yul\":4009:4073   */\n  tag_95\n    /* \"#utility.yul\":4065:4072   */\n  dup11\n    /* \"#utility.yul\":4056:4062   */\n  dup3\n    /* \"#utility.yul\":4045:4054   */\n  dup12\n    /* \"#utility.yul\":4041:4063   */\n  add\n    /* \"#utility.yul\":4009:4073   */\n  tag_28\n  jump\t// in\ntag_95:\n    /* \"#utility.yul\":3999:4073   */\n  swap8\n  pop\n    /* \"#utility.yul\":3955:4083   */\n  pop\n    /* \"#utility.yul\":4143:4145   */\n  0x20\n    /* \"#utility.yul\":4132:4141   */\n  dup9\n    /* \"#utility.yul\":4128:4146   */\n  add\n    /* \"#utility.yul\":4122:4147   */\n  mload\n    /* \"#utility.yul\":4174:4192   */\n  0xffffffffffffffff\n    /* \"#utility.yul\":4166:4172   */\n  dup2\n    /* \"#utility.yul\":4163:4193   */\n  gt\n    /* \"#utility.yul\":4160:4277   */\n  iszero\n  tag_96\n  jumpi\n    /* \"#utility.yul\":4196:4275   */\n  tag_97\n  tag_25\n  jump\t// in\ntag_97:\n    /* \"#utility.yul\":4160:4277   */\ntag_96:\n    /* \"#utility.yul\":4301:4375   */\n  tag_98\n    /* \"#utility.yul\":4367:4374   */\n  dup11\n    /* \"#utility.yul\":4358:4364   */\n  dup3\n    /* \"#utility.yul\":4347:4356   */\n  dup12\n    /* \"#utility.yul\":4343:4365   */\n  add\n    /* \"#utility.yul\":4301:4375   */\n  tag_38\n  jump\t// in\ntag_98:\n    /* \"#utility.yul\":4291:4375   */\n  swap7\n  pop\n    /* \"#utility.yul\":4093:4385   */\n  pop\n    /* \"#utility.yul\":4445:4447   */\n  0x40\n    /* \"#utility.yul\":4434:4443   */\n  dup9\n    /* \"#utility.yul\":4430:4448   */\n  add\n    /* \"#utility.yul\":4424:4449   */\n  mload\n    /* \"#utility.yul\":4476:4494   */\n  0xffffffffffffffff\n    /* \"#utility.yul\":4468:4474   */\n  dup2\n    /* \"#utility.yul\":4465:4495   */\n  gt\n    /* \"#utility.yul\":4462:4579   */\n  iszero\n  tag_99\n  jumpi\n    /* \"#utility.yul\":4498:4577   */\n  tag_100\n  tag_25\n  jump\t// in\ntag_100:\n    /* \"#utility.yul\":4462:4579   */\ntag_99:\n    /* \"#utility.yul\":4603:4677   */\n  tag_101\n    /* \"#utility.yul\":4669:4676   */\n  dup11\n    /* \"#utility.yul\":4660:4666   */\n  dup3\n    /* \"#utility.yul\":4649:4658   */\n  dup12\n    /* \"#utility.yul\":4645:4667   */\n  add\n    /* \"#utility.yul\":4603:4677   */\n  tag_38\n  jump\t// in\ntag_101:\n    /* \"#utility.yul\":4593:4677   */\n  swap6\n  pop\n    /* \"#utility.yul\":4395:4687   */\n  pop\n    /* \"#utility.yul\":4747:4749   */\n  0x60\n    /* \"#utility.yul\":4736:4745   */\n  dup9\n    /* \"#utility.yul\":4732:4750   */\n  add\n    /* \"#utility.yul\":4726:4751   */\n  mload\n    /* \"#utility.yul\":4778:4796   */\n  0xffffffffffffffff\n    /* \"#utility.yul\":4770:4776   */\n  dup2\n    /* \"#utility.yul\":4767:4797   */\n  gt\n    /* \"#utility.yul\":4764:4881   */\n  iszero\n  tag_102\n  jumpi\n    /* \"#utility.yul\":4800:4879   */\n  tag_103\n  tag_25\n  jump\t// in\ntag_103:\n    /* \"#utility.yul\":4764:4881   */\ntag_102:\n    /* \"#utility.yul\":4905:4979   */\n  tag_104\n    /* \"#utility.yul\":4971:4978   */\n  dup11\n    /* \"#utility.yul\":4962:4968   */\n  dup3\n    /* \"#utility.yul\":4951:4960   */\n  dup12\n    /* \"#utility.yul\":4947:4969   */\n  add\n    /* \"#utility.yul\":4905:4979   */\n  tag_38\n  jump\t// in\ntag_104:\n    /* \"#utility.yul\":4895:4979   */\n  swap5\n  pop\n    /* \"#utility.yul\":4697:4989   */\n  pop\n    /* \"#utility.yul\":5049:5052   */\n  0x80\n    /* \"#utility.yul\":5038:5047   */\n  dup9\n    /* \"#utility.yul\":5034:5053   */\n  add\n    /* \"#utility.yul\":5028:5054   */\n  mload\n    /* \"#utility.yul\":5081:5099   */\n  0xffffffffffffffff\n    /* \"#utility.yul\":5073:5079   */\n  dup2\n    /* \"#utility.yul\":5070:5100   */\n  gt\n    /* \"#utility.yul\":5067:5184   */\n  iszero\n  tag_105\n  jumpi\n    /* \"#utility.yul\":5103:5182   */\n  tag_106\n  tag_25\n  jump\t// in\ntag_106:\n    /* \"#utility.yul\":5067:5184   */\ntag_105:\n    /* \"#utility.yul\":5208:5282   */\n  tag_107\n    /* \"#utility.yul\":5274:5281   */\n  dup11\n    /* \"#utility.yul\":5265:5271   */\n  dup3\n    /* \"#utility.yul\":5254:5263   */\n  dup12\n    /* \"#utility.yul\":5250:5272   */\n  add\n    /* \"#utility.yul\":5208:5282   */\n  tag_38\n  jump\t// in\ntag_107:\n    /* \"#utility.yul\":5198:5282   */\n  swap4\n  pop\n    /* \"#utility.yul\":4999:5292   */\n  pop\n    /* \"#utility.yul\":5331:5334   */\n  0xa0\n    /* \"#utility.yul\":5358:5422   */\n  tag_108\n    /* \"#utility.yul\":5414:5421   */\n  dup11\n    /* \"#utility.yul\":5405:5411   */\n  dup3\n    /* \"#utility.yul\":5394:5403   */\n  dup12\n    /* \"#utility.yul\":5390:5412   */\n  add\n    /* \"#utility.yul\":5358:5422   */\n  tag_28\n  jump\t// in\ntag_108:\n    /* \"#utility.yul\":5348:5422   */\n  swap3\n  pop\n    /* \"#utility.yul\":5302:5432   */\n  pop\n    /* \"#utility.yul\":5471:5474   */\n  0xc0\n    /* \"#utility.yul\":5498:5562   */\n  tag_109\n    /* \"#utility.yul\":5554:5561   */\n  dup11\n    /* \"#utility.yul\":5545:5551   */\n  dup3\n    /* \"#utility.yul\":5534:5543   */\n  dup12\n    /* \"#utility.yul\":5530:5552   */\n  add\n    /* \"#utility.yul\":5498:5562   */\n  tag_42\n  jump\t// in\ntag_109:\n    /* \"#utility.yul\":5488:5562   */\n  swap2\n  pop\n    /* \"#utility.yul\":5442:5572   */\n  pop\n    /* \"#utility.yul\":3596:5579   */\n  swap3\n  swap6\n  swap9\n  swap2\n  swap5\n  swap8\n  pop\n  swap3\n  swap6\n  pop\n  jump\t// out\n    /* \"#utility.yul\":5585:5765   */\ntag_43:\n    /* \"#utility.yul\":5633:5710   */\n  0x4e487b7100000000000000000000000000000000000000000000000000000000\n    /* \"#utility.yul\":5630:5631   */\n  0x00\n    /* \"#utility.yul\":5623:5711   */\n  mstore\n    /* \"#utility.yul\":5730:5734   */\n  0x22\n    /* \"#utility.yul\":5727:5728   */\n  0x04\n    /* \"#utility.yul\":5720:5735   */\n  mstore\n    /* \"#utility.yul\":5754:5758   */\n  0x24\n    /* \"#utility.yul\":5751:5752   */\n  0x00\n    /* \"#utility.yul\":5744:5759   */\n  revert\n    /* \"#utility.yul\":5771:6091   */\ntag_13:\n    /* \"#utility.yul\":5815:5821   */\n  0x00\n    /* \"#utility.yul\":5852:5853   */\n  0x02\n    /* \"#utility.yul\":5846:5850   */\n  dup3\n    /* \"#utility.yul\":5842:5854   */\n  div\n    /* \"#utility.yul\":5832:5854   */\n  swap1\n  pop\n    /* \"#utility.yul\":5899:5900   */\n  0x01\n    /* \"#utility.yul\":5893:5897   */\n  dup3\n    /* \"#utility.yul\":5889:5901   */\n  and\n    /* \"#utility.yul\":5920:5938   */\n  dup1\n    /* \"#utility.yul\":5910:5991   */\n  tag_112\n  jumpi\n    /* \"#utility.yul\":5976:5980   */\n  0x7f\n    /* \"#utility.yul\":5968:5974   */\n  dup3\n    /* \"#utility.yul\":5964:5981   */\n  and\n    /* \"#utility.yul\":5954:5981   */\n  swap2\n  pop\n    /* \"#utility.yul\":5910:5991   */\ntag_112:\n    /* \"#utility.yul\":6038:6040   */\n  0x20\n    /* \"#utility.yul\":6030:6036   */\n  dup3\n    /* \"#utility.yul\":6027:6041   */\n  lt\n    /* \"#utility.yul\":6007:6025   */\n  dup2\n    /* \"#utility.yul\":6004:6042   */\n  sub\n    /* \"#utility.yul\":6001:6085   */\n  tag_113\n  jumpi\n    /* \"#utility.yul\":6057:6075   */\n  tag_114\n  tag_43\n  jump\t// in\ntag_114:\n    /* \"#utility.yul\":6001:6085   */\ntag_113:\n    /* \"#utility.yul\":5822:6091   */\n  pop\n    /* \"#utility.yul\":5771:6091   */\n  swap2\n  swap1\n  pop\n  jump\t// out\n    /* \"Campaign.sol\":620:3776  contract Campaign{... */\ntag_11:\n  dataSize(sub_0)\n  dup1\n  dataOffset(sub_0)\n  0x00\n  codecopy\n  0x00\n  return\nstop\n\nsub_0: assembly {\n        /* \"Campaign.sol\":620:3776  contract Campaign{... */\n      mstore(0x40, 0x80)\n      jumpi(tag_1, lt(calldatasize, 0x04))\n      shr(0xe0, calldataload(0x00))\n      dup1\n      0x81d12c58\n      gt\n      tag_19\n      jumpi\n      dup1\n      0x8a9cfd55\n      gt\n      tag_20\n      jumpi\n      dup1\n      0x8a9cfd55\n      eq\n      tag_14\n      jumpi\n      dup1\n      0x937e09b1\n      eq\n      tag_15\n      jumpi\n      dup1\n      0x9fb42b1f\n      eq\n      tag_16\n      jumpi\n      dup1\n      0xd7bb99ba\n      eq\n      tag_17\n      jumpi\n      dup1\n      0xd7d1bbdb\n      eq\n      tag_18\n      jumpi\n      jump(tag_1)\n    tag_20:\n      dup1\n      0x81d12c58\n      eq\n      tag_10\n      jumpi\n      dup1\n      0x81e0ffae\n      eq\n      tag_11\n      jumpi\n      dup1\n      0x824f4baf\n      eq\n      tag_12\n      jumpi\n      dup1\n      0x82fde093\n      eq\n      tag_13\n      jumpi\n      jump(tag_1)\n    tag_19:\n      dup1\n      0x4051ddac\n      gt\n      tag_21\n      jumpi\n      dup1\n      0x4051ddac\n      eq\n      tag_6\n      jumpi\n      dup1\n      0x4137e733\n      eq\n      tag_7\n      jumpi\n      dup1\n      0x481c6a75\n      eq\n      tag_8\n      jumpi\n      dup1\n      0x74344884\n      eq\n      tag_9\n      jumpi\n      jump(tag_1)\n    tag_21:\n      dup1\n      0x03441006\n      eq\n      tag_2\n      jumpi\n      dup1\n      0x0a144391\n      eq\n      tag_3\n      jumpi\n      dup1\n      0x1dc4cf2e\n      eq\n      tag_4\n      jumpi\n      dup1\n      0x3410452a\n      eq\n      tag_5\n      jumpi\n    tag_1:\n      0x00\n      dup1\n      revert\n        /* \"Campaign.sol\":2770:3181  function finalizeRequest(uint index) public restricted{... */\n    tag_2:\n      callvalue\n      dup1\n      iszero\n      tag_22\n      jumpi\n      0x00\n      dup1\n      revert\n    tag_22:\n      pop\n      tag_23\n      0x04\n      dup1\n      calldatasize\n      sub\n      dup2\n      add\n      swap1\n      tag_24\n      swap2\n      swap1\n      tag_25\n      jump\t// in\n    tag_24:\n      tag_26\n      jump\t// in\n    tag_23:\n      stop\n        /* \"Campaign.sol\":961:1002  mapping(address => bool) public approvers */\n    tag_3:\n      callvalue\n      dup1\n      iszero\n      tag_27\n      jumpi\n      0x00\n      dup1\n      revert\n    tag_27:\n      pop\n      tag_28\n      0x04\n      dup1\n      calldatasize\n      sub\n      dup2\n      add\n      swap1\n      tag_29\n      swap2\n      swap1\n      tag_30\n      jump\t// in\n    tag_29:\n      tag_31\n      jump\t// in\n    tag_28:\n      mload(0x40)\n      tag_32\n      swap2\n      swap1\n      tag_33\n      jump\t// in\n    tag_32:\n      mload(0x40)\n      dup1\n      swap2\n      sub\n      swap1\n      return\n        /* \"Campaign.sol\":1159:1186  string public campaign_desc */\n    tag_4:\n      callvalue\n      dup1\n      iszero\n      tag_34\n      jumpi\n      0x00\n      dup1\n      revert\n    tag_34:\n      pop\n      tag_35\n      tag_36\n      jump\t// in\n    tag_35:\n      mload(0x40)\n      tag_37\n      swap2\n      swap1\n      tag_38\n      jump\t// in\n    tag_37:\n      mload(0x40)\n      dup1\n      swap2\n      sub\n      swap1\n      return\n        /* \"Campaign.sol\":3658:3773  function getRequestsCount() public view returns(uint){... */\n    tag_5:\n      callvalue\n      dup1\n      iszero\n      tag_39\n      jumpi\n      0x00\n      dup1\n      revert\n    tag_39:\n      pop\n      tag_40\n      tag_41\n      jump\t// in\n    tag_40:\n      mload(0x40)\n      tag_42\n      swap2\n      swap1\n      tag_43\n      jump\t// in\n    tag_42:\n      mload(0x40)\n      dup1\n      swap2\n      sub\n      swap1\n      return\n        /* \"Campaign.sol\":3189:3646  function getSummary() public view returns(uint, uint, uint, uint, address,string memory ,string memory, string memory, string memory,uint){... */\n    tag_6:\n      callvalue\n      dup1\n      iszero\n      tag_44\n      jumpi\n      0x00\n      dup1\n      revert\n    tag_44:\n      pop\n      tag_45\n      tag_46\n      jump\t// in\n    tag_45:\n      mload(0x40)\n      tag_47\n      swap11\n      swap10\n      swap9\n      swap8\n      swap7\n      swap6\n      swap5\n      swap4\n      swap3\n      swap2\n      swap1\n      tag_48\n      jump\t// in\n    tag_47:\n      mload(0x40)\n      dup1\n      swap2\n      sub\n      swap1\n      return\n        /* \"Campaign.sol\":1124:1151  string public campaign_name */\n    tag_7:\n      callvalue\n      dup1\n      iszero\n      tag_49\n      jumpi\n      0x00\n      dup1\n      revert\n    tag_49:\n      pop\n      tag_50\n      tag_51\n      jump\t// in\n    tag_50:\n      mload(0x40)\n      tag_52\n      swap2\n      swap1\n      tag_38\n      jump\t// in\n    tag_52:\n      mload(0x40)\n      dup1\n      swap2\n      sub\n      swap1\n      return\n        /* \"Campaign.sol\":894:916  address public manager */\n    tag_8:\n      callvalue\n      dup1\n      iszero\n      tag_53\n      jumpi\n      0x00\n      dup1\n      revert\n    tag_53:\n      pop\n      tag_54\n      tag_55\n      jump\t// in\n    tag_54:\n      mload(0x40)\n      tag_56\n      swap2\n      swap1\n      tag_57\n      jump\t// in\n    tag_56:\n      mload(0x40)\n      dup1\n      swap2\n      sub\n      swap1\n      return\n        /* \"Campaign.sol\":1093:1116  string public full_name */\n    tag_9:\n      callvalue\n      dup1\n      iszero\n      tag_58\n      jumpi\n      0x00\n      dup1\n      revert\n    tag_58:\n      pop\n      tag_59\n      tag_60\n      jump\t// in\n    tag_59:\n      mload(0x40)\n      tag_61\n      swap2\n      swap1\n      tag_38\n      jump\t// in\n    tag_61:\n      mload(0x40)\n      dup1\n      swap2\n      sub\n      swap1\n      return\n        /* \"Campaign.sol\":1042:1083  mapping (uint => Request) public requests */\n    tag_10:\n      callvalue\n      dup1\n      iszero\n      tag_62\n      jumpi\n      0x00\n      dup1\n      revert\n    tag_62:\n      pop\n      tag_63\n      0x04\n      dup1\n      calldatasize\n      sub\n      dup2\n      add\n      swap1\n      tag_64\n      swap2\n      swap1\n      tag_25\n      jump\t// in\n    tag_64:\n      tag_65\n      jump\t// in\n    tag_63:\n      mload(0x40)\n      tag_66\n      swap6\n      swap5\n      swap4\n      swap3\n      swap2\n      swap1\n      tag_67\n      jump\t// in\n    tag_66:\n      mload(0x40)\n      dup1\n      swap2\n      sub\n      swap1\n      return\n        /* \"Campaign.sol\":1225:1250  uint public target_amount */\n    tag_11:\n      callvalue\n      dup1\n      iszero\n      tag_68\n      jumpi\n      0x00\n      dup1\n      revert\n    tag_68:\n      pop\n      tag_69\n      tag_70\n      jump\t// in\n    tag_69:\n      mload(0x40)\n      tag_71\n      swap2\n      swap1\n      tag_43\n      jump\t// in\n    tag_71:\n      mload(0x40)\n      dup1\n      swap2\n      sub\n      swap1\n      return\n        /* \"Campaign.sol\":1194:1217  string public image_url */\n    tag_12:\n      callvalue\n      dup1\n      iszero\n      tag_72\n      jumpi\n      0x00\n      dup1\n      revert\n    tag_72:\n      pop\n      tag_73\n      tag_74\n      jump\t// in\n    tag_73:\n      mload(0x40)\n      tag_75\n      swap2\n      swap1\n      tag_38\n      jump\t// in\n    tag_75:\n      mload(0x40)\n      dup1\n      swap2\n      sub\n      swap1\n      return\n        /* \"Campaign.sol\":1009:1035  uint public approversCount */\n    tag_13:\n      callvalue\n      dup1\n      iszero\n      tag_76\n      jumpi\n      0x00\n      dup1\n      revert\n    tag_76:\n      pop\n      tag_77\n      tag_78\n      jump\t// in\n    tag_77:\n      mload(0x40)\n      tag_79\n      swap2\n      swap1\n      tag_43\n      jump\t// in\n    tag_79:\n      mload(0x40)\n      dup1\n      swap2\n      sub\n      swap1\n      return\n        /* \"Campaign.sol\":2095:2477  function createRequest(string memory description , uint value , address payable recipient ) public restricted{... */\n    tag_14:\n      callvalue\n      dup1\n      iszero\n      tag_80\n      jumpi\n      0x00\n      dup1\n      revert\n    tag_80:\n      pop\n      tag_81\n      0x04\n      dup1\n      calldatasize\n      sub\n      dup2\n      add\n      swap1\n      tag_82\n      swap2\n      swap1\n      tag_83\n      jump\t// in\n    tag_82:\n      tag_84\n      jump\t// in\n    tag_81:\n      stop\n        /* \"Campaign.sol\":923:954  uint public minimumContribution */\n    tag_15:\n      callvalue\n      dup1\n      iszero\n      tag_85\n      jumpi\n      0x00\n      dup1\n      revert\n    tag_85:\n      pop\n      tag_86\n      tag_87\n      jump\t// in\n    tag_86:\n      mload(0x40)\n      tag_88\n      swap2\n      swap1\n      tag_43\n      jump\t// in\n    tag_88:\n      mload(0x40)\n      dup1\n      swap2\n      sub\n      swap1\n      return\n        /* \"Campaign.sol\":864:887  uint public numRequests */\n    tag_16:\n      callvalue\n      dup1\n      iszero\n      tag_89\n      jumpi\n      0x00\n      dup1\n      revert\n    tag_89:\n      pop\n      tag_90\n      tag_91\n      jump\t// in\n    tag_90:\n      mload(0x40)\n      tag_92\n      swap2\n      swap1\n      tag_43\n      jump\t// in\n    tag_92:\n      mload(0x40)\n      dup1\n      swap2\n      sub\n      swap1\n      return\n        /* \"Campaign.sol\":1790:2087  function contribute() public payable{... */\n    tag_17:\n      tag_93\n      tag_94\n      jump\t// in\n    tag_93:\n      stop\n        /* \"Campaign.sol\":2485:2762  function approveRequest(uint index) public{... */\n    tag_18:\n      callvalue\n      dup1\n      iszero\n      tag_95\n      jumpi\n      0x00\n      dup1\n      revert\n    tag_95:\n      pop\n      tag_96\n      0x04\n      dup1\n      calldatasize\n      sub\n      dup2\n      add\n      swap1\n      tag_97\n      swap2\n      swap1\n      tag_25\n      jump\t// in\n    tag_97:\n      tag_98\n      jump\t// in\n    tag_96:\n      stop\n        /* \"Campaign.sol\":2770:3181  function finalizeRequest(uint index) public restricted{... */\n    tag_26:\n        /* \"Campaign.sol\":1314:1321  manager */\n      0x01\n      0x00\n      swap1\n      sload\n      swap1\n      0x0100\n      exp\n      swap1\n      div\n      0xffffffffffffffffffffffffffffffffffffffff\n      and\n        /* \"Campaign.sol\":1300:1321  msg.sender == manager */\n      0xffffffffffffffffffffffffffffffffffffffff\n      and\n        /* \"Campaign.sol\":1300:1310  msg.sender */\n      caller\n        /* \"Campaign.sol\":1300:1321  msg.sender == manager */\n      0xffffffffffffffffffffffffffffffffffffffff\n      and\n      eq\n        /* \"Campaign.sol\":1292:1322  require(msg.sender == manager) */\n      tag_100\n      jumpi\n      0x00\n      dup1\n      revert\n    tag_100:\n        /* \"Campaign.sol\":2835:2858  Request storage request */\n      0x00\n        /* \"Campaign.sol\":2860:2868  requests */\n      0x05\n        /* \"Campaign.sol\":2860:2875  requests[index] */\n      0x00\n        /* \"Campaign.sol\":2869:2874  index */\n      dup4\n        /* \"Campaign.sol\":2860:2875  requests[index] */\n      dup2\n      mstore\n      0x20\n      add\n      swap1\n      dup2\n      mstore\n      0x20\n      add\n      0x00\n      keccak256\n        /* \"Campaign.sol\":2835:2875  Request storage request= requests[index] */\n      swap1\n      pop\n        /* \"Campaign.sol\":3045:3046  2 */\n      0x02\n        /* \"Campaign.sol\":3028:3042  approversCount */\n      sload(0x04)\n        /* \"Campaign.sol\":3028:3046  approversCount / 2 */\n      tag_102\n      swap2\n      swap1\n      tag_103\n      jump\t// in\n    tag_102:\n        /* \"Campaign.sol\":3003:3010  request */\n      dup2\n        /* \"Campaign.sol\":3003:3024  request.approvalCount */\n      0x03\n      add\n      sload\n        /* \"Campaign.sol\":3003:3047  request.approvalCount > (approversCount / 2) */\n      gt\n        /* \"Campaign.sol\":2995:3048  require(request.approvalCount > (approversCount / 2)) */\n      tag_104\n      jumpi\n      0x00\n      dup1\n      revert\n    tag_104:\n        /* \"Campaign.sol\":3068:3075  request */\n      dup1\n        /* \"Campaign.sol\":3068:3084  request.complete */\n      0x02\n      add\n      0x14\n      swap1\n      sload\n      swap1\n      0x0100\n      exp\n      swap1\n      div\n      0xff\n      and\n        /* \"Campaign.sol\":3067:3084  !request.complete */\n      iszero\n        /* \"Campaign.sol\":3059:3085  require(!request.complete) */\n      tag_105\n      jumpi\n      0x00\n      dup1\n      revert\n    tag_105:\n        /* \"Campaign.sol\":3098:3105  request */\n      dup1\n        /* \"Campaign.sol\":3098:3115  request.recipient */\n      0x02\n      add\n      0x00\n      swap1\n      sload\n      swap1\n      0x0100\n      exp\n      swap1\n      div\n      0xffffffffffffffffffffffffffffffffffffffff\n      and\n        /* \"Campaign.sol\":3098:3124  request.recipient.transfer */\n      0xffffffffffffffffffffffffffffffffffffffff\n      and\n        /* \"Campaign.sol\":3098:3139  request.recipient.transfer(request.value) */\n      0x08fc\n        /* \"Campaign.sol\":3125:3132  request */\n      dup3\n        /* \"Campaign.sol\":3125:3138  request.value */\n      0x01\n      add\n      sload\n        /* \"Campaign.sol\":3098:3139  request.recipient.transfer(request.value) */\n      swap1\n      dup2\n      iszero\n      mul\n      swap1\n      mload(0x40)\n      0x00\n      mload(0x40)\n      dup1\n      dup4\n      sub\n      dup2\n      dup6\n      dup9\n      dup9\n      call\n      swap4\n      pop\n      pop\n      pop\n      pop\n      iszero\n      dup1\n      iszero\n      tag_107\n      jumpi\n      returndatasize\n      0x00\n      dup1\n      returndatacopy\n      revert(0x00, returndatasize)\n    tag_107:\n      pop\n        /* \"Campaign.sol\":3169:3173  true */\n      0x01\n        /* \"Campaign.sol\":3150:3157  request */\n      dup2\n        /* \"Campaign.sol\":3150:3166  request.complete */\n      0x02\n      add\n      0x14\n        /* \"Campaign.sol\":3150:3173  request.complete = true */\n      0x0100\n      exp\n      dup2\n      sload\n      dup2\n      0xff\n      mul\n      not\n      and\n      swap1\n      dup4\n      iszero\n      iszero\n      mul\n      or\n      swap1\n      sstore\n      pop\n        /* \"Campaign.sol\":2824:3181  {... */\n      pop\n        /* \"Campaign.sol\":2770:3181  function finalizeRequest(uint index) public restricted{... */\n      pop\n      jump\t// out\n        /* \"Campaign.sol\":961:1002  mapping(address => bool) public approvers */\n    tag_31:\n      mstore(0x20, 0x03)\n      dup1\n      0x00\n      mstore\n      keccak256(0x00, 0x40)\n      0x00\n      swap2\n      pop\n      sload\n      swap1\n      0x0100\n      exp\n      swap1\n      div\n      0xff\n      and\n      dup2\n      jump\t// out\n        /* \"Campaign.sol\":1159:1186  string public campaign_desc */\n    tag_36:\n      0x08\n      dup1\n      sload\n      tag_108\n      swap1\n      tag_109\n      jump\t// in\n    tag_108:\n      dup1\n      0x1f\n      add\n      0x20\n      dup1\n      swap2\n      div\n      mul\n      0x20\n      add\n      mload(0x40)\n      swap1\n      dup2\n      add\n      0x40\n      mstore\n      dup1\n      swap3\n      swap2\n      swap1\n      dup2\n      dup2\n      mstore\n      0x20\n      add\n      dup3\n      dup1\n      sload\n      tag_110\n      swap1\n      tag_109\n      jump\t// in\n    tag_110:\n      dup1\n      iszero\n      tag_111\n      jumpi\n      dup1\n      0x1f\n      lt\n      tag_112\n      jumpi\n      0x0100\n      dup1\n      dup4\n      sload\n      div\n      mul\n      dup4\n      mstore\n      swap2\n      0x20\n      add\n      swap2\n      jump(tag_111)\n    tag_112:\n      dup3\n      add\n      swap2\n      swap1\n      0x00\n      mstore\n      keccak256(0x00, 0x20)\n      swap1\n    tag_113:\n      dup2\n      sload\n      dup2\n      mstore\n      swap1\n      0x01\n      add\n      swap1\n      0x20\n      add\n      dup1\n      dup4\n      gt\n      tag_113\n      jumpi\n      dup3\n      swap1\n      sub\n      0x1f\n      and\n      dup3\n      add\n      swap2\n    tag_111:\n      pop\n      pop\n      pop\n      pop\n      pop\n      dup2\n      jump\t// out\n        /* \"Campaign.sol\":3658:3773  function getRequestsCount() public view returns(uint){... */\n    tag_41:\n        /* \"Campaign.sol\":3706:3710  uint */\n      0x00\n        /* \"Campaign.sol\":3743:3754  numRequests */\n      dup1\n      sload\n        /* \"Campaign.sol\":3722:3765  return(... */\n      swap1\n      pop\n        /* \"Campaign.sol\":3658:3773  function getRequestsCount() public view returns(uint){... */\n      swap1\n      jump\t// out\n        /* \"Campaign.sol\":3189:3646  function getSummary() public view returns(uint, uint, uint, uint, address,string memory ,string memory, string memory, string memory,uint){... */\n    tag_46:\n        /* \"Campaign.sol\":3231:3235  uint */\n      0x00\n        /* \"Campaign.sol\":3237:3241  uint */\n      dup1\n        /* \"Campaign.sol\":3243:3247  uint */\n      0x00\n        /* \"Campaign.sol\":3249:3253  uint */\n      dup1\n        /* \"Campaign.sol\":3255:3262  address */\n      0x00\n        /* \"Campaign.sol\":3263:3276  string memory */\n      0x60\n        /* \"Campaign.sol\":3278:3291  string memory */\n      dup1\n        /* \"Campaign.sol\":3293:3306  string memory */\n      0x60\n        /* \"Campaign.sol\":3308:3321  string memory */\n      dup1\n        /* \"Campaign.sol\":3322:3326  uint */\n      0x00\n        /* \"Campaign.sol\":3360:3379  minimumContribution */\n      sload(0x02)\n        /* \"Campaign.sol\":3394:3415  address(this).balance */\n      selfbalance\n        /* \"Campaign.sol\":3430:3441  numRequests */\n      sload(0x00)\n        /* \"Campaign.sol\":3456:3470  approversCount */\n      sload(0x04)\n        /* \"Campaign.sol\":3486:3493  manager */\n      0x01\n      0x00\n      swap1\n      sload\n      swap1\n      0x0100\n      exp\n      swap1\n      div\n      0xffffffffffffffffffffffffffffffffffffffff\n      and\n        /* \"Campaign.sol\":3508:3517  full_name */\n      0x06\n        /* \"Campaign.sol\":3532:3545  campaign_name */\n      0x07\n        /* \"Campaign.sol\":3560:3573  campaign_desc */\n      0x08\n        /* \"Campaign.sol\":3588:3597  image_url */\n      0x09\n        /* \"Campaign.sol\":3612:3625  target_amount */\n      sload(0x0a)\n        /* \"Campaign.sol\":3338:3638  return (... */\n      dup5\n      dup1\n      sload\n      tag_116\n      swap1\n      tag_109\n      jump\t// in\n    tag_116:\n      dup1\n      0x1f\n      add\n      0x20\n      dup1\n      swap2\n      div\n      mul\n      0x20\n      add\n      mload(0x40)\n      swap1\n      dup2\n      add\n      0x40\n      mstore\n      dup1\n      swap3\n      swap2\n      swap1\n      dup2\n      dup2\n      mstore\n      0x20\n      add\n      dup3\n      dup1\n      sload\n      tag_117\n      swap1\n      tag_109\n      jump\t// in\n    tag_117:\n      dup1\n      iszero\n      tag_118\n      jumpi\n      dup1\n      0x1f\n      lt\n      tag_119\n      jumpi\n      0x0100\n      dup1\n      dup4\n      sload\n      div\n      mul\n      dup4\n      mstore\n      swap2\n      0x20\n      add\n      swap2\n      jump(tag_118)\n    tag_119:\n      dup3\n      add\n      swap2\n      swap1\n      0x00\n      mstore\n      keccak256(0x00, 0x20)\n      swap1\n    tag_120:\n      dup2\n      sload\n      dup2\n      mstore\n      swap1\n      0x01\n      add\n      swap1\n      0x20\n      add\n      dup1\n      dup4\n      gt\n      tag_120\n      jumpi\n      dup3\n      swap1\n      sub\n      0x1f\n      and\n      dup3\n      add\n      swap2\n    tag_118:\n      pop\n      pop\n      pop\n      pop\n      pop\n      swap5\n      pop\n      dup4\n      dup1\n      sload\n      tag_121\n      swap1\n      tag_109\n      jump\t// in\n    tag_121:\n      dup1\n      0x1f\n      add\n      0x20\n      dup1\n      swap2\n      div\n      mul\n      0x20\n      add\n      mload(0x40)\n      swap1\n      dup2\n      add\n      0x40\n      mstore\n      dup1\n      swap3\n      swap2\n      swap1\n      dup2\n      dup2\n      mstore\n      0x20\n      add\n      dup3\n      dup1\n      sload\n      tag_122\n      swap1\n      tag_109\n      jump\t// in\n    tag_122:\n      dup1\n      iszero\n      tag_123\n      jumpi\n      dup1\n      0x1f\n      lt\n      tag_124\n      jumpi\n      0x0100\n      dup1\n      dup4\n      sload\n      div\n      mul\n      dup4\n      mstore\n      swap2\n      0x20\n      add\n      swap2\n      jump(tag_123)\n    tag_124:\n      dup3\n      add\n      swap2\n      swap1\n      0x00\n      mstore\n      keccak256(0x00, 0x20)\n      swap1\n    tag_125:\n      dup2\n      sload\n      dup2\n      mstore\n      swap1\n      0x01\n      add\n      swap1\n      0x20\n      add\n      dup1\n      dup4\n      gt\n      tag_125\n      jumpi\n      dup3\n      swap1\n      sub\n      0x1f\n      and\n      dup3\n      add\n      swap2\n    tag_123:\n      pop\n      pop\n      pop\n      pop\n      pop\n      swap4\n      pop\n      dup3\n      dup1\n      sload\n      tag_126\n      swap1\n      tag_109\n      jump\t// in\n    tag_126:\n      dup1\n      0x1f\n      add\n      0x20\n      dup1\n      swap2\n      div\n      mul\n      0x20\n      add\n      mload(0x40)\n      swap1\n      dup2\n      add\n      0x40\n      mstore\n      dup1\n      swap3\n      swap2\n      swap1\n      dup2\n      dup2\n      mstore\n      0x20\n      add\n      dup3\n      dup1\n      sload\n      tag_127\n      swap1\n      tag_109\n      jump\t// in\n    tag_127:\n      dup1\n      iszero\n      tag_128\n      jumpi\n      dup1\n      0x1f\n      lt\n      tag_129\n      jumpi\n      0x0100\n      dup1\n      dup4\n      sload\n      div\n      mul\n      dup4\n      mstore\n      swap2\n      0x20\n      add\n      swap2\n      jump(tag_128)\n    tag_129:\n      dup3\n      add\n      swap2\n      swap1\n      0x00\n      mstore\n      keccak256(0x00, 0x20)\n      swap1\n    tag_130:\n      dup2\n      sload\n      dup2\n      mstore\n      swap1\n      0x01\n      add\n      swap1\n      0x20\n      add\n      dup1\n      dup4\n      gt\n      tag_130\n      jumpi\n      dup3\n      swap1\n      sub\n      0x1f\n      and\n      dup3\n      add\n      swap2\n    tag_128:\n      pop\n      pop\n      pop\n      pop\n      pop\n      swap3\n      pop\n      dup2\n      dup1\n      sload\n      tag_131\n      swap1\n      tag_109\n      jump\t// in\n    tag_131:\n      dup1\n      0x1f\n      add\n      0x20\n      dup1\n      swap2\n      div\n      mul\n      0x20\n      add\n      mload(0x40)\n      swap1\n      dup2\n      add\n      0x40\n      mstore\n      dup1\n      swap3\n      swap2\n      swap1\n      dup2\n      dup2\n      mstore\n      0x20\n      add\n      dup3\n      dup1\n      sload\n      tag_132\n      swap1\n      tag_109\n      jump\t// in\n    tag_132:\n      dup1\n      iszero\n      tag_133\n      jumpi\n      dup1\n      0x1f\n      lt\n      tag_134\n      jumpi\n      0x0100\n      dup1\n      dup4\n      sload\n      div\n      mul\n      dup4\n      mstore\n      swap2\n      0x20\n      add\n      swap2\n      jump(tag_133)\n    tag_134:\n      dup3\n      add\n      swap2\n      swap1\n      0x00\n      mstore\n      keccak256(0x00, 0x20)\n      swap1\n    tag_135:\n      dup2\n      sload\n      dup2\n      mstore\n      swap1\n      0x01\n      add\n      swap1\n      0x20\n      add\n      dup1\n      dup4\n      gt\n      tag_135\n      jumpi\n      dup3\n      swap1\n      sub\n      0x1f\n      and\n      dup3\n      add\n      swap2\n    tag_133:\n      pop\n      pop\n      pop\n      pop\n      pop\n      swap2\n      pop\n      swap10\n      pop\n      swap10\n      pop\n      swap10\n      pop\n      swap10\n      pop\n      swap10\n      pop\n      swap10\n      pop\n      swap10\n      pop\n      swap10\n      pop\n      swap10\n      pop\n      swap10\n      pop\n        /* \"Campaign.sol\":3189:3646  function getSummary() public view returns(uint, uint, uint, uint, address,string memory ,string memory, string memory, string memory,uint){... */\n      swap1\n      swap2\n      swap3\n      swap4\n      swap5\n      swap6\n      swap7\n      swap8\n      swap9\n      swap10\n      jump\t// out\n        /* \"Campaign.sol\":1124:1151  string public campaign_name */\n    tag_51:\n      0x07\n      dup1\n      sload\n      tag_136\n      swap1\n      tag_109\n      jump\t// in\n    tag_136:\n      dup1\n      0x1f\n      add\n      0x20\n      dup1\n      swap2\n      div\n      mul\n      0x20\n      add\n      mload(0x40)\n      swap1\n      dup2\n      add\n      0x40\n      mstore\n      dup1\n      swap3\n      swap2\n      swap1\n      dup2\n      dup2\n      mstore\n      0x20\n      add\n      dup3\n      dup1\n      sload\n      tag_137\n      swap1\n      tag_109\n      jump\t// in\n    tag_137:\n      dup1\n      iszero\n      tag_138\n      jumpi\n      dup1\n      0x1f\n      lt\n      tag_139\n      jumpi\n      0x0100\n      dup1\n      dup4\n      sload\n      div\n      mul\n      dup4\n      mstore\n      swap2\n      0x20\n      add\n      swap2\n      jump(tag_138)\n    tag_139:\n      dup3\n      add\n      swap2\n      swap1\n      0x00\n      mstore\n      keccak256(0x00, 0x20)\n      swap1\n    tag_140:\n      dup2\n      sload\n      dup2\n      mstore\n      swap1\n      0x01\n      add\n      swap1\n      0x20\n      add\n      dup1\n      dup4\n      gt\n      tag_140\n      jumpi\n      dup3\n      swap1\n      sub\n      0x1f\n      and\n      dup3\n      add\n      swap2\n    tag_138:\n      pop\n      pop\n      pop\n      pop\n      pop\n      dup2\n      jump\t// out\n        /* \"Campaign.sol\":894:916  address public manager */\n    tag_55:\n      0x01\n      0x00\n      swap1\n      sload\n      swap1\n      0x0100\n      exp\n      swap1\n      div\n      0xffffffffffffffffffffffffffffffffffffffff\n      and\n      dup2\n      jump\t// out\n        /* \"Campaign.sol\":1093:1116  string public full_name */\n    tag_60:\n      0x06\n      dup1\n      sload\n      tag_141\n      swap1\n      tag_109\n      jump\t// in\n    tag_141:\n      dup1\n      0x1f\n      add\n      0x20\n      dup1\n      swap2\n      div\n      mul\n      0x20\n      add\n      mload(0x40)\n      swap1\n      dup2\n      add\n      0x40\n      mstore\n      dup1\n      swap3\n      swap2\n      swap1\n      dup2\n      dup2\n      mstore\n      0x20\n      add\n      dup3\n      dup1\n      sload\n      tag_142\n      swap1\n      tag_109\n      jump\t// in\n    tag_142:\n      dup1\n      iszero\n      tag_143\n      jumpi\n      dup1\n      0x1f\n      lt\n      tag_144\n      jumpi\n      0x0100\n      dup1\n      dup4\n      sload\n      div\n      mul\n      dup4\n      mstore\n      swap2\n      0x20\n      add\n      swap2\n      jump(tag_143)\n    tag_144:\n      dup3\n      add\n      swap2\n      swap1\n      0x00\n      mstore\n      keccak256(0x00, 0x20)\n      swap1\n    tag_145:\n      dup2\n      sload\n      dup2\n      mstore\n      swap1\n      0x01\n      add\n      swap1\n      0x20\n      add\n      dup1\n      dup4\n      gt\n      tag_145\n      jumpi\n      dup3\n      swap1\n      sub\n      0x1f\n      and\n      dup3\n      add\n      swap2\n    tag_143:\n      pop\n      pop\n      pop\n      pop\n      pop\n      dup2\n      jump\t// out\n        /* \"Campaign.sol\":1042:1083  mapping (uint => Request) public requests */\n    tag_65:\n      mstore(0x20, 0x05)\n      dup1\n      0x00\n      mstore\n      keccak256(0x00, 0x40)\n      0x00\n      swap2\n      pop\n      swap1\n      pop\n      dup1\n      0x00\n      add\n      dup1\n      sload\n      tag_146\n      swap1\n      tag_109\n      jump\t// in\n    tag_146:\n      dup1\n      0x1f\n      add\n      0x20\n      dup1\n      swap2\n      div\n      mul\n      0x20\n      add\n      mload(0x40)\n      swap1\n      dup2\n      add\n      0x40\n      mstore\n      dup1\n      swap3\n      swap2\n      swap1\n      dup2\n      dup2\n      mstore\n      0x20\n      add\n      dup3\n      dup1\n      sload\n      tag_147\n      swap1\n      tag_109\n      jump\t// in\n    tag_147:\n      dup1\n      iszero\n      tag_148\n      jumpi\n      dup1\n      0x1f\n      lt\n      tag_149\n      jumpi\n      0x0100\n      dup1\n      dup4\n      sload\n      div\n      mul\n      dup4\n      mstore\n      swap2\n      0x20\n      add\n      swap2\n      jump(tag_148)\n    tag_149:\n      dup3\n      add\n      swap2\n      swap1\n      0x00\n      mstore\n      keccak256(0x00, 0x20)\n      swap1\n    tag_150:\n      dup2\n      sload\n      dup2\n      mstore\n      swap1\n      0x01\n      add\n      swap1\n      0x20\n      add\n      dup1\n      dup4\n      gt\n      tag_150\n      jumpi\n      dup3\n      swap1\n      sub\n      0x1f\n      and\n      dup3\n      add\n      swap2\n    tag_148:\n      pop\n      pop\n      pop\n      pop\n      pop\n      swap1\n      dup1\n      0x01\n      add\n      sload\n      swap1\n      dup1\n      0x02\n      add\n      0x00\n      swap1\n      sload\n      swap1\n      0x0100\n      exp\n      swap1\n      div\n      0xffffffffffffffffffffffffffffffffffffffff\n      and\n      swap1\n      dup1\n      0x02\n      add\n      0x14\n      swap1\n      sload\n      swap1\n      0x0100\n      exp\n      swap1\n      div\n      0xff\n      and\n      swap1\n      dup1\n      0x03\n      add\n      sload\n      swap1\n      pop\n      dup6\n      jump\t// out\n        /* \"Campaign.sol\":1225:1250  uint public target_amount */\n    tag_70:\n      sload(0x0a)\n      dup2\n      jump\t// out\n        /* \"Campaign.sol\":1194:1217  string public image_url */\n    tag_74:\n      0x09\n      dup1\n      sload\n      tag_151\n      swap1\n      tag_109\n      jump\t// in\n    tag_151:\n      dup1\n      0x1f\n      add\n      0x20\n      dup1\n      swap2\n      div\n      mul\n      0x20\n      add\n      mload(0x40)\n      swap1\n      dup2\n      add\n      0x40\n      mstore\n      dup1\n      swap3\n      swap2\n      swap1\n      dup2\n      dup2\n      mstore\n      0x20\n      add\n      dup3\n      dup1\n      sload\n      tag_152\n      swap1\n      tag_109\n      jump\t// in\n    tag_152:\n      dup1\n      iszero\n      tag_153\n      jumpi\n      dup1\n      0x1f\n      lt\n      tag_154\n      jumpi\n      0x0100\n      dup1\n      dup4\n      sload\n      div\n      mul\n      dup4\n      mstore\n      swap2\n      0x20\n      add\n      swap2\n      jump(tag_153)\n    tag_154:\n      dup3\n      add\n      swap2\n      swap1\n      0x00\n      mstore\n      keccak256(0x00, 0x20)\n      swap1\n    tag_155:\n      dup2\n      sload\n      dup2\n      mstore\n      swap1\n      0x01\n      add\n      swap1\n      0x20\n      add\n      dup1\n      dup4\n      gt\n      tag_155\n      jumpi\n      dup3\n      swap1\n      sub\n      0x1f\n      and\n      dup3\n      add\n      swap2\n    tag_153:\n      pop\n      pop\n      pop\n      pop\n      pop\n      dup2\n      jump\t// out\n        /* \"Campaign.sol\":1009:1035  uint public approversCount */\n    tag_78:\n      sload(0x04)\n      dup2\n      jump\t// out\n        /* \"Campaign.sol\":2095:2477  function createRequest(string memory description , uint value , address payable recipient ) public restricted{... */\n    tag_84:\n        /* \"Campaign.sol\":1314:1321  manager */\n      0x01\n      0x00\n      swap1\n      sload\n      swap1\n      0x0100\n      exp\n      swap1\n      div\n      0xffffffffffffffffffffffffffffffffffffffff\n      and\n        /* \"Campaign.sol\":1300:1321  msg.sender == manager */\n      0xffffffffffffffffffffffffffffffffffffffff\n      and\n        /* \"Campaign.sol\":1300:1310  msg.sender */\n      caller\n        /* \"Campaign.sol\":1300:1321  msg.sender == manager */\n      0xffffffffffffffffffffffffffffffffffffffff\n      and\n      eq\n        /* \"Campaign.sol\":1292:1322  require(msg.sender == manager) */\n      tag_157\n      jumpi\n      0x00\n      dup1\n      revert\n    tag_157:\n        /* \"Campaign.sol\":2215:2241  Request storage newRequest */\n      0x00\n        /* \"Campaign.sol\":2244:2252  requests */\n      0x05\n        /* \"Campaign.sol\":2244:2267  requests[numRequests++] */\n      0x00\n        /* \"Campaign.sol\":2253:2264  numRequests */\n      dup1\n      0x00\n        /* \"Campaign.sol\":2253:2266  numRequests++ */\n      dup2\n      sload\n      dup1\n      swap3\n      swap2\n      swap1\n      tag_159\n      swap1\n      tag_160\n      jump\t// in\n    tag_159:\n      swap2\n      swap1\n      pop\n      sstore\n        /* \"Campaign.sol\":2244:2267  requests[numRequests++] */\n      dup2\n      mstore\n      0x20\n      add\n      swap1\n      dup2\n      mstore\n      0x20\n      add\n      0x00\n      keccak256\n        /* \"Campaign.sol\":2215:2267  Request storage newRequest = requests[numRequests++] */\n      swap1\n      pop\n        /* \"Campaign.sol\":2303:2314  description */\n      dup4\n        /* \"Campaign.sol\":2278:2288  newRequest */\n      dup2\n        /* \"Campaign.sol\":2278:2300  newRequest.description */\n      0x00\n      add\n        /* \"Campaign.sol\":2278:2314  newRequest.description = description */\n      swap1\n      dup1\n      mload\n      swap1\n      0x20\n      add\n      swap1\n      tag_161\n      swap3\n      swap2\n      swap1\n      tag_162\n      jump\t// in\n    tag_161:\n      pop\n        /* \"Campaign.sol\":2344:2349  value */\n      dup3\n        /* \"Campaign.sol\":2325:2335  newRequest */\n      dup2\n        /* \"Campaign.sol\":2325:2341  newRequest.value */\n      0x01\n      add\n        /* \"Campaign.sol\":2325:2349  newRequest.value = value */\n      dup2\n      swap1\n      sstore\n      pop\n        /* \"Campaign.sol\":2383:2392  recipient */\n      dup2\n        /* \"Campaign.sol\":2360:2370  newRequest */\n      dup2\n        /* \"Campaign.sol\":2360:2380  newRequest.recipient */\n      0x02\n      add\n      0x00\n        /* \"Campaign.sol\":2360:2392  newRequest.recipient = recipient */\n      0x0100\n      exp\n      dup2\n      sload\n      dup2\n      0xffffffffffffffffffffffffffffffffffffffff\n      mul\n      not\n      and\n      swap1\n      dup4\n      0xffffffffffffffffffffffffffffffffffffffff\n      and\n      mul\n      or\n      swap1\n      sstore\n      pop\n        /* \"Campaign.sol\":2425:2430  false */\n      0x00\n        /* \"Campaign.sol\":2403:2413  newRequest */\n      dup2\n        /* \"Campaign.sol\":2403:2422  newRequest.complete */\n      0x02\n      add\n      0x14\n        /* \"Campaign.sol\":2403:2430  newRequest.complete = false */\n      0x0100\n      exp\n      dup2\n      sload\n      dup2\n      0xff\n      mul\n      not\n      and\n      swap1\n      dup4\n      iszero\n      iszero\n      mul\n      or\n      swap1\n      sstore\n      pop\n        /* \"Campaign.sol\":2468:2469  0 */\n      0x00\n        /* \"Campaign.sol\":2441:2451  newRequest */\n      dup2\n        /* \"Campaign.sol\":2441:2465  newRequest.approvalCount */\n      0x03\n      add\n        /* \"Campaign.sol\":2441:2469  newRequest.approvalCount = 0 */\n      dup2\n      swap1\n      sstore\n      pop\n        /* \"Campaign.sol\":2204:2477  {... */\n      pop\n        /* \"Campaign.sol\":2095:2477  function createRequest(string memory description , uint value , address payable recipient ) public restricted{... */\n      pop\n      pop\n      pop\n      jump\t// out\n        /* \"Campaign.sol\":923:954  uint public minimumContribution */\n    tag_87:\n      sload(0x02)\n      dup2\n      jump\t// out\n        /* \"Campaign.sol\":864:887  uint public numRequests */\n    tag_91:\n      sload(0x00)\n      dup2\n      jump\t// out\n        /* \"Campaign.sol\":1790:2087  function contribute() public payable{... */\n    tag_94:\n        /* \"Campaign.sol\":1857:1876  minimumContribution */\n      sload(0x02)\n        /* \"Campaign.sol\":1845:1854  msg.value */\n      callvalue\n        /* \"Campaign.sol\":1845:1876  msg.value > minimumContribution */\n      gt\n        /* \"Campaign.sol\":1837:1877  require(msg.value > minimumContribution) */\n      tag_164\n      jumpi\n      0x00\n      dup1\n      revert\n    tag_164:\n        /* \"Campaign.sol\":1962:1971  approvers */\n      0x03\n        /* \"Campaign.sol\":1962:1983  approvers[msg.sender] */\n      0x00\n        /* \"Campaign.sol\":1972:1982  msg.sender */\n      caller\n        /* \"Campaign.sol\":1962:1983  approvers[msg.sender] */\n      0xffffffffffffffffffffffffffffffffffffffff\n      and\n      0xffffffffffffffffffffffffffffffffffffffff\n      and\n      dup2\n      mstore\n      0x20\n      add\n      swap1\n      dup2\n      mstore\n      0x20\n      add\n      0x00\n      keccak256\n      0x00\n      swap1\n      sload\n      swap1\n      0x0100\n      exp\n      swap1\n      div\n      0xff\n      and\n        /* \"Campaign.sol\":1958:2080  if(!approvers[msg.sender])... */\n      tag_165\n      jumpi\n        /* \"Campaign.sol\":2033:2037  true */\n      0x01\n        /* \"Campaign.sol\":2009:2018  approvers */\n      0x03\n        /* \"Campaign.sol\":2009:2030  approvers[msg.sender] */\n      0x00\n        /* \"Campaign.sol\":2019:2029  msg.sender */\n      caller\n        /* \"Campaign.sol\":2009:2030  approvers[msg.sender] */\n      0xffffffffffffffffffffffffffffffffffffffff\n      and\n      0xffffffffffffffffffffffffffffffffffffffff\n      and\n      dup2\n      mstore\n      0x20\n      add\n      swap1\n      dup2\n      mstore\n      0x20\n      add\n      0x00\n      keccak256\n      0x00\n        /* \"Campaign.sol\":2009:2037  approvers[msg.sender] = true */\n      0x0100\n      exp\n      dup2\n      sload\n      dup2\n      0xff\n      mul\n      not\n      and\n      swap1\n      dup4\n      iszero\n      iszero\n      mul\n      or\n      swap1\n      sstore\n      pop\n        /* \"Campaign.sol\":2052:2066  approversCount */\n      0x04\n      0x00\n        /* \"Campaign.sol\":2052:2068  approversCount++ */\n      dup2\n      sload\n      dup1\n      swap3\n      swap2\n      swap1\n      tag_166\n      swap1\n      tag_160\n      jump\t// in\n    tag_166:\n      swap2\n      swap1\n      pop\n      sstore\n      pop\n        /* \"Campaign.sol\":1958:2080  if(!approvers[msg.sender])... */\n    tag_165:\n        /* \"Campaign.sol\":1790:2087  function contribute() public payable{... */\n      jump\t// out\n        /* \"Campaign.sol\":2485:2762  function approveRequest(uint index) public{... */\n    tag_98:\n        /* \"Campaign.sol\":2538:2561  Request storage request */\n      0x00\n        /* \"Campaign.sol\":2563:2571  requests */\n      0x05\n        /* \"Campaign.sol\":2563:2578  requests[index] */\n      0x00\n        /* \"Campaign.sol\":2572:2577  index */\n      dup4\n        /* \"Campaign.sol\":2563:2578  requests[index] */\n      dup2\n      mstore\n      0x20\n      add\n      swap1\n      dup2\n      mstore\n      0x20\n      add\n      0x00\n      keccak256\n        /* \"Campaign.sol\":2538:2578  Request storage request= requests[index] */\n      swap1\n      pop\n        /* \"Campaign.sol\":2599:2608  approvers */\n      0x03\n        /* \"Campaign.sol\":2599:2620  approvers[msg.sender] */\n      0x00\n        /* \"Campaign.sol\":2609:2619  msg.sender */\n      caller\n        /* \"Campaign.sol\":2599:2620  approvers[msg.sender] */\n      0xffffffffffffffffffffffffffffffffffffffff\n      and\n      0xffffffffffffffffffffffffffffffffffffffff\n      and\n      dup2\n      mstore\n      0x20\n      add\n      swap1\n      dup2\n      mstore\n      0x20\n      add\n      0x00\n      keccak256\n      0x00\n      swap1\n      sload\n      swap1\n      0x0100\n      exp\n      swap1\n      div\n      0xff\n      and\n        /* \"Campaign.sol\":2591:2621  require(approvers[msg.sender]) */\n      tag_168\n      jumpi\n      0x00\n      dup1\n      revert\n    tag_168:\n        /* \"Campaign.sol\":2641:2648  request */\n      dup1\n        /* \"Campaign.sol\":2641:2658  request.approvals */\n      0x04\n      add\n        /* \"Campaign.sol\":2641:2670  request.approvals[msg.sender] */\n      0x00\n        /* \"Campaign.sol\":2659:2669  msg.sender */\n      caller\n        /* \"Campaign.sol\":2641:2670  request.approvals[msg.sender] */\n      0xffffffffffffffffffffffffffffffffffffffff\n      and\n      0xffffffffffffffffffffffffffffffffffffffff\n      and\n      dup2\n      mstore\n      0x20\n      add\n      swap1\n      dup2\n      mstore\n      0x20\n      add\n      0x00\n      keccak256\n      0x00\n      swap1\n      sload\n      swap1\n      0x0100\n      exp\n      swap1\n      div\n      0xff\n      and\n        /* \"Campaign.sol\":2640:2670  !request.approvals[msg.sender] */\n      iszero\n        /* \"Campaign.sol\":2632:2671  require(!request.approvals[msg.sender]) */\n      tag_169\n      jumpi\n      0x00\n      dup1\n      revert\n    tag_169:\n        /* \"Campaign.sol\":2716:2720  true */\n      0x01\n        /* \"Campaign.sol\":2684:2691  request */\n      dup2\n        /* \"Campaign.sol\":2684:2701  request.approvals */\n      0x04\n      add\n        /* \"Campaign.sol\":2684:2713  request.approvals[msg.sender] */\n      0x00\n        /* \"Campaign.sol\":2702:2712  msg.sender */\n      caller\n        /* \"Campaign.sol\":2684:2713  request.approvals[msg.sender] */\n      0xffffffffffffffffffffffffffffffffffffffff\n      and\n      0xffffffffffffffffffffffffffffffffffffffff\n      and\n      dup2\n      mstore\n      0x20\n      add\n      swap1\n      dup2\n      mstore\n      0x20\n      add\n      0x00\n      keccak256\n      0x00\n        /* \"Campaign.sol\":2684:2720  request.approvals[msg.sender] = true */\n      0x0100\n      exp\n      dup2\n      sload\n      dup2\n      0xff\n      mul\n      not\n      and\n      swap1\n      dup4\n      iszero\n      iszero\n      mul\n      or\n      swap1\n      sstore\n      pop\n        /* \"Campaign.sol\":2731:2738  request */\n      dup1\n        /* \"Campaign.sol\":2731:2752  request.approvalCount */\n      0x03\n      add\n      0x00\n        /* \"Campaign.sol\":2731:2754  request.approvalCount++ */\n      dup2\n      sload\n      dup1\n      swap3\n      swap2\n      swap1\n      tag_170\n      swap1\n      tag_160\n      jump\t// in\n    tag_170:\n      swap2\n      swap1\n      pop\n      sstore\n      pop\n        /* \"Campaign.sol\":2527:2762  {... */\n      pop\n        /* \"Campaign.sol\":2485:2762  function approveRequest(uint index) public{... */\n      pop\n      jump\t// out\n    tag_162:\n      dup3\n      dup1\n      sload\n      tag_171\n      swap1\n      tag_109\n      jump\t// in\n    tag_171:\n      swap1\n      0x00\n      mstore\n      keccak256(0x00, 0x20)\n      swap1\n      0x1f\n      add\n      0x20\n      swap1\n      div\n      dup2\n      add\n      swap3\n      dup3\n      tag_173\n      jumpi\n      0x00\n      dup6\n      sstore\n      jump(tag_172)\n    tag_173:\n      dup3\n      0x1f\n      lt\n      tag_174\n      jumpi\n      dup1\n      mload\n      not(0xff)\n      and\n      dup4\n      dup1\n      add\n      or\n      dup6\n      sstore\n      jump(tag_172)\n    tag_174:\n      dup3\n      dup1\n      add\n      0x01\n      add\n      dup6\n      sstore\n      dup3\n      iszero\n      tag_172\n      jumpi\n      swap2\n      dup3\n      add\n    tag_175:\n      dup3\n      dup2\n      gt\n      iszero\n      tag_176\n      jumpi\n      dup3\n      mload\n      dup3\n      sstore\n      swap2\n      0x20\n      add\n      swap2\n      swap1\n      0x01\n      add\n      swap1\n      jump(tag_175)\n    tag_176:\n    tag_172:\n      pop\n      swap1\n      pop\n      tag_177\n      swap2\n      swap1\n      tag_178\n      jump\t// in\n    tag_177:\n      pop\n      swap1\n      jump\t// out\n    tag_178:\n    tag_179:\n      dup1\n      dup3\n      gt\n      iszero\n      tag_180\n      jumpi\n      0x00\n      dup2\n      0x00\n      swap1\n      sstore\n      pop\n      0x01\n      add\n      jump(tag_179)\n    tag_180:\n      pop\n      swap1\n      jump\t// out\n        /* \"#utility.yul\":7:82   */\n    tag_181:\n        /* \"#utility.yul\":40:46   */\n      0x00\n        /* \"#utility.yul\":73:75   */\n      0x40\n        /* \"#utility.yul\":67:76   */\n      mload\n        /* \"#utility.yul\":57:76   */\n      swap1\n      pop\n        /* \"#utility.yul\":7:82   */\n      swap1\n      jump\t// out\n        /* \"#utility.yul\":88:205   */\n    tag_182:\n        /* \"#utility.yul\":197:198   */\n      0x00\n        /* \"#utility.yul\":194:195   */\n      dup1\n        /* \"#utility.yul\":187:199   */\n      revert\n        /* \"#utility.yul\":211:328   */\n    tag_183:\n        /* \"#utility.yul\":320:321   */\n      0x00\n        /* \"#utility.yul\":317:318   */\n      dup1\n        /* \"#utility.yul\":310:322   */\n      revert\n        /* \"#utility.yul\":334:411   */\n    tag_184:\n        /* \"#utility.yul\":371:378   */\n      0x00\n        /* \"#utility.yul\":400:405   */\n      dup2\n        /* \"#utility.yul\":389:405   */\n      swap1\n      pop\n        /* \"#utility.yul\":334:411   */\n      swap2\n      swap1\n      pop\n      jump\t// out\n        /* \"#utility.yul\":417:539   */\n    tag_185:\n        /* \"#utility.yul\":490:514   */\n      tag_222\n        /* \"#utility.yul\":508:513   */\n      dup2\n        /* \"#utility.yul\":490:514   */\n      tag_184\n      jump\t// in\n    tag_222:\n        /* \"#utility.yul\":483:488   */\n      dup2\n        /* \"#utility.yul\":480:515   */\n      eq\n        /* \"#utility.yul\":470:533   */\n      tag_223\n      jumpi\n        /* \"#utility.yul\":529:530   */\n      0x00\n        /* \"#utility.yul\":526:527   */\n      dup1\n        /* \"#utility.yul\":519:531   */\n      revert\n        /* \"#utility.yul\":470:533   */\n    tag_223:\n        /* \"#utility.yul\":417:539   */\n      pop\n      jump\t// out\n        /* \"#utility.yul\":545:684   */\n    tag_186:\n        /* \"#utility.yul\":591:596   */\n      0x00\n        /* \"#utility.yul\":629:635   */\n      dup2\n        /* \"#utility.yul\":616:636   */\n      calldataload\n        /* \"#utility.yul\":607:636   */\n      swap1\n      pop\n        /* \"#utility.yul\":645:678   */\n      tag_225\n        /* \"#utility.yul\":672:677   */\n      dup2\n        /* \"#utility.yul\":645:678   */\n      tag_185\n      jump\t// in\n    tag_225:\n        /* \"#utility.yul\":545:684   */\n      swap3\n      swap2\n      pop\n      pop\n      jump\t// out\n        /* \"#utility.yul\":690:1019   */\n    tag_25:\n        /* \"#utility.yul\":749:755   */\n      0x00\n        /* \"#utility.yul\":798:800   */\n      0x20\n        /* \"#utility.yul\":786:795   */\n      dup3\n        /* \"#utility.yul\":777:784   */\n      dup5\n        /* \"#utility.yul\":773:796   */\n      sub\n        /* \"#utility.yul\":769:801   */\n      slt\n        /* \"#utility.yul\":766:885   */\n      iszero\n      tag_227\n      jumpi\n        /* \"#utility.yul\":804:883   */\n      tag_228\n      tag_182\n      jump\t// in\n    tag_228:\n        /* \"#utility.yul\":766:885   */\n    tag_227:\n        /* \"#utility.yul\":924:925   */\n      0x00\n        /* \"#utility.yul\":949:1002   */\n      tag_229\n        /* \"#utility.yul\":994:1001   */\n      dup5\n        /* \"#utility.yul\":985:991   */\n      dup3\n        /* \"#utility.yul\":974:983   */\n      dup6\n        /* \"#utility.yul\":970:992   */\n      add\n        /* \"#utility.yul\":949:1002   */\n      tag_186\n      jump\t// in\n    tag_229:\n        /* \"#utility.yul\":939:1002   */\n      swap2\n      pop\n        /* \"#utility.yul\":895:1012   */\n      pop\n        /* \"#utility.yul\":690:1019   */\n      swap3\n      swap2\n      pop\n      pop\n      jump\t// out\n        /* \"#utility.yul\":1025:1151   */\n    tag_187:\n        /* \"#utility.yul\":1062:1069   */\n      0x00\n        /* \"#utility.yul\":1102:1144   */\n      0xffffffffffffffffffffffffffffffffffffffff\n        /* \"#utility.yul\":1095:1100   */\n      dup3\n        /* \"#utility.yul\":1091:1145   */\n      and\n        /* \"#utility.yul\":1080:1145   */\n      swap1\n      pop\n        /* \"#utility.yul\":1025:1151   */\n      swap2\n      swap1\n      pop\n      jump\t// out\n        /* \"#utility.yul\":1157:1253   */\n    tag_188:\n        /* \"#utility.yul\":1194:1201   */\n      0x00\n        /* \"#utility.yul\":1223:1247   */\n      tag_232\n        /* \"#utility.yul\":1241:1246   */\n      dup3\n        /* \"#utility.yul\":1223:1247   */\n      tag_187\n      jump\t// in\n    tag_232:\n        /* \"#utility.yul\":1212:1247   */\n      swap1\n      pop\n        /* \"#utility.yul\":1157:1253   */\n      swap2\n      swap1\n      pop\n      jump\t// out\n        /* \"#utility.yul\":1259:1381   */\n    tag_189:\n        /* \"#utility.yul\":1332:1356   */\n      tag_234\n        /* \"#utility.yul\":1350:1355   */\n      dup2\n        /* \"#utility.yul\":1332:1356   */\n      tag_188\n      jump\t// in\n    tag_234:\n        /* \"#utility.yul\":1325:1330   */\n      dup2\n        /* \"#utility.yul\":1322:1357   */\n      eq\n        /* \"#utility.yul\":1312:1375   */\n      tag_235\n      jumpi\n        /* \"#utility.yul\":1371:1372   */\n      0x00\n        /* \"#utility.yul\":1368:1369   */\n      dup1\n        /* \"#utility.yul\":1361:1373   */\n      revert\n        /* \"#utility.yul\":1312:1375   */\n    tag_235:\n        /* \"#utility.yul\":1259:1381   */\n      pop\n      jump\t// out\n        /* \"#utility.yul\":1387:1526   */\n    tag_190:\n        /* \"#utility.yul\":1433:1438   */\n      0x00\n        /* \"#utility.yul\":1471:1477   */\n      dup2\n        /* \"#utility.yul\":1458:1478   */\n      calldataload\n        /* \"#utility.yul\":1449:1478   */\n      swap1\n      pop\n        /* \"#utility.yul\":1487:1520   */\n      tag_237\n        /* \"#utility.yul\":1514:1519   */\n      dup2\n        /* \"#utility.yul\":1487:1520   */\n      tag_189\n      jump\t// in\n    tag_237:\n        /* \"#utility.yul\":1387:1526   */\n      swap3\n      swap2\n      pop\n      pop\n      jump\t// out\n        /* \"#utility.yul\":1532:1861   */\n    tag_30:\n        /* \"#utility.yul\":1591:1597   */\n      0x00\n        /* \"#utility.yul\":1640:1642   */\n      0x20\n        /* \"#utility.yul\":1628:1637   */\n      dup3\n        /* \"#utility.yul\":1619:1626   */\n      dup5\n        /* \"#utility.yul\":1615:1638   */\n      sub\n        /* \"#utility.yul\":1611:1643   */\n      slt\n        /* \"#utility.yul\":1608:1727   */\n      iszero\n      tag_239\n      jumpi\n        /* \"#utility.yul\":1646:1725   */\n      tag_240\n      tag_182\n      jump\t// in\n    tag_240:\n        /* \"#utility.yul\":1608:1727   */\n    tag_239:\n        /* \"#utility.yul\":1766:1767   */\n      0x00\n        /* \"#utility.yul\":1791:1844   */\n      tag_241\n        /* \"#utility.yul\":1836:1843   */\n      dup5\n        /* \"#utility.yul\":1827:1833   */\n      dup3\n        /* \"#utility.yul\":1816:1825   */\n      dup6\n        /* \"#utility.yul\":1812:1834   */\n      add\n        /* \"#utility.yul\":1791:1844   */\n      tag_190\n      jump\t// in\n    tag_241:\n        /* \"#utility.yul\":1781:1844   */\n      swap2\n      pop\n        /* \"#utility.yul\":1737:1854   */\n      pop\n        /* \"#utility.yul\":1532:1861   */\n      swap3\n      swap2\n      pop\n      pop\n      jump\t// out\n        /* \"#utility.yul\":1867:1957   */\n    tag_191:\n        /* \"#utility.yul\":1901:1908   */\n      0x00\n        /* \"#utility.yul\":1944:1949   */\n      dup2\n        /* \"#utility.yul\":1937:1950   */\n      iszero\n        /* \"#utility.yul\":1930:1951   */\n      iszero\n        /* \"#utility.yul\":1919:1951   */\n      swap1\n      pop\n        /* \"#utility.yul\":1867:1957   */\n      swap2\n      swap1\n      pop\n      jump\t// out\n        /* \"#utility.yul\":1963:2072   */\n    tag_192:\n        /* \"#utility.yul\":2044:2065   */\n      tag_244\n        /* \"#utility.yul\":2059:2064   */\n      dup2\n        /* \"#utility.yul\":2044:2065   */\n      tag_191\n      jump\t// in\n    tag_244:\n        /* \"#utility.yul\":2039:2042   */\n      dup3\n        /* \"#utility.yul\":2032:2066   */\n      mstore\n        /* \"#utility.yul\":1963:2072   */\n      pop\n      pop\n      jump\t// out\n        /* \"#utility.yul\":2078:2288   */\n    tag_33:\n        /* \"#utility.yul\":2165:2169   */\n      0x00\n        /* \"#utility.yul\":2203:2205   */\n      0x20\n        /* \"#utility.yul\":2192:2201   */\n      dup3\n        /* \"#utility.yul\":2188:2206   */\n      add\n        /* \"#utility.yul\":2180:2206   */\n      swap1\n      pop\n        /* \"#utility.yul\":2216:2281   */\n      tag_246\n        /* \"#utility.yul\":2278:2279   */\n      0x00\n        /* \"#utility.yul\":2267:2276   */\n      dup4\n        /* \"#utility.yul\":2263:2280   */\n      add\n        /* \"#utility.yul\":2254:2260   */\n      dup5\n        /* \"#utility.yul\":2216:2281   */\n      tag_192\n      jump\t// in\n    tag_246:\n        /* \"#utility.yul\":2078:2288   */\n      swap3\n      swap2\n      pop\n      pop\n      jump\t// out\n        /* \"#utility.yul\":2294:2393   */\n    tag_193:\n        /* \"#utility.yul\":2346:2352   */\n      0x00\n        /* \"#utility.yul\":2380:2385   */\n      dup2\n        /* \"#utility.yul\":2374:2386   */\n      mload\n        /* \"#utility.yul\":2364:2386   */\n      swap1\n      pop\n        /* \"#utility.yul\":2294:2393   */\n      swap2\n      swap1\n      pop\n      jump\t// out\n        /* \"#utility.yul\":2399:2568   */\n    tag_194:\n        /* \"#utility.yul\":2483:2494   */\n      0x00\n        /* \"#utility.yul\":2517:2523   */\n      dup3\n        /* \"#utility.yul\":2512:2515   */\n      dup3\n        /* \"#utility.yul\":2505:2524   */\n      mstore\n        /* \"#utility.yul\":2557:2561   */\n      0x20\n        /* \"#utility.yul\":2552:2555   */\n      dup3\n        /* \"#utility.yul\":2548:2562   */\n      add\n        /* \"#utility.yul\":2533:2562   */\n      swap1\n      pop\n        /* \"#utility.yul\":2399:2568   */\n      swap3\n      swap2\n      pop\n      pop\n      jump\t// out\n        /* \"#utility.yul\":2574:2881   */\n    tag_195:\n        /* \"#utility.yul\":2642:2643   */\n      0x00\n        /* \"#utility.yul\":2652:2765   */\n    tag_250:\n        /* \"#utility.yul\":2666:2672   */\n      dup4\n        /* \"#utility.yul\":2663:2664   */\n      dup2\n        /* \"#utility.yul\":2660:2673   */\n      lt\n        /* \"#utility.yul\":2652:2765   */\n      iszero\n      tag_252\n      jumpi\n        /* \"#utility.yul\":2751:2752   */\n      dup1\n        /* \"#utility.yul\":2746:2749   */\n      dup3\n        /* \"#utility.yul\":2742:2753   */\n      add\n        /* \"#utility.yul\":2736:2754   */\n      mload\n        /* \"#utility.yul\":2732:2733   */\n      dup2\n        /* \"#utility.yul\":2727:2730   */\n      dup5\n        /* \"#utility.yul\":2723:2734   */\n      add\n        /* \"#utility.yul\":2716:2755   */\n      mstore\n        /* \"#utility.yul\":2688:2690   */\n      0x20\n        /* \"#utility.yul\":2685:2686   */\n      dup2\n        /* \"#utility.yul\":2681:2691   */\n      add\n        /* \"#utility.yul\":2676:2691   */\n      swap1\n      pop\n        /* \"#utility.yul\":2652:2765   */\n      jump(tag_250)\n    tag_252:\n        /* \"#utility.yul\":2783:2789   */\n      dup4\n        /* \"#utility.yul\":2780:2781   */\n      dup2\n        /* \"#utility.yul\":2777:2790   */\n      gt\n        /* \"#utility.yul\":2774:2875   */\n      iszero\n      tag_253\n      jumpi\n        /* \"#utility.yul\":2863:2864   */\n      0x00\n        /* \"#utility.yul\":2854:2860   */\n      dup5\n        /* \"#utility.yul\":2849:2852   */\n      dup5\n        /* \"#utility.yul\":2845:2861   */\n      add\n        /* \"#utility.yul\":2838:2865   */\n      mstore\n        /* \"#utility.yul\":2774:2875   */\n    tag_253:\n        /* \"#utility.yul\":2623:2881   */\n      pop\n        /* \"#utility.yul\":2574:2881   */\n      pop\n      pop\n      pop\n      jump\t// out\n        /* \"#utility.yul\":2887:2989   */\n    tag_196:\n        /* \"#utility.yul\":2928:2934   */\n      0x00\n        /* \"#utility.yul\":2979:2981   */\n      0x1f\n        /* \"#utility.yul\":2975:2982   */\n      not\n        /* \"#utility.yul\":2970:2972   */\n      0x1f\n        /* \"#utility.yul\":2963:2968   */\n      dup4\n        /* \"#utility.yul\":2959:2973   */\n      add\n        /* \"#utility.yul\":2955:2983   */\n      and\n        /* \"#utility.yul\":2945:2983   */\n      swap1\n      pop\n        /* \"#utility.yul\":2887:2989   */\n      swap2\n      swap1\n      pop\n      jump\t// out\n        /* \"#utility.yul\":2995:3359   */\n    tag_197:\n        /* \"#utility.yul\":3083:3086   */\n      0x00\n        /* \"#utility.yul\":3111:3150   */\n      tag_256\n        /* \"#utility.yul\":3144:3149   */\n      dup3\n        /* \"#utility.yul\":3111:3150   */\n      tag_193\n      jump\t// in\n    tag_256:\n        /* \"#utility.yul\":3166:3237   */\n      tag_257\n        /* \"#utility.yul\":3230:3236   */\n      dup2\n        /* \"#utility.yul\":3225:3228   */\n      dup6\n        /* \"#utility.yul\":3166:3237   */\n      tag_194\n      jump\t// in\n    tag_257:\n        /* \"#utility.yul\":3159:3237   */\n      swap4\n      pop\n        /* \"#utility.yul\":3246:3298   */\n      tag_258\n        /* \"#utility.yul\":3291:3297   */\n      dup2\n        /* \"#utility.yul\":3286:3289   */\n      dup6\n        /* \"#utility.yul\":3279:3283   */\n      0x20\n        /* \"#utility.yul\":3272:3277   */\n      dup7\n        /* \"#utility.yul\":3268:3284   */\n      add\n        /* \"#utility.yul\":3246:3298   */\n      tag_195\n      jump\t// in\n    tag_258:\n        /* \"#utility.yul\":3323:3352   */\n      tag_259\n        /* \"#utility.yul\":3345:3351   */\n      dup2\n        /* \"#utility.yul\":3323:3352   */\n      tag_196\n      jump\t// in\n    tag_259:\n        /* \"#utility.yul\":3318:3321   */\n      dup5\n        /* \"#utility.yul\":3314:3353   */\n      add\n        /* \"#utility.yul\":3307:3353   */\n      swap2\n      pop\n        /* \"#utility.yul\":3087:3359   */\n      pop\n        /* \"#utility.yul\":2995:3359   */\n      swap3\n      swap2\n      pop\n      pop\n      jump\t// out\n        /* \"#utility.yul\":3365:3678   */\n    tag_38:\n        /* \"#utility.yul\":3478:3482   */\n      0x00\n        /* \"#utility.yul\":3516:3518   */\n      0x20\n        /* \"#utility.yul\":3505:3514   */\n      dup3\n        /* \"#utility.yul\":3501:3519   */\n      add\n        /* \"#utility.yul\":3493:3519   */\n      swap1\n      pop\n        /* \"#utility.yul\":3565:3574   */\n      dup2\n        /* \"#utility.yul\":3559:3563   */\n      dup2\n        /* \"#utility.yul\":3555:3575   */\n      sub\n        /* \"#utility.yul\":3551:3552   */\n      0x00\n        /* \"#utility.yul\":3540:3549   */\n      dup4\n        /* \"#utility.yul\":3536:3553   */\n      add\n        /* \"#utility.yul\":3529:3576   */\n      mstore\n        /* \"#utility.yul\":3593:3671   */\n      tag_261\n        /* \"#utility.yul\":3666:3670   */\n      dup2\n        /* \"#utility.yul\":3657:3663   */\n      dup5\n        /* \"#utility.yul\":3593:3671   */\n      tag_197\n      jump\t// in\n    tag_261:\n        /* \"#utility.yul\":3585:3671   */\n      swap1\n      pop\n        /* \"#utility.yul\":3365:3678   */\n      swap3\n      swap2\n      pop\n      pop\n      jump\t// out\n        /* \"#utility.yul\":3684:3802   */\n    tag_198:\n        /* \"#utility.yul\":3771:3795   */\n      tag_263\n        /* \"#utility.yul\":3789:3794   */\n      dup2\n        /* \"#utility.yul\":3771:3795   */\n      tag_184\n      jump\t// in\n    tag_263:\n        /* \"#utility.yul\":3766:3769   */\n      dup3\n        /* \"#utility.yul\":3759:3796   */\n      mstore\n        /* \"#utility.yul\":3684:3802   */\n      pop\n      pop\n      jump\t// out\n        /* \"#utility.yul\":3808:4030   */\n    tag_43:\n        /* \"#utility.yul\":3901:3905   */\n      0x00\n        /* \"#utility.yul\":3939:3941   */\n      0x20\n        /* \"#utility.yul\":3928:3937   */\n      dup3\n        /* \"#utility.yul\":3924:3942   */\n      add\n        /* \"#utility.yul\":3916:3942   */\n      swap1\n      pop\n        /* \"#utility.yul\":3952:4023   */\n      tag_265\n        /* \"#utility.yul\":4020:4021   */\n      0x00\n        /* \"#utility.yul\":4009:4018   */\n      dup4\n        /* \"#utility.yul\":4005:4022   */\n      add\n        /* \"#utility.yul\":3996:4002   */\n      dup5\n        /* \"#utility.yul\":3952:4023   */\n      tag_198\n      jump\t// in\n    tag_265:\n        /* \"#utility.yul\":3808:4030   */\n      swap3\n      swap2\n      pop\n      pop\n      jump\t// out\n        /* \"#utility.yul\":4036:4154   */\n    tag_199:\n        /* \"#utility.yul\":4123:4147   */\n      tag_267\n        /* \"#utility.yul\":4141:4146   */\n      dup2\n        /* \"#utility.yul\":4123:4147   */\n      tag_188\n      jump\t// in\n    tag_267:\n        /* \"#utility.yul\":4118:4121   */\n      dup3\n        /* \"#utility.yul\":4111:4148   */\n      mstore\n        /* \"#utility.yul\":4036:4154   */\n      pop\n      pop\n      jump\t// out\n        /* \"#utility.yul\":4160:5743   */\n    tag_48:\n        /* \"#utility.yul\":4585:4589   */\n      0x00\n        /* \"#utility.yul\":4623:4626   */\n      0x0140\n        /* \"#utility.yul\":4612:4621   */\n      dup3\n        /* \"#utility.yul\":4608:4627   */\n      add\n        /* \"#utility.yul\":4600:4627   */\n      swap1\n      pop\n        /* \"#utility.yul\":4637:4708   */\n      tag_269\n        /* \"#utility.yul\":4705:4706   */\n      0x00\n        /* \"#utility.yul\":4694:4703   */\n      dup4\n        /* \"#utility.yul\":4690:4707   */\n      add\n        /* \"#utility.yul\":4681:4687   */\n      dup14\n        /* \"#utility.yul\":4637:4708   */\n      tag_198\n      jump\t// in\n    tag_269:\n        /* \"#utility.yul\":4718:4790   */\n      tag_270\n        /* \"#utility.yul\":4786:4788   */\n      0x20\n        /* \"#utility.yul\":4775:4784   */\n      dup4\n        /* \"#utility.yul\":4771:4789   */\n      add\n        /* \"#utility.yul\":4762:4768   */\n      dup13\n        /* \"#utility.yul\":4718:4790   */\n      tag_198\n      jump\t// in\n    tag_270:\n        /* \"#utility.yul\":4800:4872   */\n      tag_271\n        /* \"#utility.yul\":4868:4870   */\n      0x40\n        /* \"#utility.yul\":4857:4866   */\n      dup4\n        /* \"#utility.yul\":4853:4871   */\n      add\n        /* \"#utility.yul\":4844:4850   */\n      dup12\n        /* \"#utility.yul\":4800:4872   */\n      tag_198\n      jump\t// in\n    tag_271:\n        /* \"#utility.yul\":4882:4954   */\n      tag_272\n        /* \"#utility.yul\":4950:4952   */\n      0x60\n        /* \"#utility.yul\":4939:4948   */\n      dup4\n        /* \"#utility.yul\":4935:4953   */\n      add\n        /* \"#utility.yul\":4926:4932   */\n      dup11\n        /* \"#utility.yul\":4882:4954   */\n      tag_198\n      jump\t// in\n    tag_272:\n        /* \"#utility.yul\":4964:5037   */\n      tag_273\n        /* \"#utility.yul\":5032:5035   */\n      0x80\n        /* \"#utility.yul\":5021:5030   */\n      dup4\n        /* \"#utility.yul\":5017:5036   */\n      add\n        /* \"#utility.yul\":5008:5014   */\n      dup10\n        /* \"#utility.yul\":4964:5037   */\n      tag_199\n      jump\t// in\n    tag_273:\n        /* \"#utility.yul\":5085:5094   */\n      dup2\n        /* \"#utility.yul\":5079:5083   */\n      dup2\n        /* \"#utility.yul\":5075:5095   */\n      sub\n        /* \"#utility.yul\":5069:5072   */\n      0xa0\n        /* \"#utility.yul\":5058:5067   */\n      dup4\n        /* \"#utility.yul\":5054:5073   */\n      add\n        /* \"#utility.yul\":5047:5096   */\n      mstore\n        /* \"#utility.yul\":5113:5191   */\n      tag_274\n        /* \"#utility.yul\":5186:5190   */\n      dup2\n        /* \"#utility.yul\":5177:5183   */\n      dup9\n        /* \"#utility.yul\":5113:5191   */\n      tag_197\n      jump\t// in\n    tag_274:\n        /* \"#utility.yul\":5105:5191   */\n      swap1\n      pop\n        /* \"#utility.yul\":5239:5248   */\n      dup2\n        /* \"#utility.yul\":5233:5237   */\n      dup2\n        /* \"#utility.yul\":5229:5249   */\n      sub\n        /* \"#utility.yul\":5223:5226   */\n      0xc0\n        /* \"#utility.yul\":5212:5221   */\n      dup4\n        /* \"#utility.yul\":5208:5227   */\n      add\n        /* \"#utility.yul\":5201:5250   */\n      mstore\n        /* \"#utility.yul\":5267:5345   */\n      tag_275\n        /* \"#utility.yul\":5340:5344   */\n      dup2\n        /* \"#utility.yul\":5331:5337   */\n      dup8\n        /* \"#utility.yul\":5267:5345   */\n      tag_197\n      jump\t// in\n    tag_275:\n        /* \"#utility.yul\":5259:5345   */\n      swap1\n      pop\n        /* \"#utility.yul\":5393:5402   */\n      dup2\n        /* \"#utility.yul\":5387:5391   */\n      dup2\n        /* \"#utility.yul\":5383:5403   */\n      sub\n        /* \"#utility.yul\":5377:5380   */\n      0xe0\n        /* \"#utility.yul\":5366:5375   */\n      dup4\n        /* \"#utility.yul\":5362:5381   */\n      add\n        /* \"#utility.yul\":5355:5404   */\n      mstore\n        /* \"#utility.yul\":5421:5499   */\n      tag_276\n        /* \"#utility.yul\":5494:5498   */\n      dup2\n        /* \"#utility.yul\":5485:5491   */\n      dup7\n        /* \"#utility.yul\":5421:5499   */\n      tag_197\n      jump\t// in\n    tag_276:\n        /* \"#utility.yul\":5413:5499   */\n      swap1\n      pop\n        /* \"#utility.yul\":5547:5556   */\n      dup2\n        /* \"#utility.yul\":5541:5545   */\n      dup2\n        /* \"#utility.yul\":5537:5557   */\n      sub\n        /* \"#utility.yul\":5531:5534   */\n      0x0100\n        /* \"#utility.yul\":5520:5529   */\n      dup4\n        /* \"#utility.yul\":5516:5535   */\n      add\n        /* \"#utility.yul\":5509:5558   */\n      mstore\n        /* \"#utility.yul\":5575:5653   */\n      tag_277\n        /* \"#utility.yul\":5648:5652   */\n      dup2\n        /* \"#utility.yul\":5639:5645   */\n      dup6\n        /* \"#utility.yul\":5575:5653   */\n      tag_197\n      jump\t// in\n    tag_277:\n        /* \"#utility.yul\":5567:5653   */\n      swap1\n      pop\n        /* \"#utility.yul\":5663:5736   */\n      tag_278\n        /* \"#utility.yul\":5731:5734   */\n      0x0120\n        /* \"#utility.yul\":5720:5729   */\n      dup4\n        /* \"#utility.yul\":5716:5735   */\n      add\n        /* \"#utility.yul\":5707:5713   */\n      dup5\n        /* \"#utility.yul\":5663:5736   */\n      tag_198\n      jump\t// in\n    tag_278:\n        /* \"#utility.yul\":4160:5743   */\n      swap12\n      swap11\n      pop\n      pop\n      pop\n      pop\n      pop\n      pop\n      pop\n      pop\n      pop\n      pop\n      pop\n      jump\t// out\n        /* \"#utility.yul\":5749:5971   */\n    tag_57:\n        /* \"#utility.yul\":5842:5846   */\n      0x00\n        /* \"#utility.yul\":5880:5882   */\n      0x20\n        /* \"#utility.yul\":5869:5878   */\n      dup3\n        /* \"#utility.yul\":5865:5883   */\n      add\n        /* \"#utility.yul\":5857:5883   */\n      swap1\n      pop\n        /* \"#utility.yul\":5893:5964   */\n      tag_280\n        /* \"#utility.yul\":5961:5962   */\n      0x00\n        /* \"#utility.yul\":5950:5959   */\n      dup4\n        /* \"#utility.yul\":5946:5963   */\n      add\n        /* \"#utility.yul\":5937:5943   */\n      dup5\n        /* \"#utility.yul\":5893:5964   */\n      tag_199\n      jump\t// in\n    tag_280:\n        /* \"#utility.yul\":5749:5971   */\n      swap3\n      swap2\n      pop\n      pop\n      jump\t// out\n        /* \"#utility.yul\":5977:6081   */\n    tag_200:\n        /* \"#utility.yul\":6022:6029   */\n      0x00\n        /* \"#utility.yul\":6051:6075   */\n      tag_282\n        /* \"#utility.yul\":6069:6074   */\n      dup3\n        /* \"#utility.yul\":6051:6075   */\n      tag_187\n      jump\t// in\n    tag_282:\n        /* \"#utility.yul\":6040:6075   */\n      swap1\n      pop\n        /* \"#utility.yul\":5977:6081   */\n      swap2\n      swap1\n      pop\n      jump\t// out\n        /* \"#utility.yul\":6087:6229   */\n    tag_201:\n        /* \"#utility.yul\":6190:6222   */\n      tag_284\n        /* \"#utility.yul\":6216:6221   */\n      dup2\n        /* \"#utility.yul\":6190:6222   */\n      tag_200\n      jump\t// in\n    tag_284:\n        /* \"#utility.yul\":6185:6188   */\n      dup3\n        /* \"#utility.yul\":6178:6223   */\n      mstore\n        /* \"#utility.yul\":6087:6229   */\n      pop\n      pop\n      jump\t// out\n        /* \"#utility.yul\":6235:7010   */\n    tag_67:\n        /* \"#utility.yul\":6470:6474   */\n      0x00\n        /* \"#utility.yul\":6508:6511   */\n      0xa0\n        /* \"#utility.yul\":6497:6506   */\n      dup3\n        /* \"#utility.yul\":6493:6512   */\n      add\n        /* \"#utility.yul\":6485:6512   */\n      swap1\n      pop\n        /* \"#utility.yul\":6558:6567   */\n      dup2\n        /* \"#utility.yul\":6552:6556   */\n      dup2\n        /* \"#utility.yul\":6548:6568   */\n      sub\n        /* \"#utility.yul\":6544:6545   */\n      0x00\n        /* \"#utility.yul\":6533:6542   */\n      dup4\n        /* \"#utility.yul\":6529:6546   */\n      add\n        /* \"#utility.yul\":6522:6569   */\n      mstore\n        /* \"#utility.yul\":6586:6664   */\n      tag_286\n        /* \"#utility.yul\":6659:6663   */\n      dup2\n        /* \"#utility.yul\":6650:6656   */\n      dup9\n        /* \"#utility.yul\":6586:6664   */\n      tag_197\n      jump\t// in\n    tag_286:\n        /* \"#utility.yul\":6578:6664   */\n      swap1\n      pop\n        /* \"#utility.yul\":6674:6746   */\n      tag_287\n        /* \"#utility.yul\":6742:6744   */\n      0x20\n        /* \"#utility.yul\":6731:6740   */\n      dup4\n        /* \"#utility.yul\":6727:6745   */\n      add\n        /* \"#utility.yul\":6718:6724   */\n      dup8\n        /* \"#utility.yul\":6674:6746   */\n      tag_198\n      jump\t// in\n    tag_287:\n        /* \"#utility.yul\":6756:6844   */\n      tag_288\n        /* \"#utility.yul\":6840:6842   */\n      0x40\n        /* \"#utility.yul\":6829:6838   */\n      dup4\n        /* \"#utility.yul\":6825:6843   */\n      add\n        /* \"#utility.yul\":6816:6822   */\n      dup7\n        /* \"#utility.yul\":6756:6844   */\n      tag_201\n      jump\t// in\n    tag_288:\n        /* \"#utility.yul\":6854:6920   */\n      tag_289\n        /* \"#utility.yul\":6916:6918   */\n      0x60\n        /* \"#utility.yul\":6905:6914   */\n      dup4\n        /* \"#utility.yul\":6901:6919   */\n      add\n        /* \"#utility.yul\":6892:6898   */\n      dup6\n        /* \"#utility.yul\":6854:6920   */\n      tag_192\n      jump\t// in\n    tag_289:\n        /* \"#utility.yul\":6930:7003   */\n      tag_290\n        /* \"#utility.yul\":6998:7001   */\n      0x80\n        /* \"#utility.yul\":6987:6996   */\n      dup4\n        /* \"#utility.yul\":6983:7002   */\n      add\n        /* \"#utility.yul\":6974:6980   */\n      dup5\n        /* \"#utility.yul\":6930:7003   */\n      tag_198\n      jump\t// in\n    tag_290:\n        /* \"#utility.yul\":6235:7010   */\n      swap7\n      swap6\n      pop\n      pop\n      pop\n      pop\n      pop\n      pop\n      jump\t// out\n        /* \"#utility.yul\":7016:7133   */\n    tag_202:\n        /* \"#utility.yul\":7125:7126   */\n      0x00\n        /* \"#utility.yul\":7122:7123   */\n      dup1\n        /* \"#utility.yul\":7115:7127   */\n      revert\n        /* \"#utility.yul\":7139:7256   */\n    tag_203:\n        /* \"#utility.yul\":7248:7249   */\n      0x00\n        /* \"#utility.yul\":7245:7246   */\n      dup1\n        /* \"#utility.yul\":7238:7250   */\n      revert\n        /* \"#utility.yul\":7262:7442   */\n    tag_204:\n        /* \"#utility.yul\":7310:7387   */\n      0x4e487b7100000000000000000000000000000000000000000000000000000000\n        /* \"#utility.yul\":7307:7308   */\n      0x00\n        /* \"#utility.yul\":7300:7388   */\n      mstore\n        /* \"#utility.yul\":7407:7411   */\n      0x41\n        /* \"#utility.yul\":7404:7405   */\n      0x04\n        /* \"#utility.yul\":7397:7412   */\n      mstore\n        /* \"#utility.yul\":7431:7435   */\n      0x24\n        /* \"#utility.yul\":7428:7429   */\n      0x00\n        /* \"#utility.yul\":7421:7436   */\n      revert\n        /* \"#utility.yul\":7448:7729   */\n    tag_205:\n        /* \"#utility.yul\":7531:7558   */\n      tag_295\n        /* \"#utility.yul\":7553:7557   */\n      dup3\n        /* \"#utility.yul\":7531:7558   */\n      tag_196\n      jump\t// in\n    tag_295:\n        /* \"#utility.yul\":7523:7529   */\n      dup2\n        /* \"#utility.yul\":7519:7559   */\n      add\n        /* \"#utility.yul\":7661:7667   */\n      dup2\n        /* \"#utility.yul\":7649:7659   */\n      dup2\n        /* \"#utility.yul\":7646:7668   */\n      lt\n        /* \"#utility.yul\":7625:7643   */\n      0xffffffffffffffff\n        /* \"#utility.yul\":7613:7623   */\n      dup3\n        /* \"#utility.yul\":7610:7644   */\n      gt\n        /* \"#utility.yul\":7607:7669   */\n      or\n        /* \"#utility.yul\":7604:7692   */\n      iszero\n      tag_296\n      jumpi\n        /* \"#utility.yul\":7672:7690   */\n      tag_297\n      tag_204\n      jump\t// in\n    tag_297:\n        /* \"#utility.yul\":7604:7692   */\n    tag_296:\n        /* \"#utility.yul\":7712:7722   */\n      dup1\n        /* \"#utility.yul\":7708:7710   */\n      0x40\n        /* \"#utility.yul\":7701:7723   */\n      mstore\n        /* \"#utility.yul\":7491:7729   */\n      pop\n        /* \"#utility.yul\":7448:7729   */\n      pop\n      pop\n      jump\t// out\n        /* \"#utility.yul\":7735:7864   */\n    tag_206:\n        /* \"#utility.yul\":7769:7775   */\n      0x00\n        /* \"#utility.yul\":7796:7816   */\n      tag_299\n      tag_181\n      jump\t// in\n    tag_299:\n        /* \"#utility.yul\":7786:7816   */\n      swap1\n      pop\n        /* \"#utility.yul\":7825:7858   */\n      tag_300\n        /* \"#utility.yul\":7853:7857   */\n      dup3\n        /* \"#utility.yul\":7845:7851   */\n      dup3\n        /* \"#utility.yul\":7825:7858   */\n      tag_205\n      jump\t// in\n    tag_300:\n        /* \"#utility.yul\":7735:7864   */\n      swap2\n      swap1\n      pop\n      jump\t// out\n        /* \"#utility.yul\":7870:8178   */\n    tag_207:\n        /* \"#utility.yul\":7932:7936   */\n      0x00\n        /* \"#utility.yul\":8022:8040   */\n      0xffffffffffffffff\n        /* \"#utility.yul\":8014:8020   */\n      dup3\n        /* \"#utility.yul\":8011:8041   */\n      gt\n        /* \"#utility.yul\":8008:8064   */\n      iszero\n      tag_302\n      jumpi\n        /* \"#utility.yul\":8044:8062   */\n      tag_303\n      tag_204\n      jump\t// in\n    tag_303:\n        /* \"#utility.yul\":8008:8064   */\n    tag_302:\n        /* \"#utility.yul\":8082:8111   */\n      tag_304\n        /* \"#utility.yul\":8104:8110   */\n      dup3\n        /* \"#utility.yul\":8082:8111   */\n      tag_196\n      jump\t// in\n    tag_304:\n        /* \"#utility.yul\":8074:8111   */\n      swap1\n      pop\n        /* \"#utility.yul\":8166:8170   */\n      0x20\n        /* \"#utility.yul\":8160:8164   */\n      dup2\n        /* \"#utility.yul\":8156:8171   */\n      add\n        /* \"#utility.yul\":8148:8171   */\n      swap1\n      pop\n        /* \"#utility.yul\":7870:8178   */\n      swap2\n      swap1\n      pop\n      jump\t// out\n        /* \"#utility.yul\":8184:8338   */\n    tag_208:\n        /* \"#utility.yul\":8268:8274   */\n      dup3\n        /* \"#utility.yul\":8263:8266   */\n      dup2\n        /* \"#utility.yul\":8258:8261   */\n      dup4\n        /* \"#utility.yul\":8245:8275   */\n      calldatacopy\n        /* \"#utility.yul\":8330:8331   */\n      0x00\n        /* \"#utility.yul\":8321:8327   */\n      dup4\n        /* \"#utility.yul\":8316:8319   */\n      dup4\n        /* \"#utility.yul\":8312:8328   */\n      add\n        /* \"#utility.yul\":8305:8332   */\n      mstore\n        /* \"#utility.yul\":8184:8338   */\n      pop\n      pop\n      pop\n      jump\t// out\n        /* \"#utility.yul\":8344:8756   */\n    tag_209:\n        /* \"#utility.yul\":8422:8427   */\n      0x00\n        /* \"#utility.yul\":8447:8513   */\n      tag_307\n        /* \"#utility.yul\":8463:8512   */\n      tag_308\n        /* \"#utility.yul\":8505:8511   */\n      dup5\n        /* \"#utility.yul\":8463:8512   */\n      tag_207\n      jump\t// in\n    tag_308:\n        /* \"#utility.yul\":8447:8513   */\n      tag_206\n      jump\t// in\n    tag_307:\n        /* \"#utility.yul\":8438:8513   */\n      swap1\n      pop\n        /* \"#utility.yul\":8536:8542   */\n      dup3\n        /* \"#utility.yul\":8529:8534   */\n      dup2\n        /* \"#utility.yul\":8522:8543   */\n      mstore\n        /* \"#utility.yul\":8574:8578   */\n      0x20\n        /* \"#utility.yul\":8567:8572   */\n      dup2\n        /* \"#utility.yul\":8563:8579   */\n      add\n        /* \"#utility.yul\":8612:8615   */\n      dup5\n        /* \"#utility.yul\":8603:8609   */\n      dup5\n        /* \"#utility.yul\":8598:8601   */\n      dup5\n        /* \"#utility.yul\":8594:8610   */\n      add\n        /* \"#utility.yul\":8591:8616   */\n      gt\n        /* \"#utility.yul\":8588:8700   */\n      iszero\n      tag_309\n      jumpi\n        /* \"#utility.yul\":8619:8698   */\n      tag_310\n      tag_203\n      jump\t// in\n    tag_310:\n        /* \"#utility.yul\":8588:8700   */\n    tag_309:\n        /* \"#utility.yul\":8709:8750   */\n      tag_311\n        /* \"#utility.yul\":8743:8749   */\n      dup5\n        /* \"#utility.yul\":8738:8741   */\n      dup3\n        /* \"#utility.yul\":8733:8736   */\n      dup6\n        /* \"#utility.yul\":8709:8750   */\n      tag_208\n      jump\t// in\n    tag_311:\n        /* \"#utility.yul\":8428:8756   */\n      pop\n        /* \"#utility.yul\":8344:8756   */\n      swap4\n      swap3\n      pop\n      pop\n      pop\n      jump\t// out\n        /* \"#utility.yul\":8776:9116   */\n    tag_210:\n        /* \"#utility.yul\":8832:8837   */\n      0x00\n        /* \"#utility.yul\":8881:8884   */\n      dup3\n        /* \"#utility.yul\":8874:8878   */\n      0x1f\n        /* \"#utility.yul\":8866:8872   */\n      dup4\n        /* \"#utility.yul\":8862:8879   */\n      add\n        /* \"#utility.yul\":8858:8885   */\n      slt\n        /* \"#utility.yul\":8848:8970   */\n      tag_313\n      jumpi\n        /* \"#utility.yul\":8889:8968   */\n      tag_314\n      tag_202\n      jump\t// in\n    tag_314:\n        /* \"#utility.yul\":8848:8970   */\n    tag_313:\n        /* \"#utility.yul\":9006:9012   */\n      dup2\n        /* \"#utility.yul\":8993:9013   */\n      calldataload\n        /* \"#utility.yul\":9031:9110   */\n      tag_315\n        /* \"#utility.yul\":9106:9109   */\n      dup5\n        /* \"#utility.yul\":9098:9104   */\n      dup3\n        /* \"#utility.yul\":9091:9095   */\n      0x20\n        /* \"#utility.yul\":9083:9089   */\n      dup7\n        /* \"#utility.yul\":9079:9096   */\n      add\n        /* \"#utility.yul\":9031:9110   */\n      tag_209\n      jump\t// in\n    tag_315:\n        /* \"#utility.yul\":9022:9110   */\n      swap2\n      pop\n        /* \"#utility.yul\":8838:9116   */\n      pop\n        /* \"#utility.yul\":8776:9116   */\n      swap3\n      swap2\n      pop\n      pop\n      jump\t// out\n        /* \"#utility.yul\":9122:9260   */\n    tag_211:\n        /* \"#utility.yul\":9203:9235   */\n      tag_317\n        /* \"#utility.yul\":9229:9234   */\n      dup2\n        /* \"#utility.yul\":9203:9235   */\n      tag_200\n      jump\t// in\n    tag_317:\n        /* \"#utility.yul\":9196:9201   */\n      dup2\n        /* \"#utility.yul\":9193:9236   */\n      eq\n        /* \"#utility.yul\":9183:9254   */\n      tag_318\n      jumpi\n        /* \"#utility.yul\":9250:9251   */\n      0x00\n        /* \"#utility.yul\":9247:9248   */\n      dup1\n        /* \"#utility.yul\":9240:9252   */\n      revert\n        /* \"#utility.yul\":9183:9254   */\n    tag_318:\n        /* \"#utility.yul\":9122:9260   */\n      pop\n      jump\t// out\n        /* \"#utility.yul\":9266:9421   */\n    tag_212:\n        /* \"#utility.yul\":9320:9325   */\n      0x00\n        /* \"#utility.yul\":9358:9364   */\n      dup2\n        /* \"#utility.yul\":9345:9365   */\n      calldataload\n        /* \"#utility.yul\":9336:9365   */\n      swap1\n      pop\n        /* \"#utility.yul\":9374:9415   */\n      tag_320\n        /* \"#utility.yul\":9409:9414   */\n      dup2\n        /* \"#utility.yul\":9374:9415   */\n      tag_211\n      jump\t// in\n    tag_320:\n        /* \"#utility.yul\":9266:9421   */\n      swap3\n      swap2\n      pop\n      pop\n      jump\t// out\n        /* \"#utility.yul\":9427:10242   */\n    tag_83:\n        /* \"#utility.yul\":9522:9528   */\n      0x00\n        /* \"#utility.yul\":9530:9536   */\n      dup1\n        /* \"#utility.yul\":9538:9544   */\n      0x00\n        /* \"#utility.yul\":9587:9589   */\n      0x60\n        /* \"#utility.yul\":9575:9584   */\n      dup5\n        /* \"#utility.yul\":9566:9573   */\n      dup7\n        /* \"#utility.yul\":9562:9585   */\n      sub\n        /* \"#utility.yul\":9558:9590   */\n      slt\n        /* \"#utility.yul\":9555:9674   */\n      iszero\n      tag_322\n      jumpi\n        /* \"#utility.yul\":9593:9672   */\n      tag_323\n      tag_182\n      jump\t// in\n    tag_323:\n        /* \"#utility.yul\":9555:9674   */\n    tag_322:\n        /* \"#utility.yul\":9741:9742   */\n      0x00\n        /* \"#utility.yul\":9730:9739   */\n      dup5\n        /* \"#utility.yul\":9726:9743   */\n      add\n        /* \"#utility.yul\":9713:9744   */\n      calldataload\n        /* \"#utility.yul\":9771:9789   */\n      0xffffffffffffffff\n        /* \"#utility.yul\":9763:9769   */\n      dup2\n        /* \"#utility.yul\":9760:9790   */\n      gt\n        /* \"#utility.yul\":9757:9874   */\n      iszero\n      tag_324\n      jumpi\n        /* \"#utility.yul\":9793:9872   */\n      tag_325\n      tag_183\n      jump\t// in\n    tag_325:\n        /* \"#utility.yul\":9757:9874   */\n    tag_324:\n        /* \"#utility.yul\":9898:9961   */\n      tag_326\n        /* \"#utility.yul\":9953:9960   */\n      dup7\n        /* \"#utility.yul\":9944:9950   */\n      dup3\n        /* \"#utility.yul\":9933:9942   */\n      dup8\n        /* \"#utility.yul\":9929:9951   */\n      add\n        /* \"#utility.yul\":9898:9961   */\n      tag_210\n      jump\t// in\n    tag_326:\n        /* \"#utility.yul\":9888:9961   */\n      swap4\n      pop\n        /* \"#utility.yul\":9684:9971   */\n      pop\n        /* \"#utility.yul\":10010:10012   */\n      0x20\n        /* \"#utility.yul\":10036:10089   */\n      tag_327\n        /* \"#utility.yul\":10081:10088   */\n      dup7\n        /* \"#utility.yul\":10072:10078   */\n      dup3\n        /* \"#utility.yul\":10061:10070   */\n      dup8\n        /* \"#utility.yul\":10057:10079   */\n      add\n        /* \"#utility.yul\":10036:10089   */\n      tag_186\n      jump\t// in\n    tag_327:\n        /* \"#utility.yul\":10026:10089   */\n      swap3\n      pop\n        /* \"#utility.yul\":9981:10099   */\n      pop\n        /* \"#utility.yul\":10138:10140   */\n      0x40\n        /* \"#utility.yul\":10164:10225   */\n      tag_328\n        /* \"#utility.yul\":10217:10224   */\n      dup7\n        /* \"#utility.yul\":10208:10214   */\n      dup3\n        /* \"#utility.yul\":10197:10206   */\n      dup8\n        /* \"#utility.yul\":10193:10215   */\n      add\n        /* \"#utility.yul\":10164:10225   */\n      tag_212\n      jump\t// in\n    tag_328:\n        /* \"#utility.yul\":10154:10225   */\n      swap2\n      pop\n        /* \"#utility.yul\":10109:10235   */\n      pop\n        /* \"#utility.yul\":9427:10242   */\n      swap3\n      pop\n      swap3\n      pop\n      swap3\n      jump\t// out\n        /* \"#utility.yul\":10248:10428   */\n    tag_213:\n        /* \"#utility.yul\":10296:10373   */\n      0x4e487b7100000000000000000000000000000000000000000000000000000000\n        /* \"#utility.yul\":10293:10294   */\n      0x00\n        /* \"#utility.yul\":10286:10374   */\n      mstore\n        /* \"#utility.yul\":10393:10397   */\n      0x12\n        /* \"#utility.yul\":10390:10391   */\n      0x04\n        /* \"#utility.yul\":10383:10398   */\n      mstore\n        /* \"#utility.yul\":10417:10421   */\n      0x24\n        /* \"#utility.yul\":10414:10415   */\n      0x00\n        /* \"#utility.yul\":10407:10422   */\n      revert\n        /* \"#utility.yul\":10434:10614   */\n    tag_214:\n        /* \"#utility.yul\":10482:10559   */\n      0x4e487b7100000000000000000000000000000000000000000000000000000000\n        /* \"#utility.yul\":10479:10480   */\n      0x00\n        /* \"#utility.yul\":10472:10560   */\n      mstore\n        /* \"#utility.yul\":10579:10583   */\n      0x11\n        /* \"#utility.yul\":10576:10577   */\n      0x04\n        /* \"#utility.yul\":10569:10584   */\n      mstore\n        /* \"#utility.yul\":10603:10607   */\n      0x24\n        /* \"#utility.yul\":10600:10601   */\n      0x00\n        /* \"#utility.yul\":10593:10608   */\n      revert\n        /* \"#utility.yul\":10620:10805   */\n    tag_103:\n        /* \"#utility.yul\":10660:10661   */\n      0x00\n        /* \"#utility.yul\":10677:10697   */\n      tag_332\n        /* \"#utility.yul\":10695:10696   */\n      dup3\n        /* \"#utility.yul\":10677:10697   */\n      tag_184\n      jump\t// in\n    tag_332:\n        /* \"#utility.yul\":10672:10697   */\n      swap2\n      pop\n        /* \"#utility.yul\":10711:10731   */\n      tag_333\n        /* \"#utility.yul\":10729:10730   */\n      dup4\n        /* \"#utility.yul\":10711:10731   */\n      tag_184\n      jump\t// in\n    tag_333:\n        /* \"#utility.yul\":10706:10731   */\n      swap3\n      pop\n        /* \"#utility.yul\":10750:10751   */\n      dup3\n        /* \"#utility.yul\":10740:10775   */\n      tag_334\n      jumpi\n        /* \"#utility.yul\":10755:10773   */\n      tag_335\n      tag_213\n      jump\t// in\n    tag_335:\n        /* \"#utility.yul\":10740:10775   */\n    tag_334:\n        /* \"#utility.yul\":10797:10798   */\n      dup3\n        /* \"#utility.yul\":10794:10795   */\n      dup3\n        /* \"#utility.yul\":10790:10799   */\n      div\n        /* \"#utility.yul\":10785:10799   */\n      swap1\n      pop\n        /* \"#utility.yul\":10620:10805   */\n      swap3\n      swap2\n      pop\n      pop\n      jump\t// out\n        /* \"#utility.yul\":10811:10991   */\n    tag_215:\n        /* \"#utility.yul\":10859:10936   */\n      0x4e487b7100000000000000000000000000000000000000000000000000000000\n        /* \"#utility.yul\":10856:10857   */\n      0x00\n        /* \"#utility.yul\":10849:10937   */\n      mstore\n        /* \"#utility.yul\":10956:10960   */\n      0x22\n        /* \"#utility.yul\":10953:10954   */\n      0x04\n        /* \"#utility.yul\":10946:10961   */\n      mstore\n        /* \"#utility.yul\":10980:10984   */\n      0x24\n        /* \"#utility.yul\":10977:10978   */\n      0x00\n        /* \"#utility.yul\":10970:10985   */\n      revert\n        /* \"#utility.yul\":10997:11317   */\n    tag_109:\n        /* \"#utility.yul\":11041:11047   */\n      0x00\n        /* \"#utility.yul\":11078:11079   */\n      0x02\n        /* \"#utility.yul\":11072:11076   */\n      dup3\n        /* \"#utility.yul\":11068:11080   */\n      div\n        /* \"#utility.yul\":11058:11080   */\n      swap1\n      pop\n        /* \"#utility.yul\":11125:11126   */\n      0x01\n        /* \"#utility.yul\":11119:11123   */\n      dup3\n        /* \"#utility.yul\":11115:11127   */\n      and\n        /* \"#utility.yul\":11146:11164   */\n      dup1\n        /* \"#utility.yul\":11136:11217   */\n      tag_338\n      jumpi\n        /* \"#utility.yul\":11202:11206   */\n      0x7f\n        /* \"#utility.yul\":11194:11200   */\n      dup3\n        /* \"#utility.yul\":11190:11207   */\n      and\n        /* \"#utility.yul\":11180:11207   */\n      swap2\n      pop\n        /* \"#utility.yul\":11136:11217   */\n    tag_338:\n        /* \"#utility.yul\":11264:11266   */\n      0x20\n        /* \"#utility.yul\":11256:11262   */\n      dup3\n        /* \"#utility.yul\":11253:11267   */\n      lt\n        /* \"#utility.yul\":11233:11251   */\n      dup2\n        /* \"#utility.yul\":11230:11268   */\n      sub\n        /* \"#utility.yul\":11227:11311   */\n      tag_339\n      jumpi\n        /* \"#utility.yul\":11283:11301   */\n      tag_340\n      tag_215\n      jump\t// in\n    tag_340:\n        /* \"#utility.yul\":11227:11311   */\n    tag_339:\n        /* \"#utility.yul\":11048:11317   */\n      pop\n        /* \"#utility.yul\":10997:11317   */\n      swap2\n      swap1\n      pop\n      jump\t// out\n        /* \"#utility.yul\":11323:11556   */\n    tag_160:\n        /* \"#utility.yul\":11362:11365   */\n      0x00\n        /* \"#utility.yul\":11385:11409   */\n      tag_342\n        /* \"#utility.yul\":11403:11408   */\n      dup3\n        /* \"#utility.yul\":11385:11409   */\n      tag_184\n      jump\t// in\n    tag_342:\n        /* \"#utility.yul\":11376:11409   */\n      swap2\n      pop\n        /* \"#utility.yul\":11431:11497   */\n      0xffffffffffffffffffffffffffffffffffffffffffffffffffffffffffffffff\n        /* \"#utility.yul\":11424:11429   */\n      dup3\n        /* \"#utility.yul\":11421:11498   */\n      sub\n        /* \"#utility.yul\":11418:11521   */\n      tag_343\n      jumpi\n        /* \"#utility.yul\":11501:11519   */\n      tag_344\n      tag_214\n      jump\t// in\n    tag_344:\n        /* \"#utility.yul\":11418:11521   */\n    tag_343:\n        /* \"#utility.yul\":11548:11549   */\n      0x01\n        /* \"#utility.yul\":11541:11546   */\n      dup3\n        /* \"#utility.yul\":11537:11550   */\n      add\n        /* \"#utility.yul\":11530:11550   */\n      swap1\n      pop\n        /* \"#utility.yul\":11323:11556   */\n      swap2\n      swap1\n      pop\n      jump\t// out\n\n    auxdata: 0xa264697066735822122023379cfe30e23093f3afe93f5567e05b1c58e60887686d39d83d60bfbeb33da664736f6c634300080d0033\n}\n","bytecode":{"linkReferences":{},"object":"60806040523480156200001157600080fd5b5060405162001b5638038062001b568339818101604052810190620000379190620003ec565b80600160006101000a81548173ffffffffffffffffffffffffffffffffffffffff021916908373ffffffffffffffffffffffffffffffffffffffff16021790555086600281905550600060048190555085600690805190602001906200009f929190620000ff565b508460079080519060200190620000b8929190620000ff565b508360089080519060200190620000d1929190620000ff565b508260099080519060200190620000ea929190620000ff565b5081600a81905550505050505050506200057f565b8280546200010d906200054a565b90600052602060002090601f0160209004810192826200013157600085556200017d565b82601f106200014c57805160ff19168380011785556200017d565b828001600101855582156200017d579182015b828111156200017c5782518255916020019190600101906200015f565b5b5090506200018c919062000190565b5090565b5b80821115620001ab57600081600090555060010162000191565b5090565b6000604051905090565b600080fd5b600080fd5b6000819050919050565b620001d881620001c3565b8114620001e457600080fd5b50565b600081519050620001f881620001cd565b92915050565b600080fd5b600080fd5b6000601f19601f8301169050919050565b7f4e487b7100000000000000000000000000000000000000000000000000000000600052604160045260246000fd5b620002538262000208565b810181811067ffffffffffffffff8211171562000275576200027462000219565b5b80604052505050565b60006200028a620001af565b905062000298828262000248565b919050565b600067ffffffffffffffff821115620002bb57620002ba62000219565b5b620002c68262000208565b9050602081019050919050565b60005b83811015620002f3578082015181840152602081019050620002d6565b8381111562000303576000848401525b50505050565b6000620003206200031a846200029d565b6200027e565b9050828152602081018484840111156200033f576200033e62000203565b5b6200034c848285620002d3565b509392505050565b600082601f8301126200036c576200036b620001fe565b5b81516200037e84826020860162000309565b91505092915050565b600073ffffffffffffffffffffffffffffffffffffffff82169050919050565b6000620003b48262000387565b9050919050565b620003c681620003a7565b8114620003d257600080fd5b50565b600081519050620003e681620003bb565b92915050565b600080600080600080600060e0888a0312156200040e576200040d620001b9565b5b60006200041e8a828b01620001e7565b975050602088015167ffffffffffffffff811115620004425762000441620001be565b5b620004508a828b0162000354565b965050604088015167ffffffffffffffff811115620004745762000473620001be565b5b620004828a828b0162000354565b955050606088015167ffffffffffffffff811115620004a657620004a5620001be565b5b620004b48a828b0162000354565b945050608088015167ffffffffffffffff811115620004d857620004d7620001be565b5b620004e68a828b0162000354565b93505060a0620004f98a828b01620001e7565b92505060c06200050c8a828b01620003d5565b91505092959891949750929550565b7f4e487b7100000000000000000000000000000000000000000000000000000000600052602260045260246000fd5b600060028204905060018216806200056357607f821691505b6020821081036200057957620005786200051b565b5b50919050565b6115c7806200058f6000396000f3fe6080604052600436106100fe5760003560e01c806381d12c58116100955780638a9cfd55116100645780638a9cfd5514610336578063937e09b11461035f5780639fb42b1f1461038a578063d7bb99ba146103b5578063d7d1bbdb146103bf576100fe565b806381d12c581461027457806381e0ffae146102b5578063824f4baf146102e057806382fde0931461030b576100fe565b80634051ddac116100d15780634051ddac146101bf5780634137e733146101f3578063481c6a751461021e5780637434488414610249576100fe565b806303441006146101035780630a1443911461012c5780631dc4cf2e146101695780633410452a14610194575b600080fd5b34801561010f57600080fd5b5061012a60048036038101906101259190610f5a565b6103e8565b005b34801561013857600080fd5b50610153600480360381019061014e9190610fe5565b610523565b604051610160919061102d565b60405180910390f35b34801561017557600080fd5b5061017e610543565b60405161018b91906110e1565b60405180910390f35b3480156101a057600080fd5b506101a96105d1565b6040516101b69190611112565b60405180910390f35b3480156101cb57600080fd5b506101d46105da565b6040516101ea9a9998979695949392919061113c565b60405180910390f35b3480156101ff57600080fd5b50610208610872565b60405161021591906110e1565b60405180910390f35b34801561022a57600080fd5b50610233610900565b60405161024091906111f4565b60405180910390f35b34801561025557600080fd5b5061025e610926565b60405161026b91906110e1565b60405180910390f35b34801561028057600080fd5b5061029b60048036038101906102969190610f5a565b6109b4565b6040516102ac959493929190611230565b60405180910390f35b3480156102c157600080fd5b506102ca610a9f565b6040516102d79190611112565b60405180910390f35b3480156102ec57600080fd5b506102f5610aa5565b60405161030291906110e1565b60405180910390f35b34801561031757600080fd5b50610320610b33565b60405161032d9190611112565b60405180910390f35b34801561034257600080fd5b5061035d600480360381019061035891906113eb565b610b39565b005b34801561036b57600080fd5b50610374610c51565b6040516103819190611112565b60405180910390f35b34801561039657600080fd5b5061039f610c57565b6040516103ac9190611112565b60405180910390f35b6103bd610c5d565b005b3480156103cb57600080fd5b506103e660048036038101906103e19190610f5a565b610d2f565b005b600160009054906101000a900473ffffffffffffffffffffffffffffffffffffffff1673ffffffffffffffffffffffffffffffffffffffff163373ffffffffffffffffffffffffffffffffffffffff161461044257600080fd5b6000600560008381526020019081526020016000209050600260045461046891906114b8565b81600301541161047757600080fd5b8060020160149054906101000a900460ff161561049357600080fd5b8060020160009054906101000a900473ffffffffffffffffffffffffffffffffffffffff1673ffffffffffffffffffffffffffffffffffffffff166108fc82600101549081150290604051600060405180830381858888f19350505050158015610501573d6000803e3d6000fd5b5060018160020160146101000a81548160ff0219169083151502179055505050565b60036020528060005260406000206000915054906101000a900460ff1681565b6008805461055090611518565b80601f016020809104026020016040519081016040528092919081815260200182805461057c90611518565b80156105c95780601f1061059e576101008083540402835291602001916105c9565b820191906000526020600020905b8154815290600101906020018083116105ac57829003601f168201915b505050505081565b60008054905090565b6000806000806000606080606080600060025447600054600454600160009054906101000a900473ffffffffffffffffffffffffffffffffffffffff166006600760086009600a5484805461062e90611518565b80601f016020809104026020016040519081016040528092919081815260200182805461065a90611518565b80156106a75780601f1061067c576101008083540402835291602001916106a7565b820191906000526020600020905b81548152906001019060200180831161068a57829003601f168201915b505050505094508380546106ba90611518565b80601f01602080910402602001604051908101604052809291908181526020018280546106e690611518565b80156107335780601f1061070857610100808354040283529160200191610733565b820191906000526020600020905b81548152906001019060200180831161071657829003601f168201915b5050505050935082805461074690611518565b80601f016020809104026020016040519081016040528092919081815260200182805461077290611518565b80156107bf5780601f10610794576101008083540402835291602001916107bf565b820191906000526020600020905b8154815290600101906020018083116107a257829003601f168201915b505050505092508180546107d290611518565b80601f01602080910402602001604051908101604052809291908181526020018280546107fe90611518565b801561084b5780601f106108205761010080835404028352916020019161084b565b820191906000526020600020905b81548152906001019060200180831161082e57829003601f168201915b50505050509150995099509950995099509950995099509950995090919293949596979899565b6007805461087f90611518565b80601f01602080910402602001604051908101604052809291908181526020018280546108ab90611518565b80156108f85780601f106108cd576101008083540402835291602001916108f8565b820191906000526020600020905b8154815290600101906020018083116108db57829003601f168201915b505050505081565b600160009054906101000a900473ffffffffffffffffffffffffffffffffffffffff1681565b6006805461093390611518565b80601f016020809104026020016040519081016040528092919081815260200182805461095f90611518565b80156109ac5780601f10610981576101008083540402835291602001916109ac565b820191906000526020600020905b81548152906001019060200180831161098f57829003601f168201915b505050505081565b60056020528060005260406000206000915090508060000180546109d790611518565b80601f0160208091040260200160405190810160405280929190818152602001828054610a0390611518565b8015610a505780601f10610a2557610100808354040283529160200191610a50565b820191906000526020600020905b815481529060010190602001808311610a3357829003601f168201915b5050505050908060010154908060020160009054906101000a900473ffffffffffffffffffffffffffffffffffffffff16908060020160149054906101000a900460ff16908060030154905085565b600a5481565b60098054610ab290611518565b80601f0160208091040260200160405190810160405280929190818152602001828054610ade90611518565b8015610b2b5780601f10610b0057610100808354040283529160200191610b2b565b820191906000526020600020905b815481529060010190602001808311610b0e57829003601f168201915b505050505081565b60045481565b600160009054906101000a900473ffffffffffffffffffffffffffffffffffffffff1673ffffffffffffffffffffffffffffffffffffffff163373ffffffffffffffffffffffffffffffffffffffff1614610b9357600080fd5b600060056000806000815480929190610bab90611549565b919050558152602001908152602001600020905083816000019080519060200190610bd7929190610e6d565b50828160010181905550818160020160006101000a81548173ffffffffffffffffffffffffffffffffffffffff021916908373ffffffffffffffffffffffffffffffffffffffff16021790555060008160020160146101000a81548160ff0219169083151502179055506000816003018190555050505050565b60025481565b60005481565b6002543411610c6b57600080fd5b600360003373ffffffffffffffffffffffffffffffffffffffff1673ffffffffffffffffffffffffffffffffffffffff16815260200190815260200160002060009054906101000a900460ff16610d2d576001600360003373ffffffffffffffffffffffffffffffffffffffff1673ffffffffffffffffffffffffffffffffffffffff16815260200190815260200160002060006101000a81548160ff02191690831515021790555060046000815480929190610d2790611549565b91905055505b565b6000600560008381526020019081526020016000209050600360003373ffffffffffffffffffffffffffffffffffffffff1673ffffffffffffffffffffffffffffffffffffffff16815260200190815260200160002060009054906101000a900460ff16610d9c57600080fd5b8060040160003373ffffffffffffffffffffffffffffffffffffffff1673ffffffffffffffffffffffffffffffffffffffff16815260200190815260200160002060009054906101000a900460ff1615610df557600080fd5b60018160040160003373ffffffffffffffffffffffffffffffffffffffff1673ffffffffffffffffffffffffffffffffffffffff16815260200190815260200160002060006101000a81548160ff021916908315150217905550806003016000815480929190610e6490611549565b91905055505050565b828054610e7990611518565b90600052602060002090601f016020900481019282610e9b5760008555610ee2565b82601f10610eb457805160ff1916838001178555610ee2565b82800160010185558215610ee2579182015b82811115610ee1578251825591602001919060010190610ec6565b5b509050610eef9190610ef3565b5090565b5b80821115610f0c576000816000905550600101610ef4565b5090565b6000604051905090565b600080fd5b600080fd5b6000819050919050565b610f3781610f24565b8114610f4257600080fd5b50565b600081359050610f5481610f2e565b92915050565b600060208284031215610f7057610f6f610f1a565b5b6000610f7e84828501610f45565b91505092915050565b600073ffffffffffffffffffffffffffffffffffffffff82169050919050565b6000610fb282610f87565b9050919050565b610fc281610fa7565b8114610fcd57600080fd5b50565b600081359050610fdf81610fb9565b92915050565b600060208284031215610ffb57610ffa610f1a565b5b600061100984828501610fd0565b91505092915050565b60008115159050919050565b61102781611012565b82525050565b6000602082019050611042600083018461101e565b92915050565b600081519050919050565b600082825260208201905092915050565b60005b83811015611082578082015181840152602081019050611067565b83811115611091576000848401525b50505050565b6000601f19601f8301169050919050565b60006110b382611048565b6110bd8185611053565b93506110cd818560208601611064565b6110d681611097565b840191505092915050565b600060208201905081810360008301526110fb81846110a8565b905092915050565b61110c81610f24565b82525050565b60006020820190506111276000830184611103565b92915050565b61113681610fa7565b82525050565b600061014082019050611152600083018d611103565b61115f602083018c611103565b61116c604083018b611103565b611179606083018a611103565b611186608083018961112d565b81810360a083015261119881886110a8565b905081810360c08301526111ac81876110a8565b905081810360e08301526111c081866110a8565b90508181036101008301526111d581856110a8565b90506111e5610120830184611103565b9b9a5050505050505050505050565b6000602082019050611209600083018461112d565b92915050565b600061121a82610f87565b9050919050565b61122a8161120f565b82525050565b600060a082019050818103600083015261124a81886110a8565b90506112596020830187611103565b6112666040830186611221565b611273606083018561101e565b6112806080830184611103565b9695505050505050565b600080fd5b600080fd5b7f4e487b7100000000000000000000000000000000000000000000000000000000600052604160045260246000fd5b6112cc82611097565b810181811067ffffffffffffffff821117156112eb576112ea611294565b5b80604052505050565b60006112fe610f10565b905061130a82826112c3565b919050565b600067ffffffffffffffff82111561132a57611329611294565b5b61133382611097565b9050602081019050919050565b82818337600083830152505050565b600061136261135d8461130f565b6112f4565b90508281526020810184848401111561137e5761137d61128f565b5b611389848285611340565b509392505050565b600082601f8301126113a6576113a561128a565b5b81356113b684826020860161134f565b91505092915050565b6113c88161120f565b81146113d357600080fd5b50565b6000813590506113e5816113bf565b92915050565b60008060006060848603121561140457611403610f1a565b5b600084013567ffffffffffffffff81111561142257611421610f1f565b5b61142e86828701611391565b935050602061143f86828701610f45565b9250506040611450868287016113d6565b9150509250925092565b7f4e487b7100000000000000000000000000000000000000000000000000000000600052601260045260246000fd5b7f4e487b7100000000000000000000000000000000000000000000000000000000600052601160045260246000fd5b60006114c382610f24565b91506114ce83610f24565b9250826114de576114dd61145a565b5b828204905092915050565b7f4e487b7100000000000000000000000000000000000000000000000000000000600052602260045260246000fd5b6000600282049050600182168061153057607f821691505b602082108103611543576115426114e9565b5b50919050565b600061155482610f24565b91507fffffffffffffffffffffffffffffffffffffffffffffffffffffffffffffffff820361158657611585611489565b5b60018201905091905056fea264697066735822122023379cfe30e23093f3afe93f5567e05b1c58e60887686d39d83d60bfbeb33da664736f6c634300080d0033","opcodes":"PUSH1 0x80 PUSH1 0x40 MSTORE CALLVALUE DUP1 ISZERO PUSH3 0x11 JUMPI PUSH1 0x0 DUP1 REVERT JUMPDEST POP PUSH1 0x40 MLOAD PUSH3 0x1B56 CODESIZE SUB DUP1 PUSH3 0x1B56 DUP4 CODECOPY DUP2 DUP2 ADD PUSH1 0x40 MSTORE DUP2 ADD SWAP1 PUSH3 0x37 SWAP2 SWAP1 PUSH3 0x3EC JUMP JUMPDEST DUP1 PUSH1 0x1 PUSH1 0x0 PUSH2 0x100 EXP DUP2 SLOAD DUP2 PUSH20 0xFFFFFFFFFFFFFFFFFFFFFFFFFFFFFFFFFFFFFFFF MUL NOT AND SWAP1 DUP4 PUSH20 0xFFFFFFFFFFFFFFFFFFFFFFFFFFFFFFFFFFFFFFFF AND MUL OR SWAP1 SSTORE POP DUP7 PUSH1 0x2 DUP2 SWAP1 SSTORE POP PUSH1 0x0 PUSH1 0x4 DUP2 SWAP1 SSTORE POP DUP6 PUSH1 0x6 SWAP1 DUP1 MLOAD SWAP1 PUSH1 0x20 ADD SWAP1 PUSH3 0x9F SWAP3 SWAP2 SWAP1 PUSH3 0xFF JUMP JUMPDEST POP DUP5 PUSH1 0x7 SWAP1 DUP1 MLOAD SWAP1 PUSH1 0x20 ADD SWAP1 PUSH3 0xB8 SWAP3 SWAP2 SWAP1 PUSH3 0xFF JUMP JUMPDEST POP DUP4 PUSH1 0x8 SWAP1 DUP1 MLOAD SWAP1 PUSH1 0x20 ADD SWAP1 PUSH3 0xD1 SWAP3 SWAP2 SWAP1 PUSH3 0xFF JUMP JUMPDEST POP DUP3 PUSH1 0x9 SWAP1 DUP1 MLOAD SWAP1 PUSH1 0x20 ADD SWAP1 PUSH3 0xEA SWAP3 SWAP2 SWAP1 PUSH3 0xFF JUMP JUMPDEST POP DUP2 PUSH1 0xA DUP2 SWAP1 SSTORE POP POP POP POP POP POP POP POP PUSH3 0x57F JUMP JUMPDEST DUP3 DUP1 SLOAD PUSH3 0x10D SWAP1 PUSH3 0x54A JUMP JUMPDEST SWAP1 PUSH1 0x0 MSTORE PUSH1 0x20 PUSH1 0x0 KECCAK256 SWAP1 PUSH1 0x1F ADD PUSH1 0x20 SWAP1 DIV DUP2 ADD SWAP3 DUP3 PUSH3 0x131 JUMPI PUSH1 0x0 DUP6 SSTORE PUSH3 0x17D JUMP JUMPDEST DUP3 PUSH1 0x1F LT PUSH3 0x14C JUMPI DUP1 MLOAD PUSH1 0xFF NOT AND DUP4 DUP1 ADD OR DUP6 SSTORE PUSH3 0x17D JUMP JUMPDEST DUP3 DUP1 ADD PUSH1 0x1 ADD DUP6 SSTORE DUP3 ISZERO PUSH3 0x17D JUMPI SWAP2 DUP3 ADD JUMPDEST DUP3 DUP2 GT ISZERO PUSH3 0x17C JUMPI DUP3 MLOAD DUP3 SSTORE SWAP2 PUSH1 0x20 ADD SWAP2 SWAP1 PUSH1 0x1 ADD SWAP1 PUSH3 0x15F JUMP JUMPDEST JUMPDEST POP SWAP1 POP PUSH3 0x18C SWAP2 SWAP1 PUSH3 0x190 JUMP JUMPDEST POP SWAP1 JUMP JUMPDEST JUMPDEST DUP1 DUP3 GT ISZERO PUSH3 0x1AB JUMPI PUSH1 0x0 DUP2 PUSH1 0x0 SWAP1 SSTORE POP PUSH1 0x1 ADD PUSH3 0x191 JUMP JUMPDEST POP SWAP1 JUMP JUMPDEST PUSH1 0x0 PUSH1 0x40 MLOAD SWAP1 POP SWAP1 JUMP JUMPDEST PUSH1 0x0 DUP1 REVERT JUMPDEST PUSH1 0x0 DUP1 REVERT JUMPDEST PUSH1 0x0 DUP2 SWAP1 POP SWAP2 SWAP1 POP JUMP JUMPDEST PUSH3 0x1D8 DUP2 PUSH3 0x1C3 JUMP JUMPDEST DUP2 EQ PUSH3 0x1E4 JUMPI PUSH1 0x0 DUP1 REVERT JUMPDEST POP JUMP JUMPDEST PUSH1 0x0 DUP2 MLOAD SWAP1 POP PUSH3 0x1F8 DUP2 PUSH3 0x1CD JUMP JUMPDEST SWAP3 SWAP2 POP POP JUMP JUMPDEST PUSH1 0x0 DUP1 REVERT JUMPDEST PUSH1 0x0 DUP1 REVERT JUMPDEST PUSH1 0x0 PUSH1 0x1F NOT PUSH1 0x1F DUP4 ADD AND SWAP1 POP SWAP2 SWAP1 POP JUMP JUMPDEST PUSH32 0x4E487B7100000000000000000000000000000000000000000000000000000000 PUSH1 0x0 MSTORE PUSH1 0x41 PUSH1 0x4 MSTORE PUSH1 0x24 PUSH1 0x0 REVERT JUMPDEST PUSH3 0x253 DUP3 PUSH3 0x208 JUMP JUMPDEST DUP2 ADD DUP2 DUP2 LT PUSH8 0xFFFFFFFFFFFFFFFF DUP3 GT OR ISZERO PUSH3 0x275 JUMPI PUSH3 0x274 PUSH3 0x219 JUMP JUMPDEST JUMPDEST DUP1 PUSH1 0x40 MSTORE POP POP POP JUMP JUMPDEST PUSH1 0x0 PUSH3 0x28A PUSH3 0x1AF JUMP JUMPDEST SWAP1 POP PUSH3 0x298 DUP3 DUP3 PUSH3 0x248 JUMP JUMPDEST SWAP2 SWAP1 POP JUMP JUMPDEST PUSH1 0x0 PUSH8 0xFFFFFFFFFFFFFFFF DUP3 GT ISZERO PUSH3 0x2BB JUMPI PUSH3 0x2BA PUSH3 0x219 JUMP JUMPDEST JUMPDEST PUSH3 0x2C6 DUP3 PUSH3 0x208 JUMP JUMPDEST SWAP1 POP PUSH1 0x20 DUP2 ADD SWAP1 POP SWAP2 SWAP1 POP JUMP JUMPDEST PUSH1 0x0 JUMPDEST DUP4 DUP2 LT ISZERO PUSH3 0x2F3 JUMPI DUP1 DUP3 ADD MLOAD DUP2 DUP5 ADD MSTORE PUSH1 0x20 DUP2 ADD SWAP1 POP PUSH3 0x2D6 JUMP JUMPDEST DUP4 DUP2 GT ISZERO PUSH3 0x303 JUMPI PUSH1 0x0 DUP5 DUP5 ADD MSTORE JUMPDEST POP POP POP POP JUMP JUMPDEST PUSH1 0x0 PUSH3 0x320 PUSH3 0x31A DUP5 PUSH3 0x29D JUMP JUMPDEST PUSH3 0x27E JUMP JUMPDEST SWAP1 POP DUP3 DUP2 MSTORE PUSH1 0x20 DUP2 ADD DUP5 DUP5 DUP5 ADD GT ISZERO PUSH3 0x33F JUMPI PUSH3 0x33E PUSH3 0x203 JUMP JUMPDEST JUMPDEST PUSH3 0x34C DUP5 DUP3 DUP6 PUSH3 0x2D3 JUMP JUMPDEST POP SWAP4 SWAP3 POP POP POP JUMP JUMPDEST PUSH1 0x0 DUP3 PUSH1 0x1F DUP4 ADD SLT PUSH3 0x36C JUMPI PUSH3 0x36B PUSH3 0x1FE JUMP JUMPDEST JUMPDEST DUP2 MLOAD PUSH3 0x37E DUP5 DUP3 PUSH1 0x20 DUP7 ADD PUSH3 0x309 JUMP JUMPDEST SWAP2 POP POP SWAP3 SWAP2 POP POP JUMP JUMPDEST PUSH1 0x0 PUSH20 0xFFFFFFFFFFFFFFFFFFFFFFFFFFFFFFFFFFFFFFFF DUP3 AND SWAP1 POP SWAP2 SWAP1 POP JUMP JUMPDEST PUSH1 0x0 PUSH3 0x3B4 DUP3 PUSH3 0x387 JUMP JUMPDEST SWAP1 POP SWAP2 SWAP1 POP JUMP JUMPDEST PUSH3 0x3C6 DUP2 PUSH3 0x3A7 JUMP JUMPDEST DUP2 EQ PUSH3 0x3D2 JUMPI PUSH1 0x0 DUP1 REVERT JUMPDEST POP JUMP JUMPDEST PUSH1 0x0 DUP2 MLOAD SWAP1 POP PUSH3 0x3E6 DUP2 PUSH3 0x3BB JUMP JUMPDEST SWAP3 SWAP2 POP POP JUMP JUMPDEST PUSH1 0x0 DUP1 PUSH1 0x0 DUP1 PUSH1 0x0 DUP1 PUSH1 0x0 PUSH1 0xE0 DUP9 DUP11 SUB SLT ISZERO PUSH3 0x40E JUMPI PUSH3 0x40D PUSH3 0x1B9 JUMP JUMPDEST JUMPDEST PUSH1 0x0 PUSH3 0x41E DUP11 DUP3 DUP12 ADD PUSH3 0x1E7 JUMP JUMPDEST SWAP8 POP POP PUSH1 0x20 DUP9 ADD MLOAD PUSH8 0xFFFFFFFFFFFFFFFF DUP2 GT ISZERO PUSH3 0x442 JUMPI PUSH3 0x441 PUSH3 0x1BE JUMP JUMPDEST JUMPDEST PUSH3 0x450 DUP11 DUP3 DUP12 ADD PUSH3 0x354 JUMP JUMPDEST SWAP7 POP POP PUSH1 0x40 DUP9 ADD MLOAD PUSH8 0xFFFFFFFFFFFFFFFF DUP2 GT ISZERO PUSH3 0x474 JUMPI PUSH3 0x473 PUSH3 0x1BE JUMP JUMPDEST JUMPDEST PUSH3 0x482 DUP11 DUP3 DUP12 ADD PUSH3 0x354 JUMP JUMPDEST SWAP6 POP POP PUSH1 0x60 DUP9 ADD MLOAD PUSH8 0xFFFFFFFFFFFFFFFF DUP2 GT ISZERO PUSH3 0x4A6 JUMPI PUSH3 0x4A5 PUSH3 0x1BE JUMP JUMPDEST JUMPDEST PUSH3 0x4B4 DUP11 DUP3 DUP12 ADD PUSH3 0x354 JUMP JUMPDEST SWAP5 POP POP PUSH1 0x80 DUP9 ADD MLOAD PUSH8 0xFFFFFFFFFFFFFFFF DUP2 GT ISZERO PUSH3 0x4D8 JUMPI PUSH3 0x4D7 PUSH3 0x1BE JUMP JUMPDEST JUMPDEST PUSH3 0x4E6 DUP11 DUP3 DUP12 ADD PUSH3 0x354 JUMP JUMPDEST SWAP4 POP POP PUSH1 0xA0 PUSH3 0x4F9 DUP11 DUP3 DUP12 ADD PUSH3 0x1E7 JUMP JUMPDEST SWAP3 POP POP PUSH1 0xC0 PUSH3 0x50C DUP11 DUP3 DUP12 ADD PUSH3 0x3D5 JUMP JUMPDEST SWAP2 POP POP SWAP3 SWAP6 SWAP9 SWAP2 SWAP5 SWAP8 POP SWAP3 SWAP6 POP JUMP JUMPDEST PUSH32 0x4E487B7100000000000000000000000000000000000000000000000000000000 PUSH1 0x0 MSTORE PUSH1 0x22 PUSH1 0x4 MSTORE PUSH1 0x24 PUSH1 0x0 REVERT JUMPDEST PUSH1 0x0 PUSH1 0x2 DUP3 DIV SWAP1 POP PUSH1 0x1 DUP3 AND DUP1 PUSH3 0x563 JUMPI PUSH1 0x7F DUP3 AND SWAP2 POP JUMPDEST PUSH1 0x20 DUP3 LT DUP2 SUB PUSH3 0x579 JUMPI PUSH3 0x578 PUSH3 0x51B JUMP JUMPDEST JUMPDEST POP SWAP2 SWAP1 POP JUMP JUMPDEST PUSH2 0x15C7 DUP1 PUSH3 0x58F PUSH1 0x0 CODECOPY PUSH1 0x0 RETURN INVALID PUSH1 0x80 PUSH1 0x40 MSTORE PUSH1 0x4 CALLDATASIZE LT PUSH2 0xFE JUMPI PUSH1 0x0 CALLDATALOAD PUSH1 0xE0 SHR DUP1 PUSH4 0x81D12C58 GT PUSH2 0x95 JUMPI DUP1 PUSH4 0x8A9CFD55 GT PUSH2 0x64 JUMPI DUP1 PUSH4 0x8A9CFD55 EQ PUSH2 0x336 JUMPI DUP1 PUSH4 0x937E09B1 EQ PUSH2 0x35F JUMPI DUP1 PUSH4 0x9FB42B1F EQ PUSH2 0x38A JUMPI DUP1 PUSH4 0xD7BB99BA EQ PUSH2 0x3B5 JUMPI DUP1 PUSH4 0xD7D1BBDB EQ PUSH2 0x3BF JUMPI PUSH2 0xFE JUMP JUMPDEST DUP1 PUSH4 0x81D12C58 EQ PUSH2 0x274 JUMPI DUP1 PUSH4 0x81E0FFAE EQ PUSH2 0x2B5 JUMPI DUP1 PUSH4 0x824F4BAF EQ PUSH2 0x2E0 JUMPI DUP1 PUSH4 0x82FDE093 EQ PUSH2 0x30B JUMPI PUSH2 0xFE JUMP JUMPDEST DUP1 PUSH4 0x4051DDAC GT PUSH2 0xD1 JUMPI DUP1 PUSH4 0x4051DDAC EQ PUSH2 0x1BF JUMPI DUP1 PUSH4 0x4137E733 EQ PUSH2 0x1F3 JUMPI DUP1 PUSH4 0x481C6A75 EQ PUSH2 0x21E JUMPI DUP1 PUSH4 0x74344884 EQ PUSH2 0x249 JUMPI PUSH2 0xFE JUMP JUMPDEST DUP1 PUSH4 0x3441006 EQ PUSH2 0x103 JUMPI DUP1 PUSH4 0xA144391 EQ PUSH2 0x12C JUMPI DUP1 PUSH4 0x1DC4CF2E EQ PUSH2 0x169 JUMPI DUP1 PUSH4 0x3410452A EQ PUSH2 0x194 JUMPI JUMPDEST PUSH1 0x0 DUP1 REVERT JUMPDEST CALLVALUE DUP1 ISZERO PUSH2 0x10F JUMPI PUSH1 0x0 DUP1 REVERT JUMPDEST POP PUSH2 0x12A PUSH1 0x4 DUP1 CALLDATASIZE SUB DUP2 ADD SWAP1 PUSH2 0x125 SWAP2 SWAP1 PUSH2 0xF5A JUMP JUMPDEST PUSH2 0x3E8 JUMP JUMPDEST STOP JUMPDEST CALLVALUE DUP1 ISZERO PUSH2 0x138 JUMPI PUSH1 0x0 DUP1 REVERT JUMPDEST POP PUSH2 0x153 PUSH1 0x4 DUP1 CALLDATASIZE SUB DUP2 ADD SWAP1 PUSH2 0x14E SWAP2 SWAP1 PUSH2 0xFE5 JUMP JUMPDEST PUSH2 0x523 JUMP JUMPDEST PUSH1 0x40 MLOAD PUSH2 0x160 SWAP2 SWAP1 PUSH2 0x102D JUMP JUMPDEST PUSH1 0x40 MLOAD DUP1 SWAP2 SUB SWAP1 RETURN JUMPDEST CALLVALUE DUP1 ISZERO PUSH2 0x175 JUMPI PUSH1 0x0 DUP1 REVERT JUMPDEST POP PUSH2 0x17E PUSH2 0x543 JUMP JUMPDEST PUSH1 0x40 MLOAD PUSH2 0x18B SWAP2 SWAP1 PUSH2 0x10E1 JUMP JUMPDEST PUSH1 0x40 MLOAD DUP1 SWAP2 SUB SWAP1 RETURN JUMPDEST CALLVALUE DUP1 ISZERO PUSH2 0x1A0 JUMPI PUSH1 0x0 DUP1 REVERT JUMPDEST POP PUSH2 0x1A9 PUSH2 0x5D1 JUMP JUMPDEST PUSH1 0x40 MLOAD PUSH2 0x1B6 SWAP2 SWAP1 PUSH2 0x1112 JUMP JUMPDEST PUSH1 0x40 MLOAD DUP1 SWAP2 SUB SWAP1 RETURN JUMPDEST CALLVALUE DUP1 ISZERO PUSH2 0x1CB JUMPI PUSH1 0x0 DUP1 REVERT JUMPDEST POP PUSH2 0x1D4 PUSH2 0x5DA JUMP JUMPDEST PUSH1 0x40 MLOAD PUSH2 0x1EA SWAP11 SWAP10 SWAP9 SWAP8 SWAP7 SWAP6 SWAP5 SWAP4 SWAP3 SWAP2 SWAP1 PUSH2 0x113C JUMP JUMPDEST PUSH1 0x40 MLOAD DUP1 SWAP2 SUB SWAP1 RETURN JUMPDEST CALLVALUE DUP1 ISZERO PUSH2 0x1FF JUMPI PUSH1 0x0 DUP1 REVERT JUMPDEST POP PUSH2 0x208 PUSH2 0x872 JUMP JUMPDEST PUSH1 0x40 MLOAD PUSH2 0x215 SWAP2 SWAP1 PUSH2 0x10E1 JUMP JUMPDEST PUSH1 0x40 MLOAD DUP1 SWAP2 SUB SWAP1 RETURN JUMPDEST CALLVALUE DUP1 ISZERO PUSH2 0x22A JUMPI PUSH1 0x0 DUP1 REVERT JUMPDEST POP PUSH2 0x233 PUSH2 0x900 JUMP JUMPDEST PUSH1 0x40 MLOAD PUSH2 0x240 SWAP2 SWAP1 PUSH2 0x11F4 JUMP JUMPDEST PUSH1 0x40 MLOAD DUP1 SWAP2 SUB SWAP1 RETURN JUMPDEST CALLVALUE DUP1 ISZERO PUSH2 0x255 JUMPI PUSH1 0x0 DUP1 REVERT JUMPDEST POP PUSH2 0x25E PUSH2 0x926 JUMP JUMPDEST PUSH1 0x40 MLOAD PUSH2 0x26B SWAP2 SWAP1 PUSH2 0x10E1 JUMP JUMPDEST PUSH1 0x40 MLOAD DUP1 SWAP2 SUB SWAP1 RETURN JUMPDEST CALLVALUE DUP1 ISZERO PUSH2 0x280 JUMPI PUSH1 0x0 DUP1 REVERT JUMPDEST POP PUSH2 0x29B PUSH1 0x4 DUP1 CALLDATASIZE SUB DUP2 ADD SWAP1 PUSH2 0x296 SWAP2 SWAP1 PUSH2 0xF5A JUMP JUMPDEST PUSH2 0x9B4 JUMP JUMPDEST PUSH1 0x40 MLOAD PUSH2 0x2AC SWAP6 SWAP5 SWAP4 SWAP3 SWAP2 SWAP1 PUSH2 0x1230 JUMP JUMPDEST PUSH1 0x40 MLOAD DUP1 SWAP2 SUB SWAP1 RETURN JUMPDEST CALLVALUE DUP1 ISZERO PUSH2 0x2C1 JUMPI PUSH1 0x0 DUP1 REVERT JUMPDEST POP PUSH2 0x2CA PUSH2 0xA9F JUMP JUMPDEST PUSH1 0x40 MLOAD PUSH2 0x2D7 SWAP2 SWAP1 PUSH2 0x1112 JUMP JUMPDEST PUSH1 0x40 MLOAD DUP1 SWAP2 SUB SWAP1 RETURN JUMPDEST CALLVALUE DUP1 ISZERO PUSH2 0x2EC JUMPI PUSH1 0x0 DUP1 REVERT JUMPDEST POP PUSH2 0x2F5 PUSH2 0xAA5 JUMP JUMPDEST PUSH1 0x40 MLOAD PUSH2 0x302 SWAP2 SWAP1 PUSH2 0x10E1 JUMP JUMPDEST PUSH1 0x40 MLOAD DUP1 SWAP2 SUB SWAP1 RETURN JUMPDEST CALLVALUE DUP1 ISZERO PUSH2 0x317 JUMPI PUSH1 0x0 DUP1 REVERT JUMPDEST POP PUSH2 0x320 PUSH2 0xB33 JUMP JUMPDEST PUSH1 0x40 MLOAD PUSH2 0x32D SWAP2 SWAP1 PUSH2 0x1112 JUMP JUMPDEST PUSH1 0x40 MLOAD DUP1 SWAP2 SUB SWAP1 RETURN JUMPDEST CALLVALUE DUP1 ISZERO PUSH2 0x342 JUMPI PUSH1 0x0 DUP1 REVERT JUMPDEST POP PUSH2 0x35D PUSH1 0x4 DUP1 CALLDATASIZE SUB DUP2 ADD SWAP1 PUSH2 0x358 SWAP2 SWAP1 PUSH2 0x13EB JUMP JUMPDEST PUSH2 0xB39 JUMP JUMPDEST STOP JUMPDEST CALLVALUE DUP1 ISZERO PUSH2 0x36B JUMPI PUSH1 0x0 DUP1 REVERT JUMPDEST POP PUSH2 0x374 PUSH2 0xC51 JUMP JUMPDEST PUSH1 0x40 MLOAD PUSH2 0x381 SWAP2 SWAP1 PUSH2 0x1112 JUMP JUMPDEST PUSH1 0x40 MLOAD DUP1 SWAP2 SUB SWAP1 RETURN JUMPDEST CALLVALUE DUP1 ISZERO PUSH2 0x396 JUMPI PUSH1 0x0 DUP1 REVERT JUMPDEST POP PUSH2 0x39F PUSH2 0xC57 JUMP JUMPDEST PUSH1 0x40 MLOAD PUSH2 0x3AC SWAP2 SWAP1 PUSH2 0x1112 JUMP JUMPDEST PUSH1 0x40 MLOAD DUP1 SWAP2 SUB SWAP1 RETURN JUMPDEST PUSH2 0x3BD PUSH2 0xC5D JUMP JUMPDEST STOP JUMPDEST CALLVALUE DUP1 ISZERO PUSH2 0x3CB JUMPI PUSH1 0x0 DUP1 REVERT JUMPDEST POP PUSH2 0x3E6 PUSH1 0x4 DUP1 CALLDATASIZE SUB DUP2 ADD SWAP1 PUSH2 0x3E1 SWAP2 SWAP1 PUSH2 0xF5A JUMP JUMPDEST PUSH2 0xD2F JUMP JUMPDEST STOP JUMPDEST PUSH1 0x1 PUSH1 0x0 SWAP1 SLOAD SWAP1 PUSH2 0x100 EXP SWAP1 DIV PUSH20 0xFFFFFFFFFFFFFFFFFFFFFFFFFFFFFFFFFFFFFFFF AND PUSH20 0xFFFFFFFFFFFFFFFFFFFFFFFFFFFFFFFFFFFFFFFF AND CALLER PUSH20 0xFFFFFFFFFFFFFFFFFFFFFFFFFFFFFFFFFFFFFFFF AND EQ PUSH2 0x442 JUMPI PUSH1 0x0 DUP1 REVERT JUMPDEST PUSH1 0x0 PUSH1 0x5 PUSH1 0x0 DUP4 DUP2 MSTORE PUSH1 0x20 ADD SWAP1 DUP2 MSTORE PUSH1 0x20 ADD PUSH1 0x0 KECCAK256 SWAP1 POP PUSH1 0x2 PUSH1 0x4 SLOAD PUSH2 0x468 SWAP2 SWAP1 PUSH2 0x14B8 JUMP JUMPDEST DUP2 PUSH1 0x3 ADD SLOAD GT PUSH2 0x477 JUMPI PUSH1 0x0 DUP1 REVERT JUMPDEST DUP1 PUSH1 0x2 ADD PUSH1 0x14 SWAP1 SLOAD SWAP1 PUSH2 0x100 EXP SWAP1 DIV PUSH1 0xFF AND ISZERO PUSH2 0x493 JUMPI PUSH1 0x0 DUP1 REVERT JUMPDEST DUP1 PUSH1 0x2 ADD PUSH1 0x0 SWAP1 SLOAD SWAP1 PUSH2 0x100 EXP SWAP1 DIV PUSH20 0xFFFFFFFFFFFFFFFFFFFFFFFFFFFFFFFFFFFFFFFF AND PUSH20 0xFFFFFFFFFFFFFFFFFFFFFFFFFFFFFFFFFFFFFFFF AND PUSH2 0x8FC DUP3 PUSH1 0x1 ADD SLOAD SWAP1 DUP2 ISZERO MUL SWAP1 PUSH1 0x40 MLOAD PUSH1 0x0 PUSH1 0x40 MLOAD DUP1 DUP4 SUB DUP2 DUP6 DUP9 DUP9 CALL SWAP4 POP POP POP POP ISZERO DUP1 ISZERO PUSH2 0x501 JUMPI RETURNDATASIZE PUSH1 0x0 DUP1 RETURNDATACOPY RETURNDATASIZE PUSH1 0x0 REVERT JUMPDEST POP PUSH1 0x1 DUP2 PUSH1 0x2 ADD PUSH1 0x14 PUSH2 0x100 EXP DUP2 SLOAD DUP2 PUSH1 0xFF MUL NOT AND SWAP1 DUP4 ISZERO ISZERO MUL OR SWAP1 SSTORE POP POP POP JUMP JUMPDEST PUSH1 0x3 PUSH1 0x20 MSTORE DUP1 PUSH1 0x0 MSTORE PUSH1 0x40 PUSH1 0x0 KECCAK256 PUSH1 0x0 SWAP2 POP SLOAD SWAP1 PUSH2 0x100 EXP SWAP1 DIV PUSH1 0xFF AND DUP2 JUMP JUMPDEST PUSH1 0x8 DUP1 SLOAD PUSH2 0x550 SWAP1 PUSH2 0x1518 JUMP JUMPDEST DUP1 PUSH1 0x1F ADD PUSH1 0x20 DUP1 SWAP2 DIV MUL PUSH1 0x20 ADD PUSH1 0x40 MLOAD SWAP1 DUP2 ADD PUSH1 0x40 MSTORE DUP1 SWAP3 SWAP2 SWAP1 DUP2 DUP2 MSTORE PUSH1 0x20 ADD DUP3 DUP1 SLOAD PUSH2 0x57C SWAP1 PUSH2 0x1518 JUMP JUMPDEST DUP1 ISZERO PUSH2 0x5C9 JUMPI DUP1 PUSH1 0x1F LT PUSH2 0x59E JUMPI PUSH2 0x100 DUP1 DUP4 SLOAD DIV MUL DUP4 MSTORE SWAP2 PUSH1 0x20 ADD SWAP2 PUSH2 0x5C9 JUMP JUMPDEST DUP3 ADD SWAP2 SWAP1 PUSH1 0x0 MSTORE PUSH1 0x20 PUSH1 0x0 KECCAK256 SWAP1 JUMPDEST DUP2 SLOAD DUP2 MSTORE SWAP1 PUSH1 0x1 ADD SWAP1 PUSH1 0x20 ADD DUP1 DUP4 GT PUSH2 0x5AC JUMPI DUP3 SWAP1 SUB PUSH1 0x1F AND DUP3 ADD SWAP2 JUMPDEST POP POP POP POP POP DUP2 JUMP JUMPDEST PUSH1 0x0 DUP1 SLOAD SWAP1 POP SWAP1 JUMP JUMPDEST PUSH1 0x0 DUP1 PUSH1 0x0 DUP1 PUSH1 0x0 PUSH1 0x60 DUP1 PUSH1 0x60 DUP1 PUSH1 0x0 PUSH1 0x2 SLOAD SELFBALANCE PUSH1 0x0 SLOAD PUSH1 0x4 SLOAD PUSH1 0x1 PUSH1 0x0 SWAP1 SLOAD SWAP1 PUSH2 0x100 EXP SWAP1 DIV PUSH20 0xFFFFFFFFFFFFFFFFFFFFFFFFFFFFFFFFFFFFFFFF AND PUSH1 0x6 PUSH1 0x7 PUSH1 0x8 PUSH1 0x9 PUSH1 0xA SLOAD DUP5 DUP1 SLOAD PUSH2 0x62E SWAP1 PUSH2 0x1518 JUMP JUMPDEST DUP1 PUSH1 0x1F ADD PUSH1 0x20 DUP1 SWAP2 DIV MUL PUSH1 0x20 ADD PUSH1 0x40 MLOAD SWAP1 DUP2 ADD PUSH1 0x40 MSTORE DUP1 SWAP3 SWAP2 SWAP1 DUP2 DUP2 MSTORE PUSH1 0x20 ADD DUP3 DUP1 SLOAD PUSH2 0x65A SWAP1 PUSH2 0x1518 JUMP JUMPDEST DUP1 ISZERO PUSH2 0x6A7 JUMPI DUP1 PUSH1 0x1F LT PUSH2 0x67C JUMPI PUSH2 0x100 DUP1 DUP4 SLOAD DIV MUL DUP4 MSTORE SWAP2 PUSH1 0x20 ADD SWAP2 PUSH2 0x6A7 JUMP JUMPDEST DUP3 ADD SWAP2 SWAP1 PUSH1 0x0 MSTORE PUSH1 0x20 PUSH1 0x0 KECCAK256 SWAP1 JUMPDEST DUP2 SLOAD DUP2 MSTORE SWAP1 PUSH1 0x1 ADD SWAP1 PUSH1 0x20 ADD DUP1 DUP4 GT PUSH2 0x68A JUMPI DUP3 SWAP1 SUB PUSH1 0x1F AND DUP3 ADD SWAP2 JUMPDEST POP POP POP POP POP SWAP5 POP DUP4 DUP1 SLOAD PUSH2 0x6BA SWAP1 PUSH2 0x1518 JUMP JUMPDEST DUP1 PUSH1 0x1F ADD PUSH1 0x20 DUP1 SWAP2 DIV MUL PUSH1 0x20 ADD PUSH1 0x40 MLOAD SWAP1 DUP2 ADD PUSH1 0x40 MSTORE DUP1 SWAP3 SWAP2 SWAP1 DUP2 DUP2 MSTORE PUSH1 0x20 ADD DUP3 DUP1 SLOAD PUSH2 0x6E6 SWAP1 PUSH2 0x1518 JUMP JUMPDEST DUP1 ISZERO PUSH2 0x733 JUMPI DUP1 PUSH1 0x1F LT PUSH2 0x708 JUMPI PUSH2 0x100 DUP1 DUP4 SLOAD DIV MUL DUP4 MSTORE SWAP2 PUSH1 0x20 ADD SWAP2 PUSH2 0x733 JUMP JUMPDEST DUP3 ADD SWAP2 SWAP1 PUSH1 0x0 MSTORE PUSH1 0x20 PUSH1 0x0 KECCAK256 SWAP1 JUMPDEST DUP2 SLOAD DUP2 MSTORE SWAP1 PUSH1 0x1 ADD SWAP1 PUSH1 0x20 ADD DUP1 DUP4 GT PUSH2 0x716 JUMPI DUP3 SWAP1 SUB PUSH1 0x1F AND DUP3 ADD SWAP2 JUMPDEST POP POP POP POP POP SWAP4 POP DUP3 DUP1 SLOAD PUSH2 0x746 SWAP1 PUSH2 0x1518 JUMP JUMPDEST DUP1 PUSH1 0x1F ADD PUSH1 0x20 DUP1 SWAP2 DIV MUL PUSH1 0x20 ADD PUSH1 0x40 MLOAD SWAP1 DUP2 ADD PUSH1 0x40 MSTORE DUP1 SWAP3 SWAP2 SWAP1 DUP2 DUP2 MSTORE PUSH1 0x20 ADD DUP3 DUP1 SLOAD PUSH2 0x772 SWAP1 PUSH2 0x1518 JUMP JUMPDEST DUP1 ISZERO PUSH2 0x7BF JUMPI DUP1 PUSH1 0x1F LT PUSH2 0x794 JUMPI PUSH2 0x100 DUP1 DUP4 SLOAD DIV MUL DUP4 MSTORE SWAP2 PUSH1 0x20 ADD SWAP2 PUSH2 0x7BF JUMP JUMPDEST DUP3 ADD SWAP2 SWAP1 PUSH1 0x0 MSTORE PUSH1 0x20 PUSH1 0x0 KECCAK256 SWAP1 JUMPDEST DUP2 SLOAD DUP2 MSTORE SWAP1 PUSH1 0x1 ADD SWAP1 PUSH1 0x20 ADD DUP1 DUP4 GT PUSH2 0x7A2 JUMPI DUP3 SWAP1 SUB PUSH1 0x1F AND DUP3 ADD SWAP2 JUMPDEST POP POP POP POP POP SWAP3 POP DUP2 DUP1 SLOAD PUSH2 0x7D2 SWAP1 PUSH2 0x1518 JUMP JUMPDEST DUP1 PUSH1 0x1F ADD PUSH1 0x20 DUP1 SWAP2 DIV MUL PUSH1 0x20 ADD PUSH1 0x40 MLOAD SWAP1 DUP2 ADD PUSH1 0x40 MSTORE DUP1 SWAP3 SWAP2 SWAP1 DUP2 DUP2 MSTORE PUSH1 0x20 ADD DUP3 DUP1 SLOAD PUSH2 0x7FE SWAP1 PUSH2 0x1518 JUMP JUMPDEST DUP1 ISZERO PUSH2 0x84B JUMPI DUP1 PUSH1 0x1F LT PUSH2 0x820 JUMPI PUSH2 0x100 DUP1 DUP4 SLOAD DIV MUL DUP4 MSTORE SWAP2 PUSH1 0x20 ADD SWAP2 PUSH2 0x84B JUMP JUMPDEST DUP3 ADD SWAP2 SWAP1 PUSH1 0x0 MSTORE PUSH1 0x20 PUSH1 0x0 KECCAK256 SWAP1 JUMPDEST DUP2 SLOAD DUP2 MSTORE SWAP1 PUSH1 0x1 ADD SWAP1 PUSH1 0x20 ADD DUP1 DUP4 GT PUSH2 0x82E JUMPI DUP3 SWAP1 SUB PUSH1 0x1F AND DUP3 ADD SWAP2 JUMPDEST POP POP POP POP POP SWAP2 POP SWAP10 POP SWAP10 POP SWAP10 POP SWAP10 POP SWAP10 POP SWAP10 POP SWAP10 POP SWAP10 POP SWAP10 POP SWAP10 POP SWAP1 SWAP2 SWAP3 SWAP4 SWAP5 SWAP6 SWAP7 SWAP8 SWAP9 SWAP10 JUMP JUMPDEST PUSH1 0x7 DUP1 SLOAD PUSH2 0x87F SWAP1 PUSH2 0x1518 JUMP JUMPDEST DUP1 PUSH1 0x1F ADD PUSH1 0x20 DUP1 SWAP2 DIV MUL PUSH1 0x20 ADD PUSH1 0x40 MLOAD SWAP1 DUP2 ADD PUSH1 0x40 MSTORE DUP1 SWAP3 SWAP2 SWAP1 DUP2 DUP2 MSTORE PUSH1 0x20 ADD DUP3 DUP1 SLOAD PUSH2 0x8AB SWAP1 PUSH2 0x1518 JUMP JUMPDEST DUP1 ISZERO PUSH2 0x8F8 JUMPI DUP1 PUSH1 0x1F LT PUSH2 0x8CD JUMPI PUSH2 0x100 DUP1 DUP4 SLOAD DIV MUL DUP4 MSTORE SWAP2 PUSH1 0x20 ADD SWAP2 PUSH2 0x8F8 JUMP JUMPDEST DUP3 ADD SWAP2 SWAP1 PUSH1 0x0 MSTORE PUSH1 0x20 PUSH1 0x0 KECCAK256 SWAP1 JUMPDEST DUP2 SLOAD DUP2 MSTORE SWAP1 PUSH1 0x1 ADD SWAP1 PUSH1 0x20 ADD DUP1 DUP4 GT PUSH2 0x8DB JUMPI DUP3 SWAP1 SUB PUSH1 0x1F AND DUP3 ADD SWAP2 JUMPDEST POP POP POP POP POP DUP2 JUMP JUMPDEST PUSH1 0x1 PUSH1 0x0 SWAP1 SLOAD SWAP1 PUSH2 0x100 EXP SWAP1 DIV PUSH20 0xFFFFFFFFFFFFFFFFFFFFFFFFFFFFFFFFFFFFFFFF AND DUP2 JUMP JUMPDEST PUSH1 0x6 DUP1 SLOAD PUSH2 0x933 SWAP1 PUSH2 0x1518 JUMP JUMPDEST DUP1 PUSH1 0x1F ADD PUSH1 0x20 DUP1 SWAP2 DIV MUL PUSH1 0x20 ADD PUSH1 0x40 MLOAD SWAP1 DUP2 ADD PUSH1 0x40 MSTORE DUP1 SWAP3 SWAP2 SWAP1 DUP2 DUP2 MSTORE PUSH1 0x20 ADD DUP3 DUP1 SLOAD PUSH2 0x95F SWAP1 PUSH2 0x1518 JUMP JUMPDEST DUP1 ISZERO PUSH2 0x9AC JUMPI DUP1 PUSH1 0x1F LT PUSH2 0x981 JUMPI PUSH2 0x100 DUP1 DUP4 SLOAD DIV MUL DUP4 MSTORE SWAP2 PUSH1 0x20 ADD SWAP2 PUSH2 0x9AC JUMP JUMPDEST DUP3 ADD SWAP2 SWAP1 PUSH1 0x0 MSTORE PUSH1 0x20 PUSH1 0x0 KECCAK256 SWAP1 JUMPDEST DUP2 SLOAD DUP2 MSTORE SWAP1 PUSH1 0x1 ADD SWAP1 PUSH1 0x20 ADD DUP1 DUP4 GT PUSH2 0x98F JUMPI DUP3 SWAP1 SUB PUSH1 0x1F AND DUP3 ADD SWAP2 JUMPDEST POP POP POP POP POP DUP2 JUMP JUMPDEST PUSH1 0x5 PUSH1 0x20 MSTORE DUP1 PUSH1 0x0 MSTORE PUSH1 0x40 PUSH1 0x0 KECCAK256 PUSH1 0x0 SWAP2 POP SWAP1 POP DUP1 PUSH1 0x0 ADD DUP1 SLOAD PUSH2 0x9D7 SWAP1 PUSH2 0x1518 JUMP JUMPDEST DUP1 PUSH1 0x1F ADD PUSH1 0x20 DUP1 SWAP2 DIV MUL PUSH1 0x20 ADD PUSH1 0x40 MLOAD SWAP1 DUP2 ADD PUSH1 0x40 MSTORE DUP1 SWAP3 SWAP2 SWAP1 DUP2 DUP2 MSTORE PUSH1 0x20 ADD DUP3 DUP1 SLOAD PUSH2 0xA03 SWAP1 PUSH2 0x1518 JUMP JUMPDEST DUP1 ISZERO PUSH2 0xA50 JUMPI DUP1 PUSH1 0x1F LT PUSH2 0xA25 JUMPI PUSH2 0x100 DUP1 DUP4 SLOAD DIV MUL DUP4 MSTORE SWAP2 PUSH1 0x20 ADD SWAP2 PUSH2 0xA50 JUMP JUMPDEST DUP3 ADD SWAP2 SWAP1 PUSH1 0x0 MSTORE PUSH1 0x20 PUSH1 0x0 KECCAK256 SWAP1 JUMPDEST DUP2 SLOAD DUP2 MSTORE SWAP1 PUSH1 0x1 ADD SWAP1 PUSH1 0x20 ADD DUP1 DUP4 GT PUSH2 0xA33 JUMPI DUP3 SWAP1 SUB PUSH1 0x1F AND DUP3 ADD SWAP2 JUMPDEST POP POP POP POP POP SWAP1 DUP1 PUSH1 0x1 ADD SLOAD SWAP1 DUP1 PUSH1 0x2 ADD PUSH1 0x0 SWAP1 SLOAD SWAP1 PUSH2 0x100 EXP SWAP1 DIV PUSH20 0xFFFFFFFFFFFFFFFFFFFFFFFFFFFFFFFFFFFFFFFF AND SWAP1 DUP1 PUSH1 0x2 ADD PUSH1 0x14 SWAP1 SLOAD SWAP1 PUSH2 0x100 EXP SWAP1 DIV PUSH1 0xFF AND SWAP1 DUP1 PUSH1 0x3 ADD SLOAD SWAP1 POP DUP6 JUMP JUMPDEST PUSH1 0xA SLOAD DUP2 JUMP JUMPDEST PUSH1 0x9 DUP1 SLOAD PUSH2 0xAB2 SWAP1 PUSH2 0x1518 JUMP JUMPDEST DUP1 PUSH1 0x1F ADD PUSH1 0x20 DUP1 SWAP2 DIV MUL PUSH1 0x20 ADD PUSH1 0x40 MLOAD SWAP1 DUP2 ADD PUSH1 0x40 MSTORE DUP1 SWAP3 SWAP2 SWAP1 DUP2 DUP2 MSTORE PUSH1 0x20 ADD DUP3 DUP1 SLOAD PUSH2 0xADE SWAP1 PUSH2 0x1518 JUMP JUMPDEST DUP1 ISZERO PUSH2 0xB2B JUMPI DUP1 PUSH1 0x1F LT PUSH2 0xB00 JUMPI PUSH2 0x100 DUP1 DUP4 SLOAD DIV MUL DUP4 MSTORE SWAP2 PUSH1 0x20 ADD SWAP2 PUSH2 0xB2B JUMP JUMPDEST DUP3 ADD SWAP2 SWAP1 PUSH1 0x0 MSTORE PUSH1 0x20 PUSH1 0x0 KECCAK256 SWAP1 JUMPDEST DUP2 SLOAD DUP2 MSTORE SWAP1 PUSH1 0x1 ADD SWAP1 PUSH1 0x20 ADD DUP1 DUP4 GT PUSH2 0xB0E JUMPI DUP3 SWAP1 SUB PUSH1 0x1F AND DUP3 ADD SWAP2 JUMPDEST POP POP POP POP POP DUP2 JUMP JUMPDEST PUSH1 0x4 SLOAD DUP2 JUMP JUMPDEST PUSH1 0x1 PUSH1 0x0 SWAP1 SLOAD SWAP1 PUSH2 0x100 EXP SWAP1 DIV PUSH20 0xFFFFFFFFFFFFFFFFFFFFFFFFFFFFFFFFFFFFFFFF AND PUSH20 0xFFFFFFFFFFFFFFFFFFFFFFFFFFFFFFFFFFFFFFFF AND CALLER PUSH20 0xFFFFFFFFFFFFFFFFFFFFFFFFFFFFFFFFFFFFFFFF AND EQ PUSH2 0xB93 JUMPI PUSH1 0x0 DUP1 REVERT JUMPDEST PUSH1 0x0 PUSH1 0x5 PUSH1 0x0 DUP1 PUSH1 0x0 DUP2 SLOAD DUP1 SWAP3 SWAP2 SWAP1 PUSH2 0xBAB SWAP1 PUSH2 0x1549 JUMP JUMPDEST SWAP2 SWAP1 POP SSTORE DUP2 MSTORE PUSH1 0x20 ADD SWAP1 DUP2 MSTORE PUSH1 0x20 ADD PUSH1 0x0 KECCAK256 SWAP1 POP DUP4 DUP2 PUSH1 0x0 ADD SWAP1 DUP1 MLOAD SWAP1 PUSH1 0x20 ADD SWAP1 PUSH2 0xBD7 SWAP3 SWAP2 SWAP1 PUSH2 0xE6D JUMP JUMPDEST POP DUP3 DUP2 PUSH1 0x1 ADD DUP2 SWAP1 SSTORE POP DUP2 DUP2 PUSH1 0x2 ADD PUSH1 0x0 PUSH2 0x100 EXP DUP2 SLOAD DUP2 PUSH20 0xFFFFFFFFFFFFFFFFFFFFFFFFFFFFFFFFFFFFFFFF MUL NOT AND SWAP1 DUP4 PUSH20 0xFFFFFFFFFFFFFFFFFFFFFFFFFFFFFFFFFFFFFFFF AND MUL OR SWAP1 SSTORE POP PUSH1 0x0 DUP2 PUSH1 0x2 ADD PUSH1 0x14 PUSH2 0x100 EXP DUP2 SLOAD DUP2 PUSH1 0xFF MUL NOT AND SWAP1 DUP4 ISZERO ISZERO MUL OR SWAP1 SSTORE POP PUSH1 0x0 DUP2 PUSH1 0x3 ADD DUP2 SWAP1 SSTORE POP POP POP POP POP JUMP JUMPDEST PUSH1 0x2 SLOAD DUP2 JUMP JUMPDEST PUSH1 0x0 SLOAD DUP2 JUMP JUMPDEST PUSH1 0x2 SLOAD CALLVALUE GT PUSH2 0xC6B JUMPI PUSH1 0x0 DUP1 REVERT JUMPDEST PUSH1 0x3 PUSH1 0x0 CALLER PUSH20 0xFFFFFFFFFFFFFFFFFFFFFFFFFFFFFFFFFFFFFFFF AND PUSH20 0xFFFFFFFFFFFFFFFFFFFFFFFFFFFFFFFFFFFFFFFF AND DUP2 MSTORE PUSH1 0x20 ADD SWAP1 DUP2 MSTORE PUSH1 0x20 ADD PUSH1 0x0 KECCAK256 PUSH1 0x0 SWAP1 SLOAD SWAP1 PUSH2 0x100 EXP SWAP1 DIV PUSH1 0xFF AND PUSH2 0xD2D JUMPI PUSH1 0x1 PUSH1 0x3 PUSH1 0x0 CALLER PUSH20 0xFFFFFFFFFFFFFFFFFFFFFFFFFFFFFFFFFFFFFFFF AND PUSH20 0xFFFFFFFFFFFFFFFFFFFFFFFFFFFFFFFFFFFFFFFF AND DUP2 MSTORE PUSH1 0x20 ADD SWAP1 DUP2 MSTORE PUSH1 0x20 ADD PUSH1 0x0 KECCAK256 PUSH1 0x0 PUSH2 0x100 EXP DUP2 SLOAD DUP2 PUSH1 0xFF MUL NOT AND SWAP1 DUP4 ISZERO ISZERO MUL OR SWAP1 SSTORE POP PUSH1 0x4 PUSH1 0x0 DUP2 SLOAD DUP1 SWAP3 SWAP2 SWAP1 PUSH2 0xD27 SWAP1 PUSH2 0x1549 JUMP JUMPDEST SWAP2 SWAP1 POP SSTORE POP JUMPDEST JUMP JUMPDEST PUSH1 0x0 PUSH1 0x5 PUSH1 0x0 DUP4 DUP2 MSTORE PUSH1 0x20 ADD SWAP1 DUP2 MSTORE PUSH1 0x20 ADD PUSH1 0x0 KECCAK256 SWAP1 POP PUSH1 0x3 PUSH1 0x0 CALLER PUSH20 0xFFFFFFFFFFFFFFFFFFFFFFFFFFFFFFFFFFFFFFFF AND PUSH20 0xFFFFFFFFFFFFFFFFFFFFFFFFFFFFFFFFFFFFFFFF AND DUP2 MSTORE PUSH1 0x20 ADD SWAP1 DUP2 MSTORE PUSH1 0x20 ADD PUSH1 0x0 KECCAK256 PUSH1 0x0 SWAP1 SLOAD SWAP1 PUSH2 0x100 EXP SWAP1 DIV PUSH1 0xFF AND PUSH2 0xD9C JUMPI PUSH1 0x0 DUP1 REVERT JUMPDEST DUP1 PUSH1 0x4 ADD PUSH1 0x0 CALLER PUSH20 0xFFFFFFFFFFFFFFFFFFFFFFFFFFFFFFFFFFFFFFFF AND PUSH20 0xFFFFFFFFFFFFFFFFFFFFFFFFFFFFFFFFFFFFFFFF AND DUP2 MSTORE PUSH1 0x20 ADD SWAP1 DUP2 MSTORE PUSH1 0x20 ADD PUSH1 0x0 KECCAK256 PUSH1 0x0 SWAP1 SLOAD SWAP1 PUSH2 0x100 EXP SWAP1 DIV PUSH1 0xFF AND ISZERO PUSH2 0xDF5 JUMPI PUSH1 0x0 DUP1 REVERT JUMPDEST PUSH1 0x1 DUP2 PUSH1 0x4 ADD PUSH1 0x0 CALLER PUSH20 0xFFFFFFFFFFFFFFFFFFFFFFFFFFFFFFFFFFFFFFFF AND PUSH20 0xFFFFFFFFFFFFFFFFFFFFFFFFFFFFFFFFFFFFFFFF AND DUP2 MSTORE PUSH1 0x20 ADD SWAP1 DUP2 MSTORE PUSH1 0x20 ADD PUSH1 0x0 KECCAK256 PUSH1 0x0 PUSH2 0x100 EXP DUP2 SLOAD DUP2 PUSH1 0xFF MUL NOT AND SWAP1 DUP4 ISZERO ISZERO MUL OR SWAP1 SSTORE POP DUP1 PUSH1 0x3 ADD PUSH1 0x0 DUP2 SLOAD DUP1 SWAP3 SWAP2 SWAP1 PUSH2 0xE64 SWAP1 PUSH2 0x1549 JUMP JUMPDEST SWAP2 SWAP1 POP SSTORE POP POP POP JUMP JUMPDEST DUP3 DUP1 SLOAD PUSH2 0xE79 SWAP1 PUSH2 0x1518 JUMP JUMPDEST SWAP1 PUSH1 0x0 MSTORE PUSH1 0x20 PUSH1 0x0 KECCAK256 SWAP1 PUSH1 0x1F ADD PUSH1 0x20 SWAP1 DIV DUP2 ADD SWAP3 DUP3 PUSH2 0xE9B JUMPI PUSH1 0x0 DUP6 SSTORE PUSH2 0xEE2 JUMP JUMPDEST DUP3 PUSH1 0x1F LT PUSH2 0xEB4 JUMPI DUP1 MLOAD PUSH1 0xFF NOT AND DUP4 DUP1 ADD OR DUP6 SSTORE PUSH2 0xEE2 JUMP JUMPDEST DUP3 DUP1 ADD PUSH1 0x1 ADD DUP6 SSTORE DUP3 ISZERO PUSH2 0xEE2 JUMPI SWAP2 DUP3 ADD JUMPDEST DUP3 DUP2 GT ISZERO PUSH2 0xEE1 JUMPI DUP3 MLOAD DUP3 SSTORE SWAP2 PUSH1 0x20 ADD SWAP2 SWAP1 PUSH1 0x1 ADD SWAP1 PUSH2 0xEC6 JUMP JUMPDEST JUMPDEST POP SWAP1 POP PUSH2 0xEEF SWAP2 SWAP1 PUSH2 0xEF3 JUMP JUMPDEST POP SWAP1 JUMP JUMPDEST JUMPDEST DUP1 DUP3 GT ISZERO PUSH2 0xF0C JUMPI PUSH1 0x0 DUP2 PUSH1 0x0 SWAP1 SSTORE POP PUSH1 0x1 ADD PUSH2 0xEF4 JUMP JUMPDEST POP SWAP1 JUMP JUMPDEST PUSH1 0x0 PUSH1 0x40 MLOAD SWAP1 POP SWAP1 JUMP JUMPDEST PUSH1 0x0 DUP1 REVERT JUMPDEST PUSH1 0x0 DUP1 REVERT JUMPDEST PUSH1 0x0 DUP2 SWAP1 POP SWAP2 SWAP1 POP JUMP JUMPDEST PUSH2 0xF37 DUP2 PUSH2 0xF24 JUMP JUMPDEST DUP2 EQ PUSH2 0xF42 JUMPI PUSH1 0x0 DUP1 REVERT JUMPDEST POP JUMP JUMPDEST PUSH1 0x0 DUP2 CALLDATALOAD SWAP1 POP PUSH2 0xF54 DUP2 PUSH2 0xF2E JUMP JUMPDEST SWAP3 SWAP2 POP POP JUMP JUMPDEST PUSH1 0x0 PUSH1 0x20 DUP3 DUP5 SUB SLT ISZERO PUSH2 0xF70 JUMPI PUSH2 0xF6F PUSH2 0xF1A JUMP JUMPDEST JUMPDEST PUSH1 0x0 PUSH2 0xF7E DUP5 DUP3 DUP6 ADD PUSH2 0xF45 JUMP JUMPDEST SWAP2 POP POP SWAP3 SWAP2 POP POP JUMP JUMPDEST PUSH1 0x0 PUSH20 0xFFFFFFFFFFFFFFFFFFFFFFFFFFFFFFFFFFFFFFFF DUP3 AND SWAP1 POP SWAP2 SWAP1 POP JUMP JUMPDEST PUSH1 0x0 PUSH2 0xFB2 DUP3 PUSH2 0xF87 JUMP JUMPDEST SWAP1 POP SWAP2 SWAP1 POP JUMP JUMPDEST PUSH2 0xFC2 DUP2 PUSH2 0xFA7 JUMP JUMPDEST DUP2 EQ PUSH2 0xFCD JUMPI PUSH1 0x0 DUP1 REVERT JUMPDEST POP JUMP JUMPDEST PUSH1 0x0 DUP2 CALLDATALOAD SWAP1 POP PUSH2 0xFDF DUP2 PUSH2 0xFB9 JUMP JUMPDEST SWAP3 SWAP2 POP POP JUMP JUMPDEST PUSH1 0x0 PUSH1 0x20 DUP3 DUP5 SUB SLT ISZERO PUSH2 0xFFB JUMPI PUSH2 0xFFA PUSH2 0xF1A JUMP JUMPDEST JUMPDEST PUSH1 0x0 PUSH2 0x1009 DUP5 DUP3 DUP6 ADD PUSH2 0xFD0 JUMP JUMPDEST SWAP2 POP POP SWAP3 SWAP2 POP POP JUMP JUMPDEST PUSH1 0x0 DUP2 ISZERO ISZERO SWAP1 POP SWAP2 SWAP1 POP JUMP JUMPDEST PUSH2 0x1027 DUP2 PUSH2 0x1012 JUMP JUMPDEST DUP3 MSTORE POP POP JUMP JUMPDEST PUSH1 0x0 PUSH1 0x20 DUP3 ADD SWAP1 POP PUSH2 0x1042 PUSH1 0x0 DUP4 ADD DUP5 PUSH2 0x101E JUMP JUMPDEST SWAP3 SWAP2 POP POP JUMP JUMPDEST PUSH1 0x0 DUP2 MLOAD SWAP1 POP SWAP2 SWAP1 POP JUMP JUMPDEST PUSH1 0x0 DUP3 DUP3 MSTORE PUSH1 0x20 DUP3 ADD SWAP1 POP SWAP3 SWAP2 POP POP JUMP JUMPDEST PUSH1 0x0 JUMPDEST DUP4 DUP2 LT ISZERO PUSH2 0x1082 JUMPI DUP1 DUP3 ADD MLOAD DUP2 DUP5 ADD MSTORE PUSH1 0x20 DUP2 ADD SWAP1 POP PUSH2 0x1067 JUMP JUMPDEST DUP4 DUP2 GT ISZERO PUSH2 0x1091 JUMPI PUSH1 0x0 DUP5 DUP5 ADD MSTORE JUMPDEST POP POP POP POP JUMP JUMPDEST PUSH1 0x0 PUSH1 0x1F NOT PUSH1 0x1F DUP4 ADD AND SWAP1 POP SWAP2 SWAP1 POP JUMP JUMPDEST PUSH1 0x0 PUSH2 0x10B3 DUP3 PUSH2 0x1048 JUMP JUMPDEST PUSH2 0x10BD DUP2 DUP6 PUSH2 0x1053 JUMP JUMPDEST SWAP4 POP PUSH2 0x10CD DUP2 DUP6 PUSH1 0x20 DUP7 ADD PUSH2 0x1064 JUMP JUMPDEST PUSH2 0x10D6 DUP2 PUSH2 0x1097 JUMP JUMPDEST DUP5 ADD SWAP2 POP POP SWAP3 SWAP2 POP POP JUMP JUMPDEST PUSH1 0x0 PUSH1 0x20 DUP3 ADD SWAP1 POP DUP2 DUP2 SUB PUSH1 0x0 DUP4 ADD MSTORE PUSH2 0x10FB DUP2 DUP5 PUSH2 0x10A8 JUMP JUMPDEST SWAP1 POP SWAP3 SWAP2 POP POP JUMP JUMPDEST PUSH2 0x110C DUP2 PUSH2 0xF24 JUMP JUMPDEST DUP3 MSTORE POP POP JUMP JUMPDEST PUSH1 0x0 PUSH1 0x20 DUP3 ADD SWAP1 POP PUSH2 0x1127 PUSH1 0x0 DUP4 ADD DUP5 PUSH2 0x1103 JUMP JUMPDEST SWAP3 SWAP2 POP POP JUMP JUMPDEST PUSH2 0x1136 DUP2 PUSH2 0xFA7 JUMP JUMPDEST DUP3 MSTORE POP POP JUMP JUMPDEST PUSH1 0x0 PUSH2 0x140 DUP3 ADD SWAP1 POP PUSH2 0x1152 PUSH1 0x0 DUP4 ADD DUP14 PUSH2 0x1103 JUMP JUMPDEST PUSH2 0x115F PUSH1 0x20 DUP4 ADD DUP13 PUSH2 0x1103 JUMP JUMPDEST PUSH2 0x116C PUSH1 0x40 DUP4 ADD DUP12 PUSH2 0x1103 JUMP JUMPDEST PUSH2 0x1179 PUSH1 0x60 DUP4 ADD DUP11 PUSH2 0x1103 JUMP JUMPDEST PUSH2 0x1186 PUSH1 0x80 DUP4 ADD DUP10 PUSH2 0x112D JUMP JUMPDEST DUP2 DUP2 SUB PUSH1 0xA0 DUP4 ADD MSTORE PUSH2 0x1198 DUP2 DUP9 PUSH2 0x10A8 JUMP JUMPDEST SWAP1 POP DUP2 DUP2 SUB PUSH1 0xC0 DUP4 ADD MSTORE PUSH2 0x11AC DUP2 DUP8 PUSH2 0x10A8 JUMP JUMPDEST SWAP1 POP DUP2 DUP2 SUB PUSH1 0xE0 DUP4 ADD MSTORE PUSH2 0x11C0 DUP2 DUP7 PUSH2 0x10A8 JUMP JUMPDEST SWAP1 POP DUP2 DUP2 SUB PUSH2 0x100 DUP4 ADD MSTORE PUSH2 0x11D5 DUP2 DUP6 PUSH2 0x10A8 JUMP JUMPDEST SWAP1 POP PUSH2 0x11E5 PUSH2 0x120 DUP4 ADD DUP5 PUSH2 0x1103 JUMP JUMPDEST SWAP12 SWAP11 POP POP POP POP POP POP POP POP POP POP POP JUMP JUMPDEST PUSH1 0x0 PUSH1 0x20 DUP3 ADD SWAP1 POP PUSH2 0x1209 PUSH1 0x0 DUP4 ADD DUP5 PUSH2 0x112D JUMP JUMPDEST SWAP3 SWAP2 POP POP JUMP JUMPDEST PUSH1 0x0 PUSH2 0x121A DUP3 PUSH2 0xF87 JUMP JUMPDEST SWAP1 POP SWAP2 SWAP1 POP JUMP JUMPDEST PUSH2 0x122A DUP2 PUSH2 0x120F JUMP JUMPDEST DUP3 MSTORE POP POP JUMP JUMPDEST PUSH1 0x0 PUSH1 0xA0 DUP3 ADD SWAP1 POP DUP2 DUP2 SUB PUSH1 0x0 DUP4 ADD MSTORE PUSH2 0x124A DUP2 DUP9 PUSH2 0x10A8 JUMP JUMPDEST SWAP1 POP PUSH2 0x1259 PUSH1 0x20 DUP4 ADD DUP8 PUSH2 0x1103 JUMP JUMPDEST PUSH2 0x1266 PUSH1 0x40 DUP4 ADD DUP7 PUSH2 0x1221 JUMP JUMPDEST PUSH2 0x1273 PUSH1 0x60 DUP4 ADD DUP6 PUSH2 0x101E JUMP JUMPDEST PUSH2 0x1280 PUSH1 0x80 DUP4 ADD DUP5 PUSH2 0x1103 JUMP JUMPDEST SWAP7 SWAP6 POP POP POP POP POP POP JUMP JUMPDEST PUSH1 0x0 DUP1 REVERT JUMPDEST PUSH1 0x0 DUP1 REVERT JUMPDEST PUSH32 0x4E487B7100000000000000000000000000000000000000000000000000000000 PUSH1 0x0 MSTORE PUSH1 0x41 PUSH1 0x4 MSTORE PUSH1 0x24 PUSH1 0x0 REVERT JUMPDEST PUSH2 0x12CC DUP3 PUSH2 0x1097 JUMP JUMPDEST DUP2 ADD DUP2 DUP2 LT PUSH8 0xFFFFFFFFFFFFFFFF DUP3 GT OR ISZERO PUSH2 0x12EB JUMPI PUSH2 0x12EA PUSH2 0x1294 JUMP JUMPDEST JUMPDEST DUP1 PUSH1 0x40 MSTORE POP POP POP JUMP JUMPDEST PUSH1 0x0 PUSH2 0x12FE PUSH2 0xF10 JUMP JUMPDEST SWAP1 POP PUSH2 0x130A DUP3 DUP3 PUSH2 0x12C3 JUMP JUMPDEST SWAP2 SWAP1 POP JUMP JUMPDEST PUSH1 0x0 PUSH8 0xFFFFFFFFFFFFFFFF DUP3 GT ISZERO PUSH2 0x132A JUMPI PUSH2 0x1329 PUSH2 0x1294 JUMP JUMPDEST JUMPDEST PUSH2 0x1333 DUP3 PUSH2 0x1097 JUMP JUMPDEST SWAP1 POP PUSH1 0x20 DUP2 ADD SWAP1 POP SWAP2 SWAP1 POP JUMP JUMPDEST DUP3 DUP2 DUP4 CALLDATACOPY PUSH1 0x0 DUP4 DUP4 ADD MSTORE POP POP POP JUMP JUMPDEST PUSH1 0x0 PUSH2 0x1362 PUSH2 0x135D DUP5 PUSH2 0x130F JUMP JUMPDEST PUSH2 0x12F4 JUMP JUMPDEST SWAP1 POP DUP3 DUP2 MSTORE PUSH1 0x20 DUP2 ADD DUP5 DUP5 DUP5 ADD GT ISZERO PUSH2 0x137E JUMPI PUSH2 0x137D PUSH2 0x128F JUMP JUMPDEST JUMPDEST PUSH2 0x1389 DUP5 DUP3 DUP6 PUSH2 0x1340 JUMP JUMPDEST POP SWAP4 SWAP3 POP POP POP JUMP JUMPDEST PUSH1 0x0 DUP3 PUSH1 0x1F DUP4 ADD SLT PUSH2 0x13A6 JUMPI PUSH2 0x13A5 PUSH2 0x128A JUMP JUMPDEST JUMPDEST DUP2 CALLDATALOAD PUSH2 0x13B6 DUP5 DUP3 PUSH1 0x20 DUP7 ADD PUSH2 0x134F JUMP JUMPDEST SWAP2 POP POP SWAP3 SWAP2 POP POP JUMP JUMPDEST PUSH2 0x13C8 DUP2 PUSH2 0x120F JUMP JUMPDEST DUP2 EQ PUSH2 0x13D3 JUMPI PUSH1 0x0 DUP1 REVERT JUMPDEST POP JUMP JUMPDEST PUSH1 0x0 DUP2 CALLDATALOAD SWAP1 POP PUSH2 0x13E5 DUP2 PUSH2 0x13BF JUMP JUMPDEST SWAP3 SWAP2 POP POP JUMP JUMPDEST PUSH1 0x0 DUP1 PUSH1 0x0 PUSH1 0x60 DUP5 DUP7 SUB SLT ISZERO PUSH2 0x1404 JUMPI PUSH2 0x1403 PUSH2 0xF1A JUMP JUMPDEST JUMPDEST PUSH1 0x0 DUP5 ADD CALLDATALOAD PUSH8 0xFFFFFFFFFFFFFFFF DUP2 GT ISZERO PUSH2 0x1422 JUMPI PUSH2 0x1421 PUSH2 0xF1F JUMP JUMPDEST JUMPDEST PUSH2 0x142E DUP7 DUP3 DUP8 ADD PUSH2 0x1391 JUMP JUMPDEST SWAP4 POP POP PUSH1 0x20 PUSH2 0x143F DUP7 DUP3 DUP8 ADD PUSH2 0xF45 JUMP JUMPDEST SWAP3 POP POP PUSH1 0x40 PUSH2 0x1450 DUP7 DUP3 DUP8 ADD PUSH2 0x13D6 JUMP JUMPDEST SWAP2 POP POP SWAP3 POP SWAP3 POP SWAP3 JUMP JUMPDEST PUSH32 0x4E487B7100000000000000000000000000000000000000000000000000000000 PUSH1 0x0 MSTORE PUSH1 0x12 PUSH1 0x4 MSTORE PUSH1 0x24 PUSH1 0x0 REVERT JUMPDEST PUSH32 0x4E487B7100000000000000000000000000000000000000000000000000000000 PUSH1 0x0 MSTORE PUSH1 0x11 PUSH1 0x4 MSTORE PUSH1 0x24 PUSH1 0x0 REVERT JUMPDEST PUSH1 0x0 PUSH2 0x14C3 DUP3 PUSH2 0xF24 JUMP JUMPDEST SWAP2 POP PUSH2 0x14CE DUP4 PUSH2 0xF24 JUMP JUMPDEST SWAP3 POP DUP3 PUSH2 0x14DE JUMPI PUSH2 0x14DD PUSH2 0x145A JUMP JUMPDEST JUMPDEST DUP3 DUP3 DIV SWAP1 POP SWAP3 SWAP2 POP POP JUMP JUMPDEST PUSH32 0x4E487B7100000000000000000000000000000000000000000000000000000000 PUSH1 0x0 MSTORE PUSH1 0x22 PUSH1 0x4 MSTORE PUSH1 0x24 PUSH1 0x0 REVERT JUMPDEST PUSH1 0x0 PUSH1 0x2 DUP3 DIV SWAP1 POP PUSH1 0x1 DUP3 AND DUP1 PUSH2 0x1530 JUMPI PUSH1 0x7F DUP3 AND SWAP2 POP JUMPDEST PUSH1 0x20 DUP3 LT DUP2 SUB PUSH2 0x1543 JUMPI PUSH2 0x1542 PUSH2 0x14E9 JUMP JUMPDEST JUMPDEST POP SWAP2 SWAP1 POP JUMP JUMPDEST PUSH1 0x0 PUSH2 0x1554 DUP3 PUSH2 0xF24 JUMP JUMPDEST SWAP2 POP PUSH32 0xFFFFFFFFFFFFFFFFFFFFFFFFFFFFFFFFFFFFFFFFFFFFFFFFFFFFFFFFFFFFFFFF DUP3 SUB PUSH2 0x1586 JUMPI PUSH2 0x1585 PUSH2 0x1489 JUMP JUMPDEST JUMPDEST PUSH1 0x1 DUP3 ADD SWAP1 POP SWAP2 SWAP1 POP JUMP INVALID LOG2 PUSH5 0x6970667358 0x22 SLT KECCAK256 0x23 CALLDATACOPY SWAP13 INVALID ADDRESS 0xE2 ADDRESS SWAP4 RETURN 0xAF 0xE9 EXTCODEHASH SSTORE PUSH8 0xE05B1C58E6088768 PUSH14 0x39D83D60BFBEB33DA664736F6C63 NUMBER STOP ADDMOD 0xD STOP CALLER "},"gasEstimates":{"creation":{"codeDepositCost":"1115000","executionCost":"infinite","totalCost":"infinite"},"external":{"approveRequest(uint256)":"infinite","approvers(address)":"2891","approversCount()":"2518","campaign_desc()":"infinite","campaign_name()":"infinite","contribute()":"53285","createRequest(string,uint256,address)":"infinite","finalizeRequest(uint256)":"infinite","full_name()":"infinite","getRequestsCount()":"2527","getSummary()":"infinite","image_url()":"infinite","manager()":"2581","minimumContribution()":"2473","numRequests()":"2495","requests(uint256)":"infinite","target_amount()":"2474"}},"methodIdentifiers":{"approveRequest(uint256)":"d7d1bbdb","approvers(address)":"0a144391","approversCount()":"82fde093","campaign_desc()":"1dc4cf2e","campaign_name()":"4137e733","contribute()":"d7bb99ba","createRequest(string,uint256,address)":"8a9cfd55","finalizeRequest(uint256)":"03441006","full_name()":"74344884","getRequestsCount()":"3410452a","getSummary()":"4051ddac","image_url()":"824f4baf","manager()":"481c6a75","minimumContribution()":"937e09b1","numRequests()":"9fb42b1f","requests(uint256)":"81d12c58","target_amount()":"81e0ffae"}},"storageLayout":{"storage":[{"astId":71,"contract":"Campaign.sol:Campaign","label":"numRequests","offset":0,"slot":"0","type":"t_uint256"},{"astId":73,"contract":"Campaign.sol:Campaign","label":"manager","offset":0,"slot":"1","type":"t_address"},{"astId":75,"contract":"Campaign.sol:Campaign","label":"minimumContribution","offset":0,"slot":"2","type":"t_uint256"},{"astId":79,"contract":"Campaign.sol:Campaign","label":"approvers","offset":0,"slot":"3","type":"t_mapping(t_address,t_bool)"},{"astId":81,"contract":"Campaign.sol:Campaign","label":"approversCount","offset":0,"slot":"4","type":"t_uint256"},{"astId":86,"contract":"Campaign.sol:Campaign","label":"requests","offset":0,"slot":"5","type":"t_mapping(t_uint256,t_struct(Request)69_storage)"},{"astId":88,"contract":"Campaign.sol:Campaign","label":"full_name","offset":0,"slot":"6","type":"t_string_storage"},{"astId":90,"contract":"Campaign.sol:Campaign","label":"campaign_name","offset":0,"slot":"7","type":"t_string_storage"},{"astId":92,"contract":"Campaign.sol:Campaign","label":"campaign_desc","offset":0,"slot":"8","type":"t_string_storage"},{"astId":94,"contract":"Campaign.sol:Campaign","label":"image_url","offset":0,"slot":"9","type":"t_string_storage"},{"astId":96,"contract":"Campaign.sol:Campaign","label":"target_amount","offset":0,"slot":"10","type":"t_uint256"}],"types":{"t_address":{"encoding":"inplace","label":"address","numberOfBytes":"20"},"t_address_payable":{"encoding":"inplace","label":"address payable","numberOfBytes":"20"},"t_bool":{"encoding":"inplace","label":"bool","numberOfBytes":"1"},"t_mapping(t_address,t_bool)":{"encoding":"mapping","key":"t_address","label":"mapping(address => bool)","numberOfBytes":"32","value":"t_bool"},"t_mapping(t_uint256,t_struct(Request)69_storage)":{"encoding":"mapping","key":"t_uint256","label":"mapping(uint256 => struct Campaign.Request)","numberOfBytes":"32","value":"t_struct(Request)69_storage"},"t_string_storage":{"encoding":"bytes","label":"string","numberOfBytes":"32"},"t_struct(Request)69_storage":{"encoding":"inplace","label":"struct Campaign.Request","members":[{"astId":56,"contract":"Campaign.sol:Campaign","label":"description","offset":0,"slot":"0","type":"t_string_storage"},{"astId":58,"contract":"Campaign.sol:Campaign","label":"value","offset":0,"slot":"1","type":"t_uint256"},{"astId":60,"contract":"Campaign.sol:Campaign","label":"recipient","offset":0,"slot":"2","type":"t_address_payable"},{"astId":62,"contract":"Campaign.sol:Campaign","label":"complete","offset":20,"slot":"2","type":"t_bool"},{"astId":64,"contract":"Campaign.sol:Campaign","label":"approvalCount","offset":0,"slot":"3","type":"t_uint256"},{"astId":68,"contract":"Campaign.sol:Campaign","label":"approvals","offset":0,"slot":"4","type":"t_mapping(t_address,t_bool)"}],"numberOfBytes":"160"},"t_uint256":{"encoding":"inplace","label":"uint256","numberOfBytes":"32"}}},"userdoc":{"kind":"user","methods":{},"version":1}}